{
  "contractName": "ERC20FanToken",
  "abi": [
    {
      "inputs": [],
      "stateMutability": "nonpayable",
      "type": "constructor"
    },
    {
      "anonymous": false,
      "inputs": [
        {
          "indexed": true,
          "internalType": "address",
          "name": "owner",
          "type": "address"
        },
        {
          "indexed": true,
          "internalType": "address",
          "name": "spender",
          "type": "address"
        },
        {
          "indexed": false,
          "internalType": "uint256",
          "name": "value",
          "type": "uint256"
        }
      ],
      "name": "Approval",
      "type": "event"
    },
    {
      "anonymous": false,
      "inputs": [
        {
          "indexed": true,
          "internalType": "address",
          "name": "previousOwner",
          "type": "address"
        },
        {
          "indexed": true,
          "internalType": "address",
          "name": "newOwner",
          "type": "address"
        }
      ],
      "name": "OwnershipTransferred",
      "type": "event"
    },
    {
      "anonymous": false,
      "inputs": [
        {
          "indexed": true,
          "internalType": "address",
          "name": "from",
          "type": "address"
        },
        {
          "indexed": true,
          "internalType": "address",
          "name": "to",
          "type": "address"
        },
        {
          "indexed": false,
          "internalType": "uint256",
          "name": "value",
          "type": "uint256"
        }
      ],
      "name": "Transfer",
      "type": "event"
    },
    {
      "inputs": [],
      "name": "DOMAIN_SEPARATOR",
      "outputs": [
        {
          "internalType": "bytes32",
          "name": "",
          "type": "bytes32"
        }
      ],
      "stateMutability": "view",
      "type": "function",
      "constant": true
    },
    {
      "inputs": [],
      "name": "MAX_CAP",
      "outputs": [
        {
          "internalType": "uint256",
          "name": "",
          "type": "uint256"
        }
      ],
      "stateMutability": "view",
      "type": "function",
      "constant": true
    },
    {
      "inputs": [],
      "name": "PERMIT_TYPEHASH",
      "outputs": [
        {
          "internalType": "bytes32",
          "name": "",
          "type": "bytes32"
        }
      ],
      "stateMutability": "view",
      "type": "function",
      "constant": true
    },
    {
      "inputs": [
        {
          "internalType": "address",
          "name": "spender",
          "type": "address"
        },
        {
          "internalType": "uint256",
          "name": "subtractedValue",
          "type": "uint256"
        }
      ],
      "name": "decreaseAllowance",
      "outputs": [
        {
          "internalType": "bool",
          "name": "",
          "type": "bool"
        }
      ],
      "stateMutability": "nonpayable",
      "type": "function"
    },
    {
      "inputs": [
        {
          "internalType": "address",
          "name": "spender",
          "type": "address"
        },
        {
          "internalType": "uint256",
          "name": "addedValue",
          "type": "uint256"
        }
      ],
      "name": "increaseAllowance",
      "outputs": [
        {
          "internalType": "bool",
          "name": "",
          "type": "bool"
        }
      ],
      "stateMutability": "nonpayable",
      "type": "function"
    },
    {
      "inputs": [
        {
          "internalType": "address",
          "name": "owner",
          "type": "address"
        }
      ],
      "name": "nonces",
      "outputs": [
        {
          "internalType": "uint256",
          "name": "",
          "type": "uint256"
        }
      ],
      "stateMutability": "view",
      "type": "function",
      "constant": true
    },
    {
      "inputs": [],
      "name": "owner",
      "outputs": [
        {
          "internalType": "address",
          "name": "",
          "type": "address"
        }
      ],
      "stateMutability": "view",
      "type": "function",
      "constant": true
    },
    {
      "inputs": [
        {
          "internalType": "address",
          "name": "owner",
          "type": "address"
        },
        {
          "internalType": "address",
          "name": "spender",
          "type": "address"
        },
        {
          "internalType": "uint256",
          "name": "amount",
          "type": "uint256"
        },
        {
          "internalType": "uint256",
          "name": "deadline",
          "type": "uint256"
        },
        {
          "internalType": "uint8",
          "name": "v",
          "type": "uint8"
        },
        {
          "internalType": "bytes32",
          "name": "r",
          "type": "bytes32"
        },
        {
          "internalType": "bytes32",
          "name": "s",
          "type": "bytes32"
        }
      ],
      "name": "permit",
      "outputs": [],
      "stateMutability": "nonpayable",
      "type": "function"
    },
    {
      "inputs": [
        {
          "internalType": "address",
          "name": "newOwner",
          "type": "address"
        }
      ],
      "name": "transferOwnership",
      "outputs": [],
      "stateMutability": "nonpayable",
      "type": "function"
    },
    {
      "inputs": [
        {
          "internalType": "uint256",
          "name": "amount",
          "type": "uint256"
        }
      ],
      "name": "burn",
      "outputs": [],
      "stateMutability": "nonpayable",
      "type": "function"
    },
    {
      "inputs": [
        {
          "internalType": "address",
          "name": "account",
          "type": "address"
        },
        {
          "internalType": "uint256",
          "name": "amount",
          "type": "uint256"
        }
      ],
      "name": "burnFrom",
      "outputs": [],
      "stateMutability": "nonpayable",
      "type": "function"
    },
    {
      "inputs": [],
      "name": "totalSupply",
      "outputs": [
        {
          "internalType": "uint256",
          "name": "",
          "type": "uint256"
        }
      ],
      "stateMutability": "view",
      "type": "function",
      "constant": true
    },
    {
      "inputs": [],
      "name": "decimals",
      "outputs": [
        {
          "internalType": "uint8",
          "name": "",
          "type": "uint8"
        }
      ],
      "stateMutability": "view",
      "type": "function",
      "constant": true
    },
    {
      "inputs": [],
      "name": "symbol",
      "outputs": [
        {
          "internalType": "string",
          "name": "",
          "type": "string"
        }
      ],
      "stateMutability": "view",
      "type": "function",
      "constant": true
    },
    {
      "inputs": [],
      "name": "name",
      "outputs": [
        {
          "internalType": "string",
          "name": "",
          "type": "string"
        }
      ],
      "stateMutability": "view",
      "type": "function",
      "constant": true
    },
    {
      "inputs": [],
      "name": "getOwner",
      "outputs": [
        {
          "internalType": "address",
          "name": "",
          "type": "address"
        }
      ],
      "stateMutability": "view",
      "type": "function",
      "constant": true
    },
    {
      "inputs": [],
      "name": "renounceOwnership",
      "outputs": [],
      "stateMutability": "view",
      "type": "function",
      "constant": true
    },
    {
      "inputs": [
        {
          "internalType": "address",
          "name": "account",
          "type": "address"
        }
      ],
      "name": "balanceOf",
      "outputs": [
        {
          "internalType": "uint256",
          "name": "",
          "type": "uint256"
        }
      ],
      "stateMutability": "view",
      "type": "function",
      "constant": true
    },
    {
      "inputs": [
        {
          "internalType": "address",
          "name": "recipient",
          "type": "address"
        },
        {
          "internalType": "uint256",
          "name": "amount",
          "type": "uint256"
        }
      ],
      "name": "transfer",
      "outputs": [
        {
          "internalType": "bool",
          "name": "",
          "type": "bool"
        }
      ],
      "stateMutability": "nonpayable",
      "type": "function"
    },
    {
      "inputs": [
        {
          "internalType": "address",
          "name": "_owner",
          "type": "address"
        },
        {
          "internalType": "address",
          "name": "spender",
          "type": "address"
        }
      ],
      "name": "allowance",
      "outputs": [
        {
          "internalType": "uint256",
          "name": "",
          "type": "uint256"
        }
      ],
      "stateMutability": "view",
      "type": "function",
      "constant": true
    },
    {
      "inputs": [
        {
          "internalType": "address",
          "name": "spender",
          "type": "address"
        },
        {
          "internalType": "uint256",
          "name": "amount",
          "type": "uint256"
        }
      ],
      "name": "approve",
      "outputs": [
        {
          "internalType": "bool",
          "name": "",
          "type": "bool"
        }
      ],
      "stateMutability": "nonpayable",
      "type": "function"
    },
    {
      "inputs": [
        {
          "internalType": "address",
          "name": "sender",
          "type": "address"
        },
        {
          "internalType": "address",
          "name": "recipient",
          "type": "address"
        },
        {
          "internalType": "uint256",
          "name": "amount",
          "type": "uint256"
        }
      ],
      "name": "transferFrom",
      "outputs": [
        {
          "internalType": "bool",
          "name": "",
          "type": "bool"
        }
      ],
      "stateMutability": "nonpayable",
      "type": "function"
    }
  ],
  "bytecode": "0x60806040523480156200001157600080fd5b506040518060400160405280600881526020017f46616e546f6b656e0000000000000000000000000000000000000000000000008152506040518060400160405280600381526020017f4641570000000000000000000000000000000000000000000000000000000000815250816003908051906020019062000096929190620004ac565b508060049080519060200190620000af929190620004ac565b50505060004690507f8b73c3c69bb8fe3d512ecc4cf759cc79239f7b179b0ffacaa9a75d522b39400f620000e8620001a560201b60201c565b805190602001206040518060400160405280600181526020017f310000000000000000000000000000000000000000000000000000000000000081525080519060200120833060405160200162000144959493929190620005d7565b60405160208183030381529060405280519060200120600681905550506200018162000175620001c160201b60201c565b620001c960201b60201c565b6200019f336b033b2e3c9fd0803ce80000006200028f60201b60201c565b620007c5565b6060620001bc6200040860201b62000c811760201c565b905090565b600033905090565b6000600760009054906101000a900473ffffffffffffffffffffffffffffffffffffffff16905081600760006101000a81548173ffffffffffffffffffffffffffffffffffffffff021916908373ffffffffffffffffffffffffffffffffffffffff1602179055508173ffffffffffffffffffffffffffffffffffffffff168173ffffffffffffffffffffffffffffffffffffffff167f8be0079c531659141344cd1fd0a4f28419497f9722a3daafe3b4186f6b6457e060405160405180910390a35050565b600073ffffffffffffffffffffffffffffffffffffffff168273ffffffffffffffffffffffffffffffffffffffff16141562000302576040517f08c379a0000000000000000000000000000000000000000000000000000000008152600401620002f99062000695565b60405180910390fd5b6200031660008383620004a260201b60201c565b80600260008282546200032a9190620006e6565b92505081905550806000808473ffffffffffffffffffffffffffffffffffffffff1673ffffffffffffffffffffffffffffffffffffffff1681526020019081526020016000206000828254620003819190620006e6565b925050819055508173ffffffffffffffffffffffffffffffffffffffff16600073ffffffffffffffffffffffffffffffffffffffff167fddf252ad1be2c89b69c2b068fc378daa952ba7f163c4a11628f55a4df523b3ef83604051620003e8919062000743565b60405180910390a36200040460008383620004a760201b60201c565b5050565b60606004805462000419906200078f565b80601f016020809104026020016040519081016040528092919081815260200182805462000447906200078f565b8015620004985780601f106200046c5761010080835404028352916020019162000498565b820191906000526020600020905b8154815290600101906020018083116200047a57829003601f168201915b5050505050905090565b505050565b505050565b828054620004ba906200078f565b90600052602060002090601f016020900481019282620004de57600085556200052a565b82601f10620004f957805160ff19168380011785556200052a565b828001600101855582156200052a579182015b82811115620005295782518255916020019190600101906200050c565b5b5090506200053991906200053d565b5090565b5b80821115620005585760008160009055506001016200053e565b5090565b6000819050919050565b62000571816200055c565b82525050565b6000819050919050565b6200058c8162000577565b82525050565b600073ffffffffffffffffffffffffffffffffffffffff82169050919050565b6000620005bf8262000592565b9050919050565b620005d181620005b2565b82525050565b600060a082019050620005ee600083018862000566565b620005fd602083018762000566565b6200060c604083018662000566565b6200061b606083018562000581565b6200062a6080830184620005c6565b9695505050505050565b600082825260208201905092915050565b7f45524332303a206d696e7420746f20746865207a65726f206164647265737300600082015250565b60006200067d601f8362000634565b91506200068a8262000645565b602082019050919050565b60006020820190508181036000830152620006b0816200066e565b9050919050565b7f4e487b7100000000000000000000000000000000000000000000000000000000600052601160045260246000fd5b6000620006f38262000577565b9150620007008362000577565b9250827fffffffffffffffffffffffffffffffffffffffffffffffffffffffffffffffff03821115620007385762000737620006b7565b5b828201905092915050565b60006020820190506200075a600083018462000581565b92915050565b7f4e487b7100000000000000000000000000000000000000000000000000000000600052602260045260246000fd5b60006002820490506001821680620007a857607f821691505b60208210811415620007bf57620007be62000760565b5b50919050565b6125fb80620007d56000396000f3fe608060405234801561001057600080fd5b50600436106101425760003560e01c806379cc6790116100b8578063a457c2d71161007c578063a457c2d714610369578063a9059cbb14610399578063d505accf146103c9578063d669e1d4146103e5578063dd62ed3e14610403578063f2fde38b1461043357610142565b806379cc6790146102c35780637ecebe00146102df578063893d20e81461030f5780638da5cb5b1461032d57806395d89b411461034b57610142565b8063313ce5671161010a578063313ce567146102015780633644e5151461021f578063395093511461023d57806342966c681461026d57806370a0823114610289578063715018a6146102b957610142565b806306fdde0314610147578063095ea7b31461016557806318160ddd1461019557806323b872dd146101b357806330adf81f146101e3575b600080fd5b61014f61044f565b60405161015c9190611770565b60405180910390f35b61017f600480360381019061017a919061182b565b61045e565b60405161018c9190611886565b60405180910390f35b61019d610472565b6040516101aa91906118b0565b60405180910390f35b6101cd60048036038101906101c891906118cb565b610481565b6040516101da9190611886565b60405180910390f35b6101eb610497565b6040516101f89190611937565b60405180910390f35b6102096104be565b604051610216919061196e565b60405180910390f35b6102276104cd565b6040516102349190611937565b60405180910390f35b6102576004803603810190610252919061182b565b6104d3565b6040516102649190611886565b60405180910390f35b61028760048036038101906102829190611989565b61057f565b005b6102a3600480360381019061029e91906119b6565b610607565b6040516102b091906118b0565b60405180910390f35b6102c1610619565b005b6102dd60048036038101906102d8919061182b565b6106d8565b005b6102f960048036038101906102f491906119b6565b610762565b60405161030691906118b0565b60405180910390f35b6103176107b2565b60405161032491906119f2565b60405180910390f35b6103356107c1565b60405161034291906119f2565b60405180910390f35b6103536107eb565b6040516103609190611770565b60405180910390f35b610383600480360381019061037e919061182b565b6107fa565b6040516103909190611886565b60405180910390f35b6103b360048036038101906103ae919061182b565b6108e5565b6040516103c09190611886565b60405180910390f35b6103e360048036038101906103de9190611a65565b6108f9565b005b6103ed610b65565b6040516103fa91906118b0565b60405180910390f35b61041d60048036038101906104189190611b07565b610b75565b60405161042a91906118b0565b60405180910390f35b61044d600480360381019061044891906119b6565b610b89565b005b6060610459610c81565b905090565b600061046a8383610d13565b905092915050565b600061047c610d31565b905090565b600061048e848484610d3b565b90509392505050565b7f6e71edae12b1b97f4d1f60370fef10105fa2faae0126114a169c64845d6126c960001b81565b60006104c8610e33565b905090565b60065481565b60006105756104e0610e3c565b8484600160006104ee610e3c565b73ffffffffffffffffffffffffffffffffffffffff1673ffffffffffffffffffffffffffffffffffffffff16815260200190815260200160002060008873ffffffffffffffffffffffffffffffffffffffff1673ffffffffffffffffffffffffffffffffffffffff168152602001908152602001600020546105709190611b76565b610e44565b6001905092915050565b610587610e3c565b73ffffffffffffffffffffffffffffffffffffffff166105a56107c1565b73ffffffffffffffffffffffffffffffffffffffff16146105fb576040517f08c379a00000000000000000000000000000000000000000000000000000000081526004016105f290611c18565b60405180910390fd5b6106048161100f565b50565b600061061282611023565b9050919050565b610621610e3c565b73ffffffffffffffffffffffffffffffffffffffff1661063f6107c1565b73ffffffffffffffffffffffffffffffffffffffff1614610695576040517f08c379a000000000000000000000000000000000000000000000000000000000815260040161068c90611c18565b60405180910390fd5b60006106d6576040517f08c379a00000000000000000000000000000000000000000000000000000000081526004016106cd90611c84565b60405180910390fd5b565b6106e0610e3c565b73ffffffffffffffffffffffffffffffffffffffff166106fe6107c1565b73ffffffffffffffffffffffffffffffffffffffff1614610754576040517f08c379a000000000000000000000000000000000000000000000000000000000815260040161074b90611c18565b60405180910390fd5b61075e828261106b565b5050565b60006107ab600560008473ffffffffffffffffffffffffffffffffffffffff1673ffffffffffffffffffffffffffffffffffffffff1681526020019081526020016000206110e6565b9050919050565b60006107bc6107c1565b905090565b6000600760009054906101000a900473ffffffffffffffffffffffffffffffffffffffff16905090565b60606107f5610c81565b905090565b60008060016000610809610e3c565b73ffffffffffffffffffffffffffffffffffffffff1673ffffffffffffffffffffffffffffffffffffffff16815260200190815260200160002060008573ffffffffffffffffffffffffffffffffffffffff1673ffffffffffffffffffffffffffffffffffffffff168152602001908152602001600020549050828110156108c6576040517f08c379a00000000000000000000000000000000000000000000000000000000081526004016108bd90611d16565b60405180910390fd5b6108da6108d1610e3c565b85858403610e44565b600191505092915050565b60006108f183836110f4565b905092915050565b8342111561093c576040517f08c379a000000000000000000000000000000000000000000000000000000000815260040161093390611d82565b60405180910390fd5b60007f6e71edae12b1b97f4d1f60370fef10105fa2faae0126114a169c64845d6126c960001b8888886109ac600560008e73ffffffffffffffffffffffffffffffffffffffff1673ffffffffffffffffffffffffffffffffffffffff1681526020019081526020016000206110e6565b896040516020016109c296959493929190611da2565b6040516020818303038152906040528051906020012090506000611901600654836040516020016109f593929190611e68565b604051602081830303815290604052805190602001209050600060018287878760405160008152602001604052604051610a329493929190611ea5565b6020604051602081039080840390855afa158015610a54573d6000803e3d6000fd5b505050602060405103519050600073ffffffffffffffffffffffffffffffffffffffff168173ffffffffffffffffffffffffffffffffffffffff1614158015610ac857508973ffffffffffffffffffffffffffffffffffffffff168173ffffffffffffffffffffffffffffffffffffffff16145b610b07576040517f08c379a0000000000000000000000000000000000000000000000000000000008152600401610afe90611f5c565b60405180910390fd5b610b4e600560008c73ffffffffffffffffffffffffffffffffffffffff1673ffffffffffffffffffffffffffffffffffffffff168152602001908152602001600020611112565b610b598a8a8a610e44565b50505050505050505050565b6b033b2e3c9fd0803ce800000081565b6000610b818383611128565b905092915050565b610b91610e3c565b73ffffffffffffffffffffffffffffffffffffffff16610baf6107c1565b73ffffffffffffffffffffffffffffffffffffffff1614610c05576040517f08c379a0000000000000000000000000000000000000000000000000000000008152600401610bfc90611c18565b60405180910390fd5b600073ffffffffffffffffffffffffffffffffffffffff168173ffffffffffffffffffffffffffffffffffffffff161415610c75576040517f08c379a0000000000000000000000000000000000000000000000000000000008152600401610c6c90611fee565b60405180910390fd5b610c7e816111af565b50565b606060048054610c909061203d565b80601f0160208091040260200160405190810160405280929190818152602001828054610cbc9061203d565b8015610d095780601f10610cde57610100808354040283529160200191610d09565b820191906000526020600020905b815481529060010190602001808311610cec57829003601f168201915b5050505050905090565b6000610d27610d20610e3c565b8484610e44565b6001905092915050565b6000600254905090565b6000610d48848484611275565b6000600160008673ffffffffffffffffffffffffffffffffffffffff1673ffffffffffffffffffffffffffffffffffffffff1681526020019081526020016000206000610d93610e3c565b73ffffffffffffffffffffffffffffffffffffffff1673ffffffffffffffffffffffffffffffffffffffff16815260200190815260200160002054905082811015610e13576040517f08c379a0000000000000000000000000000000000000000000000000000000008152600401610e0a906120e1565b60405180910390fd5b610e2785610e1f610e3c565b858403610e44565b60019150509392505050565b60006012905090565b600033905090565b600073ffffffffffffffffffffffffffffffffffffffff168373ffffffffffffffffffffffffffffffffffffffff161415610eb4576040517f08c379a0000000000000000000000000000000000000000000000000000000008152600401610eab90612173565b60405180910390fd5b600073ffffffffffffffffffffffffffffffffffffffff168273ffffffffffffffffffffffffffffffffffffffff161415610f24576040517f08c379a0000000000000000000000000000000000000000000000000000000008152600401610f1b90612205565b60405180910390fd5b80600160008573ffffffffffffffffffffffffffffffffffffffff1673ffffffffffffffffffffffffffffffffffffffff16815260200190815260200160002060008473ffffffffffffffffffffffffffffffffffffffff1673ffffffffffffffffffffffffffffffffffffffff168152602001908152602001600020819055508173ffffffffffffffffffffffffffffffffffffffff168373ffffffffffffffffffffffffffffffffffffffff167f8c5be1e5ebec7d5bd14f71427d1e84f3dd0314c0f7b2291e5b200ac8c7c3b9258360405161100291906118b0565b60405180910390a3505050565b61102061101a610e3c565b826114f6565b50565b60008060008373ffffffffffffffffffffffffffffffffffffffff1673ffffffffffffffffffffffffffffffffffffffff168152602001908152602001600020549050919050565b600061107e83611079610e3c565b610b75565b9050818110156110c3576040517f08c379a00000000000000000000000000000000000000000000000000000000081526004016110ba90612297565b60405180910390fd5b6110d7836110cf610e3c565b848403610e44565b6110e183836114f6565b505050565b600081600001549050919050565b6000611108611101610e3c565b8484611275565b6001905092915050565b6001816000016000828254019250508190555050565b6000600160008473ffffffffffffffffffffffffffffffffffffffff1673ffffffffffffffffffffffffffffffffffffffff16815260200190815260200160002060008373ffffffffffffffffffffffffffffffffffffffff1673ffffffffffffffffffffffffffffffffffffffff16815260200190815260200160002054905092915050565b6000600760009054906101000a900473ffffffffffffffffffffffffffffffffffffffff16905081600760006101000a81548173ffffffffffffffffffffffffffffffffffffffff021916908373ffffffffffffffffffffffffffffffffffffffff1602179055508173ffffffffffffffffffffffffffffffffffffffff168173ffffffffffffffffffffffffffffffffffffffff167f8be0079c531659141344cd1fd0a4f28419497f9722a3daafe3b4186f6b6457e060405160405180910390a35050565b600073ffffffffffffffffffffffffffffffffffffffff168373ffffffffffffffffffffffffffffffffffffffff1614156112e5576040517f08c379a00000000000000000000000000000000000000000000000000000000081526004016112dc90612329565b60405180910390fd5b600073ffffffffffffffffffffffffffffffffffffffff168273ffffffffffffffffffffffffffffffffffffffff161415611355576040517f08c379a000000000000000000000000000000000000000000000000000000000815260040161134c906123bb565b60405180910390fd5b6113608383836116cd565b60008060008573ffffffffffffffffffffffffffffffffffffffff1673ffffffffffffffffffffffffffffffffffffffff168152602001908152602001600020549050818110156113e6576040517f08c379a00000000000000000000000000000000000000000000000000000000081526004016113dd9061244d565b60405180910390fd5b8181036000808673ffffffffffffffffffffffffffffffffffffffff1673ffffffffffffffffffffffffffffffffffffffff16815260200190815260200160002081905550816000808573ffffffffffffffffffffffffffffffffffffffff1673ffffffffffffffffffffffffffffffffffffffff16815260200190815260200160002060008282546114799190611b76565b925050819055508273ffffffffffffffffffffffffffffffffffffffff168473ffffffffffffffffffffffffffffffffffffffff167fddf252ad1be2c89b69c2b068fc378daa952ba7f163c4a11628f55a4df523b3ef846040516114dd91906118b0565b60405180910390a36114f08484846116d2565b50505050565b600073ffffffffffffffffffffffffffffffffffffffff168273ffffffffffffffffffffffffffffffffffffffff161415611566576040517f08c379a000000000000000000000000000000000000000000000000000000000815260040161155d906124df565b60405180910390fd5b611572826000836116cd565b60008060008473ffffffffffffffffffffffffffffffffffffffff1673ffffffffffffffffffffffffffffffffffffffff168152602001908152602001600020549050818110156115f8576040517f08c379a00000000000000000000000000000000000000000000000000000000081526004016115ef90612571565b60405180910390fd5b8181036000808573ffffffffffffffffffffffffffffffffffffffff1673ffffffffffffffffffffffffffffffffffffffff16815260200190815260200160002081905550816002600082825461164f9190612591565b92505081905550600073ffffffffffffffffffffffffffffffffffffffff168373ffffffffffffffffffffffffffffffffffffffff167fddf252ad1be2c89b69c2b068fc378daa952ba7f163c4a11628f55a4df523b3ef846040516116b491906118b0565b60405180910390a36116c8836000846116d2565b505050565b505050565b505050565b600081519050919050565b600082825260208201905092915050565b60005b838110156117115780820151818401526020810190506116f6565b83811115611720576000848401525b50505050565b6000601f19601f8301169050919050565b6000611742826116d7565b61174c81856116e2565b935061175c8185602086016116f3565b61176581611726565b840191505092915050565b6000602082019050818103600083015261178a8184611737565b905092915050565b600080fd5b600073ffffffffffffffffffffffffffffffffffffffff82169050919050565b60006117c282611797565b9050919050565b6117d2816117b7565b81146117dd57600080fd5b50565b6000813590506117ef816117c9565b92915050565b6000819050919050565b611808816117f5565b811461181357600080fd5b50565b600081359050611825816117ff565b92915050565b6000806040838503121561184257611841611792565b5b6000611850858286016117e0565b925050602061186185828601611816565b9150509250929050565b60008115159050919050565b6118808161186b565b82525050565b600060208201905061189b6000830184611877565b92915050565b6118aa816117f5565b82525050565b60006020820190506118c560008301846118a1565b92915050565b6000806000606084860312156118e4576118e3611792565b5b60006118f2868287016117e0565b9350506020611903868287016117e0565b925050604061191486828701611816565b9150509250925092565b6000819050919050565b6119318161191e565b82525050565b600060208201905061194c6000830184611928565b92915050565b600060ff82169050919050565b61196881611952565b82525050565b6000602082019050611983600083018461195f565b92915050565b60006020828403121561199f5761199e611792565b5b60006119ad84828501611816565b91505092915050565b6000602082840312156119cc576119cb611792565b5b60006119da848285016117e0565b91505092915050565b6119ec816117b7565b82525050565b6000602082019050611a0760008301846119e3565b92915050565b611a1681611952565b8114611a2157600080fd5b50565b600081359050611a3381611a0d565b92915050565b611a428161191e565b8114611a4d57600080fd5b50565b600081359050611a5f81611a39565b92915050565b600080600080600080600060e0888a031215611a8457611a83611792565b5b6000611a928a828b016117e0565b9750506020611aa38a828b016117e0565b9650506040611ab48a828b01611816565b9550506060611ac58a828b01611816565b9450506080611ad68a828b01611a24565b93505060a0611ae78a828b01611a50565b92505060c0611af88a828b01611a50565b91505092959891949750929550565b60008060408385031215611b1e57611b1d611792565b5b6000611b2c858286016117e0565b9250506020611b3d858286016117e0565b9150509250929050565b7f4e487b7100000000000000000000000000000000000000000000000000000000600052601160045260246000fd5b6000611b81826117f5565b9150611b8c836117f5565b9250827fffffffffffffffffffffffffffffffffffffffffffffffffffffffffffffffff03821115611bc157611bc0611b47565b5b828201905092915050565b7f4f776e61626c653a2063616c6c6572206973206e6f7420746865206f776e6572600082015250565b6000611c026020836116e2565b9150611c0d82611bcc565b602082019050919050565b60006020820190508181036000830152611c3181611bf5565b9050919050565b7f4f776e6572736869702063616e6e6f742062652072656e6f756e636564000000600082015250565b6000611c6e601d836116e2565b9150611c7982611c38565b602082019050919050565b60006020820190508181036000830152611c9d81611c61565b9050919050565b7f45524332303a2064656372656173656420616c6c6f77616e63652062656c6f7760008201527f207a65726f000000000000000000000000000000000000000000000000000000602082015250565b6000611d006025836116e2565b9150611d0b82611ca4565b604082019050919050565b60006020820190508181036000830152611d2f81611cf3565b9050919050565b7f5065726d69743a206578706972656420646561646c696e650000000000000000600082015250565b6000611d6c6018836116e2565b9150611d7782611d36565b602082019050919050565b60006020820190508181036000830152611d9b81611d5f565b9050919050565b600060c082019050611db76000830189611928565b611dc460208301886119e3565b611dd160408301876119e3565b611dde60608301866118a1565b611deb60808301856118a1565b611df860a08301846118a1565b979650505050505050565b600061ffff82169050919050565b60008160f01b9050919050565b6000611e2982611e11565b9050919050565b611e41611e3c82611e03565b611e1e565b82525050565b6000819050919050565b611e62611e5d8261191e565b611e47565b82525050565b6000611e748286611e30565b600282019150611e848285611e51565b602082019150611e948284611e51565b602082019150819050949350505050565b6000608082019050611eba6000830187611928565b611ec7602083018661195f565b611ed46040830185611928565b611ee16060830184611928565b95945050505050565b7f5a65726f537761705065726d69743a20496e76616c6964207369676e6174757260008201527f6500000000000000000000000000000000000000000000000000000000000000602082015250565b6000611f466021836116e2565b9150611f5182611eea565b604082019050919050565b60006020820190508181036000830152611f7581611f39565b9050919050565b7f4f776e61626c653a206e6577206f776e657220697320746865207a65726f206160008201527f6464726573730000000000000000000000000000000000000000000000000000602082015250565b6000611fd86026836116e2565b9150611fe382611f7c565b604082019050919050565b6000602082019050818103600083015261200781611fcb565b9050919050565b7f4e487b7100000000000000000000000000000000000000000000000000000000600052602260045260246000fd5b6000600282049050600182168061205557607f821691505b602082108114156120695761206861200e565b5b50919050565b7f45524332303a207472616e7366657220616d6f756e742065786365656473206160008201527f6c6c6f77616e6365000000000000000000000000000000000000000000000000602082015250565b60006120cb6028836116e2565b91506120d68261206f565b604082019050919050565b600060208201905081810360008301526120fa816120be565b9050919050565b7f45524332303a20617070726f76652066726f6d20746865207a65726f2061646460008201527f7265737300000000000000000000000000000000000000000000000000000000602082015250565b600061215d6024836116e2565b915061216882612101565b604082019050919050565b6000602082019050818103600083015261218c81612150565b9050919050565b7f45524332303a20617070726f766520746f20746865207a65726f20616464726560008201527f7373000000000000000000000000000000000000000000000000000000000000602082015250565b60006121ef6022836116e2565b91506121fa82612193565b604082019050919050565b6000602082019050818103600083015261221e816121e2565b9050919050565b7f45524332303a206275726e20616d6f756e74206578636565647320616c6c6f7760008201527f616e636500000000000000000000000000000000000000000000000000000000602082015250565b60006122816024836116e2565b915061228c82612225565b604082019050919050565b600060208201905081810360008301526122b081612274565b9050919050565b7f45524332303a207472616e736665722066726f6d20746865207a65726f20616460008201527f6472657373000000000000000000000000000000000000000000000000000000602082015250565b60006123136025836116e2565b915061231e826122b7565b604082019050919050565b6000602082019050818103600083015261234281612306565b9050919050565b7f45524332303a207472616e7366657220746f20746865207a65726f206164647260008201527f6573730000000000000000000000000000000000000000000000000000000000602082015250565b60006123a56023836116e2565b91506123b082612349565b604082019050919050565b600060208201905081810360008301526123d481612398565b9050919050565b7f45524332303a207472616e7366657220616d6f756e742065786365656473206260008201527f616c616e63650000000000000000000000000000000000000000000000000000602082015250565b60006124376026836116e2565b9150612442826123db565b604082019050919050565b600060208201905081810360008301526124668161242a565b9050919050565b7f45524332303a206275726e2066726f6d20746865207a65726f2061646472657360008201527f7300000000000000000000000000000000000000000000000000000000000000602082015250565b60006124c96021836116e2565b91506124d48261246d565b604082019050919050565b600060208201905081810360008301526124f8816124bc565b9050919050565b7f45524332303a206275726e20616d6f756e7420657863656564732062616c616e60008201527f6365000000000000000000000000000000000000000000000000000000000000602082015250565b600061255b6022836116e2565b9150612566826124ff565b604082019050919050565b6000602082019050818103600083015261258a8161254e565b9050919050565b600061259c826117f5565b91506125a7836117f5565b9250828210156125ba576125b9611b47565b5b82820390509291505056fea26469706673582212204078acd140c6a8842b1a145a4aa3f83949149caf1bc9290269a26f05d8628c6e64736f6c63430008090033",
  "immutableReferences": {},
  "source": "// SPDX-License-Identifier: MIT\n\npragma solidity 0.8.9;\n\nimport \"@openzeppelin/contracts/access/Ownable.sol\";\nimport \"./ERC20Permit.sol\";\nimport \"./IBEP20.sol\";\n\n/**\n * @title BEP20 Token Contract\n */\ncontract ERC20FanToken is ERC20Permit, IBEP20, Ownable {\n    uint256 public constant MAX_CAP = 1000000000 * (10**18); // 1,000,000,000 tokens\n\n    constructor() ERC20(\"FanToken\", \"FAW\") {\n        _mint(msg.sender, MAX_CAP);\n    }\n\n    /**\n      @dev Only contract owner can burn the tokens that they own\n     */\n    function burn(uint256 amount) public override(ERC20Burnable) onlyOwner {\n        super.burn(amount);\n    }\n\n    /**\n      @dev Only contract owner can burn the tokens \n      for which they have approval\n     */\n    function burnFrom(address account, uint256 amount)\n        public\n        override(ERC20Burnable)\n        onlyOwner\n    {\n        super.burnFrom(account, amount);\n    }\n\n    function totalSupply()\n        public\n        view\n        override(ERC20, IBEP20)\n        returns (uint256)\n    {\n        return super.totalSupply();\n    }\n\n    function decimals() public view override(ERC20, IBEP20) returns (uint8) {\n        return super.decimals();\n    }\n\n    function symbol()\n        public\n        view\n        override(ERC20, IBEP20)\n        returns (string memory)\n    {\n        return super.symbol();\n    }\n\n    function name()\n        public\n        view\n        override(ERC20, IBEP20)\n        returns (string memory)\n    {\n        return super.symbol();\n    }\n\n    function getOwner() external view override(IBEP20) returns (address) {\n        return owner();\n    }\n\n    /**\n      Ownership of the contract cannot be renounced\n     */\n    function renounceOwnership() public view override(Ownable) onlyOwner {\n        require(false, \"Ownership cannot be renounced\");\n    }\n\n    function balanceOf(address account)\n        public\n        view\n        override(ERC20, IBEP20)\n        returns (uint256)\n    {\n        return super.balanceOf(account);\n    }\n\n    function transfer(address recipient, uint256 amount)\n        public\n        override(ERC20, IBEP20)\n        returns (bool)\n    {\n        return super.transfer(recipient, amount);\n    }\n\n    function allowance(address _owner, address spender)\n        public\n        view\n        override(ERC20, IBEP20)\n        returns (uint256)\n    {\n        return super.allowance(_owner, spender);\n    }\n\n    function approve(address spender, uint256 amount)\n        public\n        override(ERC20, IBEP20)\n        returns (bool)\n    {\n        return super.approve(spender, amount);\n    }\n\n    function transferFrom(\n        address sender,\n        address recipient,\n        uint256 amount\n    ) public override(ERC20, IBEP20) returns (bool) {\n        return super.transferFrom(sender, recipient, amount);\n    }\n}\n",
  "sourcePath": "/home/ketan/Documents/git/fananywhere/fananywhere-token/truffle/contracts/ERC20FanToken.sol",
  "compiler": {
    "name": "solc",
    "version": "0.8.9+commit.e5eed63a.Emscripten.clang"
  },
  "schemaVersion": "3.4.3",
  "updatedAt": "2021-11-29T05:19:45.244Z",
  "networkType": "ethereum",
  "devdoc": {
    "kind": "dev",
    "methods": {
      "burn(uint256)": {
        "details": "Only contract owner can burn the tokens that they own"
      },
      "burnFrom(address,uint256)": {
        "details": "Only contract owner can burn the tokens  for which they have approval"
      },
      "decreaseAllowance(address,uint256)": {
        "details": "Atomically decreases the allowance granted to `spender` by the caller. This is an alternative to {approve} that can be used as a mitigation for problems described in {IERC20-approve}. Emits an {Approval} event indicating the updated allowance. Requirements: - `spender` cannot be the zero address. - `spender` must have allowance for the caller of at least `subtractedValue`."
      },
      "getOwner()": {
        "details": "Returns the bep token owner."
      },
      "increaseAllowance(address,uint256)": {
        "details": "Atomically increases the allowance granted to `spender` by the caller. This is an alternative to {approve} that can be used as a mitigation for problems described in {IERC20-approve}. Emits an {Approval} event indicating the updated allowance. Requirements: - `spender` cannot be the zero address."
      },
      "nonces(address)": {
        "details": "See {IERC2612Permit-nonces}."
      },
      "owner()": {
        "details": "Returns the address of the current owner."
      },
      "permit(address,address,uint256,uint256,uint8,bytes32,bytes32)": {
        "details": "See {IERC2612Permit-permit}."
      },
      "transferOwnership(address)": {
        "details": "Transfers ownership of the contract to a new account (`newOwner`). Can only be called by the current owner."
      }
    },
    "title": "BEP20 Token Contract",
    "version": 1
  },
  "userdoc": {
    "kind": "user",
    "methods": {
      "renounceOwnership()": {
        "notice": "Ownership of the contract cannot be renounced"
      }
    },
    "version": 1
  }
}