{
  "contractName": "FanTokenVesting",
  "abi": [
    {
      "inputs": [
        {
          "internalType": "address",
          "name": "_token",
          "type": "address"
        },
        {
          "internalType": "address",
          "name": "_treasury",
          "type": "address"
        }
      ],
      "stateMutability": "nonpayable",
      "type": "constructor"
    },
    {
      "anonymous": false,
      "inputs": [
        {
          "indexed": true,
          "internalType": "address",
          "name": "caller",
          "type": "address"
        },
        {
          "indexed": true,
          "internalType": "enum FanTokenVesting.DistributionType",
          "name": "distributionType",
          "type": "uint8"
        },
        {
          "indexed": false,
          "internalType": "uint256",
          "name": "totalTokensAllotted",
          "type": "uint256"
        },
        {
          "indexed": false,
          "internalType": "uint256",
          "name": "initialTokensReleased",
          "type": "uint256"
        },
        {
          "indexed": false,
          "internalType": "uint256",
          "name": "cliffPeriodMonths",
          "type": "uint256"
        },
        {
          "indexed": false,
          "internalType": "uint256",
          "name": "vestingPeriodMonths",
          "type": "uint256"
        }
      ],
      "name": "DistributionAdded",
      "type": "event"
    },
    {
      "anonymous": false,
      "inputs": [
        {
          "indexed": true,
          "internalType": "address",
          "name": "previousOwner",
          "type": "address"
        },
        {
          "indexed": true,
          "internalType": "address",
          "name": "newOwner",
          "type": "address"
        }
      ],
      "name": "OwnershipTransferred",
      "type": "event"
    },
    {
      "anonymous": false,
      "inputs": [
        {
          "indexed": true,
          "internalType": "uint256",
          "name": "amount",
          "type": "uint256"
        }
      ],
      "name": "TokenRecovered",
      "type": "event"
    },
    {
      "anonymous": false,
      "inputs": [
        {
          "indexed": true,
          "internalType": "address",
          "name": "oldTreasury",
          "type": "address"
        },
        {
          "indexed": true,
          "internalType": "address",
          "name": "newTreasury",
          "type": "address"
        }
      ],
      "name": "TreasuryChanged",
      "type": "event"
    },
    {
      "anonymous": false,
      "inputs": [
        {
          "indexed": true,
          "internalType": "address",
          "name": "investor",
          "type": "address"
        },
        {
          "indexed": false,
          "internalType": "uint256",
          "name": "value",
          "type": "uint256"
        }
      ],
      "name": "WithdrawnTokens",
      "type": "event"
    },
    {
      "inputs": [
        {
          "internalType": "enum FanTokenVesting.DistributionType",
          "name": "",
          "type": "uint8"
        }
      ],
      "name": "distributionInfo",
      "outputs": [
        {
          "internalType": "enum FanTokenVesting.DistributionType",
          "name": "distributionType",
          "type": "uint8"
        },
        {
          "internalType": "uint256",
          "name": "totalTokensAllotted",
          "type": "uint256"
        },
        {
          "internalType": "uint256",
          "name": "initialTokensReleased",
          "type": "uint256"
        },
        {
          "internalType": "uint256",
          "name": "cliffPeriodMonths",
          "type": "uint256"
        },
        {
          "internalType": "uint256",
          "name": "cliffPeriodDays",
          "type": "uint256"
        },
        {
          "internalType": "uint256",
          "name": "vestingPeriodMonths",
          "type": "uint256"
        },
        {
          "internalType": "uint256",
          "name": "vestingPeriodDays",
          "type": "uint256"
        },
        {
          "internalType": "uint256",
          "name": "withdrawnTokens",
          "type": "uint256"
        }
      ],
      "stateMutability": "view",
      "type": "function",
      "constant": true
    },
    {
      "inputs": [],
      "name": "isInitialized",
      "outputs": [
        {
          "internalType": "bool",
          "name": "",
          "type": "bool"
        }
      ],
      "stateMutability": "view",
      "type": "function",
      "constant": true
    },
    {
      "inputs": [],
      "name": "owner",
      "outputs": [
        {
          "internalType": "address",
          "name": "",
          "type": "address"
        }
      ],
      "stateMutability": "view",
      "type": "function",
      "constant": true
    },
    {
      "inputs": [],
      "name": "renounceOwnership",
      "outputs": [],
      "stateMutability": "nonpayable",
      "type": "function"
    },
    {
      "inputs": [
        {
          "internalType": "address",
          "name": "newOwner",
          "type": "address"
        }
      ],
      "name": "transferOwnership",
      "outputs": [],
      "stateMutability": "nonpayable",
      "type": "function"
    },
    {
      "inputs": [],
      "name": "treasury",
      "outputs": [
        {
          "internalType": "address",
          "name": "",
          "type": "address"
        }
      ],
      "stateMutability": "view",
      "type": "function",
      "constant": true
    },
    {
      "inputs": [],
      "name": "getInitialTimestamp",
      "outputs": [
        {
          "internalType": "uint256",
          "name": "timestamp",
          "type": "uint256"
        }
      ],
      "stateMutability": "view",
      "type": "function",
      "constant": true
    },
    {
      "inputs": [
        {
          "internalType": "uint256",
          "name": "_timestamp",
          "type": "uint256"
        }
      ],
      "name": "init",
      "outputs": [],
      "stateMutability": "nonpayable",
      "type": "function"
    },
    {
      "inputs": [
        {
          "internalType": "enum FanTokenVesting.DistributionType",
          "name": "_distributionType",
          "type": "uint8"
        }
      ],
      "name": "withdrawTokens",
      "outputs": [],
      "stateMutability": "nonpayable",
      "type": "function"
    },
    {
      "inputs": [
        {
          "internalType": "enum FanTokenVesting.DistributionType",
          "name": "distributionType",
          "type": "uint8"
        }
      ],
      "name": "withdrawableTokens",
      "outputs": [
        {
          "internalType": "uint256",
          "name": "tokens",
          "type": "uint256"
        }
      ],
      "stateMutability": "view",
      "type": "function",
      "constant": true
    },
    {
      "inputs": [
        {
          "internalType": "address",
          "name": "_treasury",
          "type": "address"
        }
      ],
      "name": "setTreasury",
      "outputs": [],
      "stateMutability": "nonpayable",
      "type": "function"
    },
    {
      "inputs": [],
      "name": "recoverExcessTokens",
      "outputs": [],
      "stateMutability": "nonpayable",
      "type": "function"
    }
  ],
  "bytecode": "0x60806040526000600560006101000a81548160ff0219169083151502179055503480156200002c57600080fd5b5060405162002fee38038062002fee83398181016040528101906200005291906200062c565b6200007262000066620003d560201b60201c565b620003dd60201b60201c565b600073ffffffffffffffffffffffffffffffffffffffff168273ffffffffffffffffffffffffffffffffffffffff161415620000e5576040517f08c379a0000000000000000000000000000000000000000000000000000000008152600401620000dc90620006d4565b60405180910390fd5b600073ffffffffffffffffffffffffffffffffffffffff168173ffffffffffffffffffffffffffffffffffffffff16141562000158576040517f08c379a00000000000000000000000000000000000000000000000000000000081526004016200014f9062000746565b60405180910390fd5b80600160006101000a81548173ffffffffffffffffffffffffffffffffffffffff021916908373ffffffffffffffffffffffffffffffffffffffff16021790555081600360006101000a81548173ffffffffffffffffffffffffffffffffffffffff021916908373ffffffffffffffffffffffffffffffffffffffff160217905550620001fe60006a6765c793fa10079d0000006000600c6030620004a160201b60201c565b6200022b60016a108b2a2c2802909400000069d3c21bcecceda10000006001600c620004a160201b60201c565b6200025960026a2a2fab8a32d357130000006a021bfbc6e8f0f78dc000006001600c620004a160201b60201c565b6200028760036a21165458500521280000006a0250ec4ddca432f60000006001600c620004a160201b60201c565b620002b560046a36980b2b50d543820000006a045e155fa0110fa40000006001600c620004a160201b60201c565b620002e360056a1306707f946959770000006a03ce167fea7b784b00000060006004620004a160201b60201c565b6200030760066a39e7139a8c08fa06000000600060066018620004a160201b60201c565b6200032960076a108b2a2c2802909400000080600080620004a160201b60201c565b6200034d60086aa56fa5b99019a5c8000000600060016019620004a160201b60201c565b6200037b60096a6342fd08f00f63780000006a04f68ca6d8cd91c600000060006018620004a160201b60201c565b620003a9600a6a6fab5caa0e114fe70000006a05955e3bb3e743fec0000060006018620004a160201b60201c565b620003cd600b6a6b88921f0410abc2000000600060016013620004a160201b60201c565b5050620007ff565b600033905090565b60008060009054906101000a900473ffffffffffffffffffffffffffffffffffffffff169050816000806101000a81548173ffffffffffffffffffffffffffffffffffffffff021916908373ffffffffffffffffffffffffffffffffffffffff1602179055508173ffffffffffffffffffffffffffffffffffffffff168173ffffffffffffffffffffffffffffffffffffffff167f8be0079c531659141344cd1fd0a4f28419497f9722a3daafe3b4186f6b6457e060405160405180910390a35050565b60006004600087600b811115620004bd57620004bc62000768565b5b600b811115620004d257620004d162000768565b5b81526020019081526020016000209050858160000160006101000a81548160ff0219169083600b8111156200050c576200050b62000768565b5b02179055508481600101819055508281600301819055508181600501819055508381600201819055506000816007018190555085600b81111562000555576200055462000768565b5b62000565620003d560201b60201c565b73ffffffffffffffffffffffffffffffffffffffff167f2c342269b79fd302c0744fb9bffecaa97e5d0ddc8019d8bace259fb38e85a6c287878787604051620005b29493929190620007b2565b60405180910390a3505050505050565b600080fd5b600073ffffffffffffffffffffffffffffffffffffffff82169050919050565b6000620005f482620005c7565b9050919050565b6200060681620005e7565b81146200061257600080fd5b50565b6000815190506200062681620005fb565b92915050565b60008060408385031215620006465762000645620005c2565b5b6000620006568582860162000615565b9250506020620006698582860162000615565b9150509250929050565b600082825260208201905092915050565b7f46415720746f6b656e2061646472657373206973206e6f742076616c69640000600082015250565b6000620006bc601e8362000673565b9150620006c98262000684565b602082019050919050565b60006020820190508181036000830152620006ef81620006ad565b9050919050565b7f54726561737572792061646472657373206973206e6f742076616c6964000000600082015250565b60006200072e601d8362000673565b91506200073b82620006f6565b602082019050919050565b6000602082019050818103600083015262000761816200071f565b9050919050565b7f4e487b7100000000000000000000000000000000000000000000000000000000600052602160045260246000fd5b6000819050919050565b620007ac8162000797565b82525050565b6000608082019050620007c96000830187620007a1565b620007d86020830186620007a1565b620007e76040830185620007a1565b620007f66060830184620007a1565b95945050505050565b6127df806200080f6000396000f3fe608060405234801561001057600080fd5b50600436106100b45760003560e01c8063715018a611610071578063715018a6146101845780638da5cb5b1461018e578063b1b39337146101ac578063b7b0422d146101c8578063f0f44260146101e4578063f2fde38b14610200576100b4565b80632edf9bd0146100b9578063392e53cd146100e95780634edcd3741461010757806355e4eadb1461012557806361d027b31461012f57806363f446781461014d575b600080fd5b6100d360048036038101906100ce919061190a565b61021c565b6040516100e09190611950565b60405180910390f35b6100f16102ba565b6040516100fe9190611986565b60405180910390f35b61010f6102cd565b60405161011c9190611950565b60405180910390f35b61012d6102d7565b005b6101376105d9565b60405161014491906119e2565b60405180910390f35b6101676004803603810190610162919061190a565b6105ff565b60405161017b989796959493929190611a74565b60405180910390f35b61018c610654565b005b6101966106dc565b6040516101a391906119e2565b60405180910390f35b6101c660048036038101906101c1919061190a565b610705565b005b6101e260048036038101906101dd9190611b1e565b61095e565b005b6101fe60048036038101906101f99190611b77565b610c2b565b005b61021a60048036038101906102159190611b77565b610dff565b005b6000600560009054906101000a900460ff1661023b57600090506102b5565b60006004600084600b811115610254576102536119fd565b5b600b811115610266576102656119fd565b5b81526020019081526020016000209050600061028184610ef7565b90506102b082600701546102a2846002015484610fe390919063ffffffff16565b610ff990919063ffffffff16565b925050505b919050565b600560009054906101000a900460ff1681565b6000600254905090565b6102df61100f565b73ffffffffffffffffffffffffffffffffffffffff166102fd6106dc565b73ffffffffffffffffffffffffffffffffffffffff1614610353576040517f08c379a000000000000000000000000000000000000000000000000000000000815260040161034a90611c01565b60405180910390fd5b600560009054906101000a900460ff166103a2576040517f08c379a000000000000000000000000000000000000000000000000000000000815260040161039990611c6d565b60405180910390fd5b6000805b600b808111156103b9576103b86119fd565b5b811161044f5760006004600083600b8111156103d8576103d76119fd565b5b600b8111156103ea576103e96119fd565b5b600b8111156103fc576103fb6119fd565b5b81526020019081526020016000209050610439816007015461042b836001015486610fe390919063ffffffff16565b610ff990919063ffffffff16565b925050808061044790611cbc565b9150506103a6565b50600061050f82600360009054906101000a900473ffffffffffffffffffffffffffffffffffffffff1673ffffffffffffffffffffffffffffffffffffffff166370a08231306040518263ffffffff1660e01b81526004016104b191906119e2565b60206040518083038186803b1580156104c957600080fd5b505afa1580156104dd573d6000803e3d6000fd5b505050506040513d601f19601f820116820180604052508101906105019190611d1a565b610ff990919063ffffffff16565b905060008111610554576040517f08c379a000000000000000000000000000000000000000000000000000000000815260040161054b90611db9565b60405180910390fd5b6105a861055f61100f565b82600360009054906101000a900473ffffffffffffffffffffffffffffffffffffffff1673ffffffffffffffffffffffffffffffffffffffff166110179092919063ffffffff16565b807f11cd3c497c4ee51feb1ed7bbb2d072b8c18bce7bbf0cf03d310a12b4afcd981860405160405180910390a25050565b600160009054906101000a900473ffffffffffffffffffffffffffffffffffffffff1681565b60046020528060005260406000206000915090508060000160009054906101000a900460ff16908060010154908060020154908060030154908060040154908060050154908060060154908060070154905088565b61065c61100f565b73ffffffffffffffffffffffffffffffffffffffff1661067a6106dc565b73ffffffffffffffffffffffffffffffffffffffff16146106d0576040517f08c379a00000000000000000000000000000000000000000000000000000000081526004016106c790611c01565b60405180910390fd5b6106da600061109d565b565b60008060009054906101000a900473ffffffffffffffffffffffffffffffffffffffff16905090565b61070d61100f565b73ffffffffffffffffffffffffffffffffffffffff1661072b6106dc565b73ffffffffffffffffffffffffffffffffffffffff1614610781576040517f08c379a000000000000000000000000000000000000000000000000000000000815260040161077890611c01565b60405180910390fd5b600560009054906101000a900460ff166107d0576040517f08c379a00000000000000000000000000000000000000000000000000000000081526004016107c790611c6d565b60405180910390fd5b60006004600083600b8111156107e9576107e86119fd565b5b600b8111156107fb576107fa6119fd565b5b8152602001908152602001600020905060006108168361021c565b90506000811161085b576040517f08c379a000000000000000000000000000000000000000000000000000000000815260040161085290611e4b565b60405180910390fd5b610872818360070154610fe390919063ffffffff16565b82600701819055506108e9600160009054906101000a900473ffffffffffffffffffffffffffffffffffffffff1682600360009054906101000a900473ffffffffffffffffffffffffffffffffffffffff1673ffffffffffffffffffffffffffffffffffffffff166110179092919063ffffffff16565b600160009054906101000a900473ffffffffffffffffffffffffffffffffffffffff1673ffffffffffffffffffffffffffffffffffffffff167f373d92bf7d9cdd58a8c86db5461f3cdcd325b803fdbac8d1b224a0f5fce847b8826040516109519190611950565b60405180910390a2505050565b61096661100f565b73ffffffffffffffffffffffffffffffffffffffff166109846106dc565b73ffffffffffffffffffffffffffffffffffffffff16146109da576040517f08c379a00000000000000000000000000000000000000000000000000000000081526004016109d190611c01565b60405180910390fd5b600560009054906101000a900460ff1615610a2a576040517f08c379a0000000000000000000000000000000000000000000000000000000008152600401610a2190611eb7565b60405180910390fd5b6001600560006101000a81548160ff021916908315150217905550806002819055506000805b600b80811115610a6357610a626119fd565b5b8111610b395760006004600083600b811115610a8257610a816119fd565b5b600b811115610a9457610a936119fd565b5b600b811115610aa657610aa56119fd565b5b815260200190815260200160002090506000816003015490506000610acb8683611161565b9050610ad78682611244565b83600401819055506000836005015490506000610af48883611161565b9050610b008882611244565b8560060181905550610b1f856001015488610fe390919063ffffffff16565b965050505050508080610b3190611cbc565b915050610a50565b5080600360009054906101000a900473ffffffffffffffffffffffffffffffffffffffff1673ffffffffffffffffffffffffffffffffffffffff166370a08231306040518263ffffffff1660e01b8152600401610b9691906119e2565b60206040518083038186803b158015610bae57600080fd5b505afa158015610bc2573d6000803e3d6000fd5b505050506040513d601f19601f82011682018060405250810190610be69190611d1a565b1015610c27576040517f08c379a0000000000000000000000000000000000000000000000000000000008152600401610c1e90611f49565b60405180910390fd5b5050565b610c3361100f565b73ffffffffffffffffffffffffffffffffffffffff16610c516106dc565b73ffffffffffffffffffffffffffffffffffffffff1614610ca7576040517f08c379a0000000000000000000000000000000000000000000000000000000008152600401610c9e90611c01565b60405180910390fd5b600073ffffffffffffffffffffffffffffffffffffffff16600160009054906101000a900473ffffffffffffffffffffffffffffffffffffffff1673ffffffffffffffffffffffffffffffffffffffff161415610d39576040517f08c379a0000000000000000000000000000000000000000000000000000000008152600401610d3090611fb5565b60405180910390fd5b6000600160009054906101000a900473ffffffffffffffffffffffffffffffffffffffff16905081600160006101000a81548173ffffffffffffffffffffffffffffffffffffffff021916908373ffffffffffffffffffffffffffffffffffffffff1602179055508173ffffffffffffffffffffffffffffffffffffffff168173ffffffffffffffffffffffffffffffffffffffff167f8c3aa5f43a388513435861bf27dfad7829cd248696fed367c62d441f6295449660405160405180910390a35050565b610e0761100f565b73ffffffffffffffffffffffffffffffffffffffff16610e256106dc565b73ffffffffffffffffffffffffffffffffffffffff1614610e7b576040517f08c379a0000000000000000000000000000000000000000000000000000000008152600401610e7290611c01565b60405180910390fd5b600073ffffffffffffffffffffffffffffffffffffffff168173ffffffffffffffffffffffffffffffffffffffff161415610eeb576040517f08c379a0000000000000000000000000000000000000000000000000000000008152600401610ee290612047565b60405180910390fd5b610ef48161109d565b50565b6000804290506000610f0b60025483611244565b905060006004600086600b811115610f2657610f256119fd565b5b600b811115610f3857610f376119fd565b5b8152602001908152602001600020905080600401548211610f5f5760009350505050610fde565b80600601548210610f8f57610f8581600201548260010154610ff990919063ffffffff16565b9350505050610fde565b6000610fd483610fc68460060154610fb886600201548760010154610ff990919063ffffffff16565b61127590919063ffffffff16565b61128b90919063ffffffff16565b9050809450505050505b919050565b60008183610ff19190612067565b905092915050565b6000818361100791906120bd565b905092915050565b600033905090565b6110988363a9059cbb60e01b84846040516024016110369291906120f1565b604051602081830303815290604052907bffffffffffffffffffffffffffffffffffffffffffffffffffffffff19166020820180517bffffffffffffffffffffffffffffffffffffffffffffffffffffffff83818316178352505050506112a1565b505050565b60008060009054906101000a900473ffffffffffffffffffffffffffffffffffffffff169050816000806101000a81548173ffffffffffffffffffffffffffffffffffffffff021916908373ffffffffffffffffffffffffffffffffffffffff1602179055508173ffffffffffffffffffffffffffffffffffffffff168173ffffffffffffffffffffffffffffffffffffffff167f8be0079c531659141344cd1fd0a4f28419497f9722a3daafe3b4186f6b6457e060405160405180910390a35050565b60008060008061117e62015180876111799190612149565b611368565b92509250925084826111909190612067565b9150600c6001836111a191906120bd565b6111ab9190612149565b836111b69190612067565b92506001600c6001846111c991906120bd565b6111d3919061217a565b6111dd9190612067565b915060006111eb8484611507565b9050808211156111f9578091505b6201518087611208919061217a565b62015180611217868686611592565b61122191906121ab565b61122b9190612067565b94508685101561123a57600080fd5b5050505092915050565b60008183111561125357600080fd5b62015180838361126391906120bd565b61126d9190612149565b905092915050565b600081836112839190612149565b905092915050565b6000818361129991906121ab565b905092915050565b6000611303826040518060400160405280602081526020017f5361666545524332303a206c6f772d6c6576656c2063616c6c206661696c65648152508573ffffffffffffffffffffffffffffffffffffffff166116f19092919063ffffffff16565b905060008151111561136357808060200190518101906113239190612231565b611362576040517f08c379a0000000000000000000000000000000000000000000000000000000008152600401611359906122d0565b60405180910390fd5b5b505050565b600080600080849050600062253d8c62010bd98361138691906122fa565b61139091906122fa565b9050600062023ab18260046113a5919061238e565b6113af91906124a5565b9050600460038262023ab16113c4919061238e565b6113ce91906122fa565b6113d891906124a5565b826113e3919061250f565b9150600062164b096001846113f891906122fa565b610fa0611405919061238e565b61140f91906124a5565b9050601f6004826105b5611423919061238e565b61142d91906124a5565b84611438919061250f565b61144291906122fa565b9250600061098f846050611456919061238e565b61146091906124a5565b9050600060508261098f611474919061238e565b61147e91906124a5565b85611489919061250f565b9050600b8261149891906124a5565b945084600c6114a7919061238e565b6002836114b491906122fa565b6114be919061250f565b915084836031866114cf919061250f565b60646114db919061238e565b6114e591906122fa565b6114ef91906122fa565b92508298508197508096505050505050509193909250565b600060018214806115185750600382145b806115235750600582145b8061152e5750600782145b806115395750600882145b806115445750600a82145b8061154f5750600c82145b1561155d57601f905061158c565b6002821461156e57601e905061158b565b61157783611709565b61158257601c611585565b601d5b60ff1690505b5b92915050565b60006107b28410156115a357600080fd5b600084905060008490506000849050600062253d8c60046064600c600e876115cb919061250f565b6115d591906124a5565b611324886115e391906122fa565b6115ed91906122fa565b6115f791906124a5565b6003611603919061238e565b61160d91906124a5565b600c80600c600e8861161f919061250f565b61162991906124a5565b611633919061238e565b600287611640919061250f565b61164a919061250f565b61016f611657919061238e565b61166191906124a5565b6004600c600e88611672919061250f565b61167c91906124a5565b6112c08961168a91906122fa565b61169491906122fa565b6105b56116a1919061238e565b6116ab91906124a5565b617d4b866116b9919061250f565b6116c391906122fa565b6116cd91906122fa565b6116d7919061250f565b6116e1919061250f565b9050809450505050509392505050565b60606117008484600085611752565b90509392505050565b600080600483611719919061217a565b14801561173357506000606483611730919061217a565b14155b8061174b5750600061019083611749919061217a565b145b9050919050565b606082471015611797576040517f08c379a000000000000000000000000000000000000000000000000000000000815260040161178e90612615565b60405180910390fd5b6117a085611866565b6117df576040517f08c379a00000000000000000000000000000000000000000000000000000000081526004016117d690612681565b60405180910390fd5b6000808673ffffffffffffffffffffffffffffffffffffffff168587604051611808919061271b565b60006040518083038185875af1925050503d8060008114611845576040519150601f19603f3d011682016040523d82523d6000602084013e61184a565b606091505b509150915061185a828286611879565b92505050949350505050565b600080823b905060008111915050919050565b60608315611889578290506118d9565b60008351111561189c5782518084602001fd5b816040517f08c379a00000000000000000000000000000000000000000000000000000000081526004016118d09190612787565b60405180910390fd5b9392505050565b600080fd5b600c81106118f257600080fd5b50565b600081359050611904816118e5565b92915050565b6000602082840312156119205761191f6118e0565b5b600061192e848285016118f5565b91505092915050565b6000819050919050565b61194a81611937565b82525050565b60006020820190506119656000830184611941565b92915050565b60008115159050919050565b6119808161196b565b82525050565b600060208201905061199b6000830184611977565b92915050565b600073ffffffffffffffffffffffffffffffffffffffff82169050919050565b60006119cc826119a1565b9050919050565b6119dc816119c1565b82525050565b60006020820190506119f760008301846119d3565b92915050565b7f4e487b7100000000000000000000000000000000000000000000000000000000600052602160045260246000fd5b600c8110611a3d57611a3c6119fd565b5b50565b6000819050611a4e82611a2c565b919050565b6000611a5e82611a40565b9050919050565b611a6e81611a53565b82525050565b600061010082019050611a8a600083018b611a65565b611a97602083018a611941565b611aa46040830189611941565b611ab16060830188611941565b611abe6080830187611941565b611acb60a0830186611941565b611ad860c0830185611941565b611ae560e0830184611941565b9998505050505050505050565b611afb81611937565b8114611b0657600080fd5b50565b600081359050611b1881611af2565b92915050565b600060208284031215611b3457611b336118e0565b5b6000611b4284828501611b09565b91505092915050565b611b54816119c1565b8114611b5f57600080fd5b50565b600081359050611b7181611b4b565b92915050565b600060208284031215611b8d57611b8c6118e0565b5b6000611b9b84828501611b62565b91505092915050565b600082825260208201905092915050565b7f4f776e61626c653a2063616c6c6572206973206e6f7420746865206f776e6572600082015250565b6000611beb602083611ba4565b9150611bf682611bb5565b602082019050919050565b60006020820190508181036000830152611c1a81611bde565b9050919050565b7f436f6e7472616374206e6f7420696e697469616c697a65640000000000000000600082015250565b6000611c57601883611ba4565b9150611c6282611c21565b602082019050919050565b60006020820190508181036000830152611c8681611c4a565b9050919050565b7f4e487b7100000000000000000000000000000000000000000000000000000000600052601160045260246000fd5b6000611cc782611937565b91507fffffffffffffffffffffffffffffffffffffffffffffffffffffffffffffffff821415611cfa57611cf9611c8d565b5b600182019050919050565b600081519050611d1481611af2565b92915050565b600060208284031215611d3057611d2f6118e0565b5b6000611d3e84828501611d05565b91505092915050565b7f436f6e747261637420646f65736e2774206861766520656e6f7567682065786360008201527f65737320746f6b656e7320746f207265636f7665720000000000000000000000602082015250565b6000611da3603583611ba4565b9150611dae82611d47565b604082019050919050565b60006020820190508181036000830152611dd281611d96565b9050919050565b7f4e6f20746f6b656e7320617661696c61626c6520666f7220776974686472617760008201527f616c000000000000000000000000000000000000000000000000000000000000602082015250565b6000611e35602283611ba4565b9150611e4082611dd9565b604082019050919050565b60006020820190508181036000830152611e6481611e28565b9050919050565b7f436f6e747261637420616c726561647920696e697469616c697a656400000000600082015250565b6000611ea1601c83611ba4565b9150611eac82611e6b565b602082019050919050565b60006020820190508181036000830152611ed081611e94565b9050919050565b7f436f6e747261637420646f65736e2774206861766520656e6f7567682062616c60008201527f616e636520746f20646973747269627574650000000000000000000000000000602082015250565b6000611f33603283611ba4565b9150611f3e82611ed7565b604082019050919050565b60006020820190508181036000830152611f6281611f26565b9050919050565b7f496e76616c696420747265617375727920616464726573730000000000000000600082015250565b6000611f9f601883611ba4565b9150611faa82611f69565b602082019050919050565b60006020820190508181036000830152611fce81611f92565b9050919050565b7f4f776e61626c653a206e6577206f776e657220697320746865207a65726f206160008201527f6464726573730000000000000000000000000000000000000000000000000000602082015250565b6000612031602683611ba4565b915061203c82611fd5565b604082019050919050565b6000602082019050818103600083015261206081612024565b9050919050565b600061207282611937565b915061207d83611937565b9250827fffffffffffffffffffffffffffffffffffffffffffffffffffffffffffffffff038211156120b2576120b1611c8d565b5b828201905092915050565b60006120c882611937565b91506120d383611937565b9250828210156120e6576120e5611c8d565b5b828203905092915050565b600060408201905061210660008301856119d3565b6121136020830184611941565b9392505050565b7f4e487b7100000000000000000000000000000000000000000000000000000000600052601260045260246000fd5b600061215482611937565b915061215f83611937565b92508261216f5761216e61211a565b5b828204905092915050565b600061218582611937565b915061219083611937565b9250826121a05761219f61211a565b5b828206905092915050565b60006121b682611937565b91506121c183611937565b9250817fffffffffffffffffffffffffffffffffffffffffffffffffffffffffffffffff04831182151516156121fa576121f9611c8d565b5b828202905092915050565b61220e8161196b565b811461221957600080fd5b50565b60008151905061222b81612205565b92915050565b600060208284031215612247576122466118e0565b5b60006122558482850161221c565b91505092915050565b7f5361666545524332303a204552433230206f7065726174696f6e20646964206e60008201527f6f74207375636365656400000000000000000000000000000000000000000000602082015250565b60006122ba602a83611ba4565b91506122c58261225e565b604082019050919050565b600060208201905081810360008301526122e9816122ad565b9050919050565b6000819050919050565b6000612305826122f0565b9150612310836122f0565b9250817f7fffffffffffffffffffffffffffffffffffffffffffffffffffffffffffffff0383136000831215161561234b5761234a611c8d565b5b817f800000000000000000000000000000000000000000000000000000000000000003831260008312161561238357612382611c8d565b5b828201905092915050565b6000612399826122f0565b91506123a4836122f0565b9250827f7fffffffffffffffffffffffffffffffffffffffffffffffffffffffffffffff04821160008413600084131616156123e3576123e2611c8d565b5b817f800000000000000000000000000000000000000000000000000000000000000005831260008412600084131616156124205761241f611c8d565b5b827f8000000000000000000000000000000000000000000000000000000000000000058212600084136000841216161561245d5761245c611c8d565b5b827f7fffffffffffffffffffffffffffffffffffffffffffffffffffffffffffffff058212600084126000841216161561249a57612499611c8d565b5b828202905092915050565b60006124b0826122f0565b91506124bb836122f0565b9250826124cb576124ca61211a565b5b600160000383147f80000000000000000000000000000000000000000000000000000000000000008314161561250457612503611c8d565b5b828205905092915050565b600061251a826122f0565b9150612525836122f0565b9250827f8000000000000000000000000000000000000000000000000000000000000000018212600084121516156125605761255f611c8d565b5b827f7fffffffffffffffffffffffffffffffffffffffffffffffffffffffffffffff01821360008412161561259857612597611c8d565b5b828203905092915050565b7f416464726573733a20696e73756666696369656e742062616c616e636520666f60008201527f722063616c6c0000000000000000000000000000000000000000000000000000602082015250565b60006125ff602683611ba4565b915061260a826125a3565b604082019050919050565b6000602082019050818103600083015261262e816125f2565b9050919050565b7f416464726573733a2063616c6c20746f206e6f6e2d636f6e7472616374000000600082015250565b600061266b601d83611ba4565b915061267682612635565b602082019050919050565b6000602082019050818103600083015261269a8161265e565b9050919050565b600081519050919050565b600081905092915050565b60005b838110156126d55780820151818401526020810190506126ba565b838111156126e4576000848401525b50505050565b60006126f5826126a1565b6126ff81856126ac565b935061270f8185602086016126b7565b80840191505092915050565b600061272782846126ea565b915081905092915050565b600081519050919050565b6000601f19601f8301169050919050565b600061275982612732565b6127638185611ba4565b93506127738185602086016126b7565b61277c8161273d565b840191505092915050565b600060208201905081810360008301526127a1818461274e565b90509291505056fea26469706673582212203eeaf9eadecc28c58993d49c4275f99fe46ee8a895847c98e69c1aa1d3a43d1564736f6c63430008090033",
  "immutableReferences": {},
  "source": "// SPDX-License-Identifier: MIT\n\npragma solidity 0.8.9;\n\nimport \"@openzeppelin/contracts/token/ERC20/utils/SafeERC20.sol\";\nimport \"@openzeppelin/contracts/utils/math/SafeMath.sol\";\nimport \"@openzeppelin/contracts/access/Ownable.sol\";\nimport \"./BokkyPooBahsDateTimeLibrary.sol\";\n\n/**\n  @title Contract to calculate the tokens that can be withdrawn\n  for different distribution pools\n*/\ncontract FanTokenVesting is Ownable {\n    using BokkyPooBahsDateTimeLibrary for uint256;\n    using SafeERC20 for IERC20;\n    using SafeMath for uint256;\n\n    enum DistributionType {\n        TEAM,\n        SEED,\n        STRATEGIC,\n        PRIVATE1,\n        PRIVATE2,\n        PUBLIC,\n        ADVISORS,\n        LIQUIDITY,\n        REWARDS,\n        MARKETING,\n        RESERVES,\n        ECOSYSTEM\n    }\n    event DistributionAdded(\n        address indexed caller,\n        DistributionType indexed distributionType,\n        uint256 totalTokensAllotted,\n        uint256 initialTokensReleased,\n        uint256 cliffPeriodMonths,\n        uint256 vestingPeriodMonths\n    );\n    event WithdrawnTokens(address indexed investor, uint256 value);\n    event TokenRecovered(uint256 indexed amount);\n    event TreasuryChanged(\n        address indexed oldTreasury,\n        address indexed newTreasury\n    );\n\n    address public treasury;\n    uint256 private _initialTimestamp;\n    IERC20 private _fanToken;\n\n    /**\n      @dev Cliff and Vesting happen in months but the allocation \n      is in days. So, an extra field is added to store the \n      number of days from initialization. This is calculated one time\n      during initialization to avoid the gas fees from \n      calculating it on every withdrawal.\n    */\n    struct Distribution {\n        DistributionType distributionType;\n        uint256 totalTokensAllotted;\n        uint256 initialTokensReleased;\n        uint256 cliffPeriodMonths;\n        uint256 cliffPeriodDays;\n        uint256 vestingPeriodMonths;\n        uint256 vestingPeriodDays;\n        uint256 withdrawnTokens;\n    }\n\n    mapping(DistributionType => Distribution) public distributionInfo;\n\n    /**\n      @dev Boolean variable that indicates whether the contract was initialized.\n   */\n    bool public isInitialized = false;\n\n    /**\n      @dev Checks that the contract is initialized.\n   */\n    modifier initialized() {\n        require(isInitialized, \"Contract not initialized\");\n        _;\n    }\n\n    /**\n      @dev Checks that the contract is not initialized.\n   */\n    modifier notInitialized() {\n        require(!isInitialized, \"Contract already initialized\");\n        _;\n    }\n\n    constructor(address _token, address _treasury) {\n        require(\n            address(_token) != address(0x0),\n            \"FAW token address is not valid\"\n        );\n        require(_treasury != address(0x0), \"Treasury address is not valid\");\n\n        treasury = _treasury;\n        _fanToken = IERC20(_token);\n\n        // 12.5%, 0% TGE, 12 month cliff, linear release for 36 months\n        _addDistribution(\n            DistributionType.TEAM,\n            125000000 * (10**18),\n            0 * (10**18),\n            12,\n            48\n        );\n\n        // 2%, 5% TGE, 1 month cliff, linear release for 11 months\n        _addDistribution(\n            DistributionType.SEED,\n            20000000 * (10**18),\n            1000000 * (10**18),\n            1,\n            12\n        );\n\n        // 5.1%, 5% TGE, 1 month cliff, linear release for 11 months\n        _addDistribution(\n            DistributionType.STRATEGIC,\n            51000000 * (10**18),\n            2550000 * (10**18),\n            1,\n            12\n        );\n\n        // 4%, 7% TGE, 1 month cliff, linear release for 11 months\n        _addDistribution(\n            DistributionType.PRIVATE1,\n            40000000 * (10**18),\n            2800000 * (10**18),\n            1,\n            12\n        );\n\n        // 6.6%, 8% TGE, 1 month cliff, linear release for 11 months\n        _addDistribution(\n            DistributionType.PRIVATE2,\n            66000000 * (10**18),\n            5280000 * (10**18),\n            1,\n            12\n        );\n\n        // 2.3%, 20% TGE, no cliff, linear release for 4 months\n        _addDistribution(\n            DistributionType.PUBLIC,\n            23000000 * (10**18),\n            4600000 * (10**18),\n            0,\n            4\n        );\n\n        // 7%, 0% TGE, 6 month cliff, linear release for 18 months\n        _addDistribution(\n            DistributionType.ADVISORS,\n            70000000 * (10**18),\n            0 * (10**18),\n            6,\n            24\n        );\n\n        // 2%, 100% TGE, no cliff, no vesting\n        _addDistribution(\n            DistributionType.LIQUIDITY,\n            20000000 * (10**18),\n            20000000 * (10**18),\n            0,\n            0\n        );\n\n        // 20%, 0% TGE, 1 month cliff, linear release for 24 months\n        _addDistribution(\n            DistributionType.REWARDS,\n            200000000 * (10**18),\n            0 * (10**18),\n            1,\n            25\n        );\n\n        // 12%, 5% TGE, no cliff, linear release for 24 months\n        _addDistribution(\n            DistributionType.MARKETING,\n            120000000 * (10**18),\n            6000000 * (10**18),\n            0,\n            24\n        );\n\n        // 13.5%, 5% TGE, no cliff, linear release for 24 months\n        _addDistribution(\n            DistributionType.RESERVES,\n            135000000 * (10**18),\n            6750000 * (10**18),\n            0,\n            24\n        );\n\n        // 13%, 0% TGE, 1 month cliff, linear release for 18 months\n        _addDistribution(\n            DistributionType.ECOSYSTEM,\n            130000000 * (10**18),\n            0 * (10**18),\n            1,\n            19\n        );\n    }\n\n    /// @dev Returns the vesting initilization timestamp\n    function getInitialTimestamp() public view returns (uint256 timestamp) {\n        return _initialTimestamp;\n    }\n\n    /**\n      @dev Adds Distribution for the in the `_distributionType` pool. Note that the initial token will be withdrawable only after the initialization date\n      @param _distributionType The pool type to which the tokens are allotted\n      @param _totalTokensAllotted The total number tokens allotted in the `_distributionType` pool\n      @param _initialTokensReleased Number of tokens released on TGE\n      @param _cliffPeriodMonths Cliff period in months\n      @param _vestingPeriodMonths Vesting period in months\n     */\n    function _addDistribution(\n        DistributionType _distributionType,\n        uint256 _totalTokensAllotted,\n        uint256 _initialTokensReleased,\n        uint256 _cliffPeriodMonths,\n        uint256 _vestingPeriodMonths\n    ) internal {\n        Distribution storage distribution = distributionInfo[_distributionType];\n        distribution.distributionType = _distributionType;\n        distribution.totalTokensAllotted = _totalTokensAllotted;\n        distribution.cliffPeriodMonths = _cliffPeriodMonths;\n        distribution.vestingPeriodMonths = _vestingPeriodMonths;\n        distribution.initialTokensReleased = _initialTokensReleased;\n        distribution.withdrawnTokens = 0;\n\n        emit DistributionAdded(\n            _msgSender(),\n            _distributionType,\n            _totalTokensAllotted,\n            _initialTokensReleased,\n            _cliffPeriodMonths,\n            _vestingPeriodMonths\n        );\n    }\n\n    /**\n      Initialize the contract by setting the initial timestamp.\n      @dev This function can only be called once by the owner.\n      Upon invocation, the function also does the following:\n      1. Calculate the vesting and cliff periods in days for each distribution.\n      This is done to avoid gas usage every time withdraw is called.\n      2. Ensure that the total number of tokens in the distribution pool \n      is equal to the total number of tokens owned by the contract.\n      @param _timestamp The initial timestamp, this timestamp will be used for vesting\n    */\n    function init(uint256 _timestamp) external onlyOwner notInitialized {\n        isInitialized = true;\n        _initialTimestamp = _timestamp;\n\n        uint256 totalAlottedAmount = 0;\n        for (uint256 i = 0; i <= uint256(type(DistributionType).max); i++) {\n            Distribution storage distribution = distributionInfo[\n                DistributionType(i)\n            ];\n\n            uint256 cliffPeriodMonths = distribution.cliffPeriodMonths;\n            uint256 cliffEndTimestamp = BokkyPooBahsDateTimeLibrary.addMonths(\n                _timestamp,\n                cliffPeriodMonths\n            );\n            distribution.cliffPeriodDays = BokkyPooBahsDateTimeLibrary.diffDays(\n                _timestamp,\n                cliffEndTimestamp\n            );\n\n            uint256 vestingPeriodMonths = distribution.vestingPeriodMonths;\n            uint256 vestingEndTimestamp = BokkyPooBahsDateTimeLibrary.addMonths(\n                _timestamp,\n                vestingPeriodMonths\n            );\n            distribution.vestingPeriodDays = BokkyPooBahsDateTimeLibrary\n                .diffDays(_timestamp, vestingEndTimestamp);\n\n            totalAlottedAmount = totalAlottedAmount.add(\n                distribution.totalTokensAllotted\n            );\n        }\n\n        // Make sure that the contract has enough tokens to distribute\n        // to the beneficiaries\n        require(\n            _fanToken.balanceOf(address(this)) >= totalAlottedAmount,\n            \"Contract doesn't have enough balance to distribute\"\n        );\n    }\n\n    function withdrawTokens(DistributionType _distributionType)\n        external\n        onlyOwner\n        initialized\n    {\n        Distribution storage distribution = distributionInfo[_distributionType];\n\n        uint256 tokensWithdrawable = withdrawableTokens(_distributionType);\n\n        require(tokensWithdrawable > 0, \"No tokens available for withdrawal\");\n\n        distribution.withdrawnTokens = distribution.withdrawnTokens.add(\n            tokensWithdrawable\n        );\n\n        // Transfer the amount in the end to avoid reentrancy attacks\n        _fanToken.safeTransfer(treasury, tokensWithdrawable);\n\n        emit WithdrawnTokens(treasury, tokensWithdrawable);\n    }\n\n    /**\n      Returns the amount of tokens that can be withdrawn from \n      the contract for the specified distribution type.\n      @param distributionType The distribution type\n      @return tokens The amount of tokens that can be withdrawn from \n      the contract for the distribution type\n    */\n    function withdrawableTokens(DistributionType distributionType)\n        public\n        view\n        returns (uint256 tokens)\n    {\n        // Even the initialTokensReleased cannot be withdrawn\n        // before contract initialization\n        if (!isInitialized) {\n            return 0;\n        }\n\n        Distribution storage distribution = distributionInfo[distributionType];\n\n        // Get the number of tokens available for withdrawal based\n        // on the number of DAYS elapsed since the contract was initialized\n        uint256 vestedTokens = _calculateVestedTokens(distributionType);\n\n        return (\n            (vestedTokens.add(distribution.initialTokensReleased)).sub(\n                distribution.withdrawnTokens\n            )\n        );\n    }\n\n    function _calculateVestedTokens(DistributionType distributionType)\n        private\n        view\n        returns (uint256 _amountVested)\n    {\n        // Block timestamp is used here since the issuance happens\n        // on a daily basis. Minor time uncertainities are acceptable\n        uint256 currentTimeStamp = block.timestamp;\n        uint256 noOfDays = BokkyPooBahsDateTimeLibrary.diffDays(\n            _initialTimestamp,\n            currentTimeStamp\n        );\n\n        Distribution storage distribution = distributionInfo[distributionType];\n\n        if (noOfDays <= distribution.cliffPeriodDays) {\n            return 0;\n        } else if (noOfDays >= distribution.vestingPeriodDays) {\n            return\n                distribution.totalTokensAllotted.sub(\n                    distribution.initialTokensReleased\n                );\n        } else {\n            uint256 vestedTokens = (\n                (\n                    distribution.totalTokensAllotted.sub(\n                        distribution.initialTokensReleased\n                    )\n                ).div(distribution.vestingPeriodDays)\n            ).mul(noOfDays);\n\n            return vestedTokens;\n        }\n    }\n\n    function setTreasury(address _treasury) external onlyOwner {\n        require(treasury != address(0), \"Invalid treasury address\");\n        address oldTreasury = treasury;\n        treasury = _treasury;\n        emit TreasuryChanged(oldTreasury, _treasury);\n    }\n\n    /**\n      If any excess tokens are transferred to this contract without \n      adding it to any distribution pool, this function can be used to \n      recover the amount\n     */\n    function recoverExcessTokens() external onlyOwner initialized {\n        uint256 totalAvailableAmount = 0;\n        for (uint256 i = 0; i <= uint256(type(DistributionType).max); i++) {\n            Distribution storage distribution = distributionInfo[\n                DistributionType(i)\n            ];\n            totalAvailableAmount = totalAvailableAmount\n                .add(distribution.totalTokensAllotted)\n                .sub(distribution.withdrawnTokens);\n        }\n\n        uint256 excessTokens = _fanToken.balanceOf(address(this)).sub(\n            totalAvailableAmount\n        );\n\n        // Make sure that the contract has enough excess tokens to recover\n        require(\n            excessTokens > 0,\n            \"Contract doesn't have enough excess tokens to recover\"\n        );\n\n        _fanToken.safeTransfer(_msgSender(), excessTokens);\n\n        emit TokenRecovered(excessTokens);\n    }\n}\n",
  "sourcePath": "/home/ketan/Documents/git/fananywhere/fananywhere-token/truffle/contracts/FanTokenVesting.sol",
  "compiler": {
    "name": "solc",
    "version": "0.8.9+commit.e5eed63a.Emscripten.clang"
  },
  "schemaVersion": "3.4.3",
  "updatedAt": "2021-11-29T05:19:45.271Z",
  "networkType": "ethereum",
  "devdoc": {
    "kind": "dev",
    "methods": {
      "getInitialTimestamp()": {
        "details": "Returns the vesting initilization timestamp"
      },
      "init(uint256)": {
        "details": "This function can only be called once by the owner. Upon invocation, the function also does the following: 1. Calculate the vesting and cliff periods in days for each distribution. This is done to avoid gas usage every time withdraw is called. 2. Ensure that the total number of tokens in the distribution pool  is equal to the total number of tokens owned by the contract.",
        "params": {
          "_timestamp": "The initial timestamp, this timestamp will be used for vesting"
        }
      },
      "owner()": {
        "details": "Returns the address of the current owner."
      },
      "renounceOwnership()": {
        "details": "Leaves the contract without owner. It will not be possible to call `onlyOwner` functions anymore. Can only be called by the current owner. NOTE: Renouncing ownership will leave the contract without an owner, thereby removing any functionality that is only available to the owner."
      },
      "transferOwnership(address)": {
        "details": "Transfers ownership of the contract to a new account (`newOwner`). Can only be called by the current owner."
      },
      "withdrawableTokens(uint8)": {
        "params": {
          "distributionType": "The distribution type"
        },
        "returns": {
          "tokens": "The amount of tokens that can be withdrawn from  the contract for the distribution type"
        }
      }
    },
    "stateVariables": {
      "isInitialized": {
        "details": "Boolean variable that indicates whether the contract was initialized."
      }
    },
    "title": "Contract to calculate the tokens that can be withdrawn for different distribution pools",
    "version": 1
  },
  "userdoc": {
    "kind": "user",
    "methods": {
      "init(uint256)": {
        "notice": "Initialize the contract by setting the initial timestamp."
      },
      "recoverExcessTokens()": {
        "notice": "If any excess tokens are transferred to this contract without  adding it to any distribution pool, this function can be used to  recover the amount"
      },
      "withdrawableTokens(uint8)": {
        "notice": "Returns the amount of tokens that can be withdrawn from  the contract for the specified distribution type."
      }
    },
    "version": 1
  }
}