{
  "contractName": "FanTokenIssuance",
  "abi": [
    {
      "inputs": [
        {
          "internalType": "address",
          "name": "_token",
          "type": "address"
        }
      ],
      "stateMutability": "nonpayable",
      "type": "constructor"
    },
    {
      "anonymous": false,
      "inputs": [
        {
          "indexed": true,
          "internalType": "enum FanTokenIssuance.DistributionType",
          "name": "poolType",
          "type": "uint8"
        },
        {
          "indexed": false,
          "internalType": "address",
          "name": "beneficiary",
          "type": "address"
        },
        {
          "indexed": false,
          "internalType": "uint256",
          "name": "beneficiaryAllotment",
          "type": "uint256"
        }
      ],
      "name": "BeneficiaryAdded",
      "type": "event"
    },
    {
      "anonymous": false,
      "inputs": [
        {
          "indexed": true,
          "internalType": "enum FanTokenIssuance.DistributionType",
          "name": "poolType",
          "type": "uint8"
        },
        {
          "indexed": false,
          "internalType": "address",
          "name": "beneficiary",
          "type": "address"
        },
        {
          "indexed": false,
          "internalType": "uint256",
          "name": "oldBeneficiaryAllotment",
          "type": "uint256"
        },
        {
          "indexed": false,
          "internalType": "uint256",
          "name": "newBeneficiaryAllotment",
          "type": "uint256"
        }
      ],
      "name": "BeneficiaryAllotmentModified",
      "type": "event"
    },
    {
      "anonymous": false,
      "inputs": [
        {
          "indexed": true,
          "internalType": "enum FanTokenIssuance.DistributionType",
          "name": "poolType",
          "type": "uint8"
        },
        {
          "indexed": false,
          "internalType": "address",
          "name": "beneficiary",
          "type": "address"
        }
      ],
      "name": "BeneficiaryRemoved",
      "type": "event"
    },
    {
      "anonymous": false,
      "inputs": [
        {
          "indexed": true,
          "internalType": "enum FanTokenIssuance.DistributionType",
          "name": "poolType",
          "type": "uint8"
        },
        {
          "indexed": false,
          "internalType": "uint256",
          "name": "issuedAmount",
          "type": "uint256"
        }
      ],
      "name": "IssuanceAdded",
      "type": "event"
    },
    {
      "anonymous": false,
      "inputs": [
        {
          "indexed": true,
          "internalType": "address",
          "name": "previousOwner",
          "type": "address"
        },
        {
          "indexed": true,
          "internalType": "address",
          "name": "newOwner",
          "type": "address"
        }
      ],
      "name": "OwnershipTransferred",
      "type": "event"
    },
    {
      "anonymous": false,
      "inputs": [
        {
          "indexed": true,
          "internalType": "enum FanTokenIssuance.DistributionType",
          "name": "poolType",
          "type": "uint8"
        },
        {
          "indexed": true,
          "internalType": "address",
          "name": "beneficiary",
          "type": "address"
        },
        {
          "indexed": false,
          "internalType": "uint256",
          "name": "withdrawnAmount",
          "type": "uint256"
        }
      ],
      "name": "PoolTokensWithdrawn",
      "type": "event"
    },
    {
      "anonymous": false,
      "inputs": [
        {
          "indexed": true,
          "internalType": "uint256",
          "name": "amount",
          "type": "uint256"
        }
      ],
      "name": "TokenRecovered",
      "type": "event"
    },
    {
      "anonymous": false,
      "inputs": [
        {
          "indexed": true,
          "internalType": "address",
          "name": "beneficiary",
          "type": "address"
        },
        {
          "indexed": false,
          "internalType": "uint256",
          "name": "withdrawnAmount",
          "type": "uint256"
        }
      ],
      "name": "TokensWithdrawn",
      "type": "event"
    },
    {
      "inputs": [
        {
          "internalType": "enum FanTokenIssuance.DistributionType",
          "name": "",
          "type": "uint8"
        }
      ],
      "name": "distributionTypeToIssuance",
      "outputs": [
        {
          "internalType": "enum FanTokenIssuance.DistributionType",
          "name": "poolType",
          "type": "uint8"
        },
        {
          "internalType": "uint256",
          "name": "totalTokensAllotted",
          "type": "uint256"
        },
        {
          "internalType": "uint256",
          "name": "totalBeneficiaryAllotment",
          "type": "uint256"
        },
        {
          "internalType": "uint256",
          "name": "totalTokensIssued",
          "type": "uint256"
        },
        {
          "internalType": "uint256",
          "name": "totalTokensWithdrawn",
          "type": "uint256"
        }
      ],
      "stateMutability": "view",
      "type": "function",
      "constant": true
    },
    {
      "inputs": [
        {
          "internalType": "enum FanTokenIssuance.DistributionType",
          "name": "",
          "type": "uint8"
        },
        {
          "internalType": "address",
          "name": "",
          "type": "address"
        }
      ],
      "name": "distributionTypeToWithdrawals",
      "outputs": [
        {
          "internalType": "uint256",
          "name": "",
          "type": "uint256"
        }
      ],
      "stateMutability": "view",
      "type": "function",
      "constant": true
    },
    {
      "inputs": [],
      "name": "owner",
      "outputs": [
        {
          "internalType": "address",
          "name": "",
          "type": "address"
        }
      ],
      "stateMutability": "view",
      "type": "function",
      "constant": true
    },
    {
      "inputs": [],
      "name": "renounceOwnership",
      "outputs": [],
      "stateMutability": "nonpayable",
      "type": "function"
    },
    {
      "inputs": [
        {
          "internalType": "address",
          "name": "newOwner",
          "type": "address"
        }
      ],
      "name": "transferOwnership",
      "outputs": [],
      "stateMutability": "nonpayable",
      "type": "function"
    },
    {
      "inputs": [
        {
          "internalType": "enum FanTokenIssuance.DistributionType",
          "name": "_distributionType",
          "type": "uint8"
        },
        {
          "internalType": "uint256",
          "name": "_issuanceAmount",
          "type": "uint256"
        }
      ],
      "name": "addTokenIssuance",
      "outputs": [
        {
          "internalType": "bool",
          "name": "success",
          "type": "bool"
        }
      ],
      "stateMutability": "nonpayable",
      "type": "function"
    },
    {
      "inputs": [
        {
          "internalType": "enum FanTokenIssuance.DistributionType",
          "name": "_distributionType",
          "type": "uint8"
        },
        {
          "internalType": "address",
          "name": "_beneficiary",
          "type": "address"
        },
        {
          "internalType": "uint256",
          "name": "_beneficiaryAllotment",
          "type": "uint256"
        }
      ],
      "name": "addBeneficiary",
      "outputs": [
        {
          "internalType": "bool",
          "name": "success",
          "type": "bool"
        }
      ],
      "stateMutability": "nonpayable",
      "type": "function"
    },
    {
      "inputs": [
        {
          "internalType": "enum FanTokenIssuance.DistributionType",
          "name": "_distributionType",
          "type": "uint8"
        },
        {
          "internalType": "address",
          "name": "_beneficiary",
          "type": "address"
        },
        {
          "internalType": "uint256",
          "name": "_newBeneficiaryAllotment",
          "type": "uint256"
        }
      ],
      "name": "modifyBeneficiaryAllotment",
      "outputs": [
        {
          "internalType": "bool",
          "name": "success",
          "type": "bool"
        }
      ],
      "stateMutability": "nonpayable",
      "type": "function"
    },
    {
      "inputs": [
        {
          "internalType": "enum FanTokenIssuance.DistributionType",
          "name": "_distributionType",
          "type": "uint8"
        },
        {
          "internalType": "address",
          "name": "_beneficiary",
          "type": "address"
        }
      ],
      "name": "removeBeneficiary",
      "outputs": [],
      "stateMutability": "nonpayable",
      "type": "function"
    },
    {
      "inputs": [
        {
          "internalType": "enum FanTokenIssuance.DistributionType",
          "name": "_distributionType",
          "type": "uint8"
        }
      ],
      "name": "getPoolWithdrawableAmount",
      "outputs": [
        {
          "internalType": "uint256",
          "name": "",
          "type": "uint256"
        }
      ],
      "stateMutability": "view",
      "type": "function",
      "constant": true
    },
    {
      "inputs": [],
      "name": "getWithdrawableAmount",
      "outputs": [
        {
          "internalType": "uint256",
          "name": "",
          "type": "uint256"
        }
      ],
      "stateMutability": "view",
      "type": "function",
      "constant": true
    },
    {
      "inputs": [
        {
          "internalType": "enum FanTokenIssuance.DistributionType",
          "name": "_distributionType",
          "type": "uint8"
        }
      ],
      "name": "withdrawPoolTokens",
      "outputs": [
        {
          "internalType": "bool",
          "name": "withdrawalSuccess",
          "type": "bool"
        }
      ],
      "stateMutability": "payable",
      "type": "function",
      "payable": true
    },
    {
      "inputs": [],
      "name": "withdrawTokens",
      "outputs": [
        {
          "internalType": "bool",
          "name": "withdrawalSuccess",
          "type": "bool"
        }
      ],
      "stateMutability": "payable",
      "type": "function",
      "payable": true
    },
    {
      "inputs": [
        {
          "internalType": "enum FanTokenIssuance.DistributionType",
          "name": "_distributionType",
          "type": "uint8"
        }
      ],
      "name": "getPoolWithdrawnAmount",
      "outputs": [
        {
          "internalType": "uint256",
          "name": "",
          "type": "uint256"
        }
      ],
      "stateMutability": "view",
      "type": "function",
      "constant": true
    },
    {
      "inputs": [],
      "name": "getWithdrawnAmount",
      "outputs": [
        {
          "internalType": "uint256",
          "name": "",
          "type": "uint256"
        }
      ],
      "stateMutability": "view",
      "type": "function",
      "constant": true
    },
    {
      "inputs": [
        {
          "internalType": "enum FanTokenIssuance.DistributionType",
          "name": "_distributionType",
          "type": "uint8"
        }
      ],
      "name": "getAllotment",
      "outputs": [
        {
          "internalType": "uint256",
          "name": "",
          "type": "uint256"
        }
      ],
      "stateMutability": "view",
      "type": "function",
      "constant": true
    },
    {
      "inputs": [],
      "name": "recoverExcessTokens",
      "outputs": [],
      "stateMutability": "nonpayable",
      "type": "function"
    }
  ],
  "bytecode": "0x60806040523480156200001157600080fd5b5060405162003c4f38038062003c4f83398181016040528101906200003791906200062f565b620000576200004b6200028660201b60201c565b6200028e60201b60201c565b600073ffffffffffffffffffffffffffffffffffffffff168173ffffffffffffffffffffffffffffffffffffffff161415620000ca576040517f08c379a0000000000000000000000000000000000000000000000000000000008152600401620000c190620006c2565b60405180910390fd5b80600160006101000a81548173ffffffffffffffffffffffffffffffffffffffff021916908373ffffffffffffffffffffffffffffffffffffffff1602179055506200012960006a6765c793fa10079d0000006200035260201b60201c565b506200014860016a108b2a2c280290940000006200035260201b60201c565b506200016760026a2a2fab8a32d357130000006200035260201b60201c565b506200018660036a21165458500521280000006200035260201b60201c565b50620001a560046a36980b2b50d543820000006200035260201b60201c565b50620001c460056a1306707f946959770000006200035260201b60201c565b50620001e360066a39e7139a8c08fa060000006200035260201b60201c565b506200020260076a108b2a2c280290940000006200035260201b60201c565b506200022160086aa56fa5b99019a5c80000006200035260201b60201c565b506200024060096a6342fd08f00f63780000006200035260201b60201c565b506200025f600a6a6fab5caa0e114fe70000006200035260201b60201c565b506200027e600b6a6b88921f0410abc20000006200035260201b60201c565b5050620008fc565b600033905090565b60008060009054906101000a900473ffffffffffffffffffffffffffffffffffffffff169050816000806101000a81548173ffffffffffffffffffffffffffffffffffffffff021916908373ffffffffffffffffffffffffffffffffffffffff1602179055508173ffffffffffffffffffffffffffffffffffffffff168173ffffffffffffffffffffffffffffffffffffffff167f8be0079c531659141344cd1fd0a4f28419497f9722a3daafe3b4186f6b6457e060405160405180910390a35050565b6000620003646200028660201b60201c565b73ffffffffffffffffffffffffffffffffffffffff166200038a6200059c60201b60201c565b73ffffffffffffffffffffffffffffffffffffffff1614620003e3576040517f08c379a0000000000000000000000000000000000000000000000000000000008152600401620003da9062000734565b60405180910390fd5b6000821162000429576040517f08c379a00000000000000000000000000000000000000000000000000000000081526004016200042090620007a6565b60405180910390fd5b6000600160009054906101000a900473ffffffffffffffffffffffffffffffffffffffff1673ffffffffffffffffffffffffffffffffffffffff166318160ddd6040518163ffffffff1660e01b815260040160206040518083038186803b1580156200049457600080fd5b505afa158015620004a9573d6000803e3d6000fd5b505050506040513d601f19601f82011682018060405250810190620004cf919062000803565b90508083111562000517576040517f08c379a00000000000000000000000000000000000000000000000000000000081526004016200050e90620008ab565b60405180910390fd5b60006002600086600b811115620005335762000532620008cd565b5b600b811115620005485762000547620008cd565b5b81526020019081526020016000209050848160010160006101000a81548160ff0219169083600b811115620005825762000581620008cd565b5b021790555083816002018190555060019250505092915050565b60008060009054906101000a900473ffffffffffffffffffffffffffffffffffffffff16905090565b600080fd5b600073ffffffffffffffffffffffffffffffffffffffff82169050919050565b6000620005f782620005ca565b9050919050565b6200060981620005ea565b81146200061557600080fd5b50565b6000815190506200062981620005fe565b92915050565b600060208284031215620006485762000647620005c5565b5b6000620006588482850162000618565b91505092915050565b600082825260208201905092915050565b7f46415720746f6b656e2061646472657373206973206e6f742076616c69640000600082015250565b6000620006aa601e8362000661565b9150620006b78262000672565b602082019050919050565b60006020820190508181036000830152620006dd816200069b565b9050919050565b7f4f776e61626c653a2063616c6c6572206973206e6f7420746865206f776e6572600082015250565b60006200071c60208362000661565b91506200072982620006e4565b602082019050919050565b600060208201905081810360008301526200074f816200070d565b9050919050565b7f4e6f20746f6b656e7320616c6c6f747465640000000000000000000000000000600082015250565b60006200078e60128362000661565b91506200079b8262000756565b602082019050919050565b60006020820190508181036000830152620007c1816200077f565b9050919050565b6000819050919050565b620007dd81620007c8565b8114620007e957600080fd5b50565b600081519050620007fd81620007d2565b92915050565b6000602082840312156200081c576200081b620005c5565b5b60006200082c84828501620007ec565b91505092915050565b7f43616e6e6f7420616c6c6f74206d6f7265207468616e20746f74616c2073757060008201527f706c790000000000000000000000000000000000000000000000000000000000602082015250565b60006200089360238362000661565b9150620008a08262000835565b604082019050919050565b60006020820190508181036000830152620008c68162000884565b9050919050565b7f4e487b7100000000000000000000000000000000000000000000000000000000600052602160045260246000fd5b613343806200090c6000396000f3fe6080604052600436106100fe5760003560e01c8063715018a611610095578063967fe2cf11610064578063967fe2cf14610331578063bc968cae14610372578063cfeffff4146103af578063f2fde38b146103d8578063fed8161214610401576100fe565b8063715018a6146102a65780638d8f2adb146102bd5780638da5cb5b146102db57806390be10cc14610306576100fe565b806320871485116100d157806320871485146101d857806355e4eadb146102155780635b8451661461022c578063604d0a2614610269576100fe565b80630c47a39a14610103578063142c831f1461012e57806318a772611461015e5780631f1290251461019b575b600080fd5b34801561010f57600080fd5b5061011861043e565b60405161012591906122dd565b60405180910390f35b61014860048036038101906101439190612322565b6104ab565b604051610155919061236a565b60405180910390f35b34801561016a57600080fd5b506101856004803603810190610180919061240f565b610714565b604051610192919061236a565b60405180910390f35b3480156101a757600080fd5b506101c260048036038101906101bd9190612322565b610b55565b6040516101cf91906122dd565b60405180910390f35b3480156101e457600080fd5b506101ff60048036038101906101fa9190612462565b610bd6565b60405161020c919061236a565b60405180910390f35b34801561022157600080fd5b5061022a610ea6565b005b34801561023857600080fd5b50610253600480360381019061024e919061240f565b611159565b604051610260919061236a565b60405180910390f35b34801561027557600080fd5b50610290600480360381019061028b9190612322565b611463565b60405161029d91906122dd565b60405180910390f35b3480156102b257600080fd5b506102bb6114e1565b005b6102c5611569565b6040516102d2919061236a565b60405180910390f35b3480156102e757600080fd5b506102f0611851565b6040516102fd91906124b1565b60405180910390f35b34801561031257600080fd5b5061031b61187a565b60405161032891906122dd565b60405180910390f35b34801561033d57600080fd5b5061035860048036038101906103539190612322565b6118e7565b604051610369959493929190612543565b60405180910390f35b34801561037e57600080fd5b5061039960048036038101906103949190612322565b61192a565b6040516103a691906122dd565b60405180910390f35b3480156103bb57600080fd5b506103d660048036038101906103d19190612596565b611aa4565b005b3480156103e457600080fd5b506103ff60048036038101906103fa91906125d6565b611d90565b005b34801561040d57600080fd5b5061042860048036038101906104239190612596565b611e88565b60405161043591906122dd565b60405180910390f35b6000806000905060005b600b8081111561045b5761045a6124cc565b5b81116104a35761048e61047f82600b81111561047a576104796124cc565b5b611463565b83611ead90919063ffffffff16565b9150808061049b90612632565b915050610448565b508091505090565b6000806104b78361192a565b905060006003600085600b8111156104d2576104d16124cc565b5b600b8111156104e4576104e36124cc565b5b815260200190815260200160002060003373ffffffffffffffffffffffffffffffffffffffff1673ffffffffffffffffffffffffffffffffffffffff1681526020019081526020016000205490506105458183611ead90919063ffffffff16565b6003600086600b81111561055c5761055b6124cc565b5b600b81111561056e5761056d6124cc565b5b815260200190815260200160002060003373ffffffffffffffffffffffffffffffffffffffff1673ffffffffffffffffffffffffffffffffffffffff1681526020019081526020016000208190555060006002600086600b8111156105d6576105d56124cc565b5b600b8111156105e8576105e76124cc565b5b8152602001908152602001600020905061060f838260050154611ead90919063ffffffff16565b81600501819055506000831161065a576040517f08c379a0000000000000000000000000000000000000000000000000000000008152600401610651906126d8565b60405180910390fd5b6106a73384600160009054906101000a900473ffffffffffffffffffffffffffffffffffffffff1673ffffffffffffffffffffffffffffffffffffffff16611ec39092919063ffffffff16565b3373ffffffffffffffffffffffffffffffffffffffff1685600b8111156106d1576106d06124cc565b5b7f1ce3f2420a43fa883d1854e7eb1d0dd926cb110061b85aa7176145a5967004138560405161070091906122dd565b60405180910390a360019350505050919050565b600061071e611f49565b73ffffffffffffffffffffffffffffffffffffffff1661073c611851565b73ffffffffffffffffffffffffffffffffffffffff1614610792576040517f08c379a000000000000000000000000000000000000000000000000000000000815260040161078990612744565b60405180910390fd5b60006002600086600b8111156107ab576107aa6124cc565b5b600b8111156107bd576107bc6124cc565b5b81526020019081526020016000209050600073ffffffffffffffffffffffffffffffffffffffff168473ffffffffffffffffffffffffffffffffffffffff16141561083d576040517f08c379a0000000000000000000000000000000000000000000000000000000008152600401610834906127b0565b60405180910390fd5b60008311610880576040517f08c379a00000000000000000000000000000000000000000000000000000000081526004016108779061281c565b60405180910390fd5b60008160000160008673ffffffffffffffffffffffffffffffffffffffff1673ffffffffffffffffffffffffffffffffffffffff1681526020019081526020016000205411610904576040517f08c379a00000000000000000000000000000000000000000000000000000000081526004016108fb90612888565b60405180910390fd5b60008160000160008673ffffffffffffffffffffffffffffffffffffffff1673ffffffffffffffffffffffffffffffffffffffff16815260200190815260200160002054905080841015610a365761097f8260020154610971846004015487611f5190919063ffffffff16565b611f6790919063ffffffff16565b6003600088600b811115610996576109956124cc565b5b600b8111156109a8576109a76124cc565b5b815260200190815260200160002060008773ffffffffffffffffffffffffffffffffffffffff1673ffffffffffffffffffffffffffffffffffffffff168152602001908152602001600020541115610a35576040517f08c379a0000000000000000000000000000000000000000000000000000000008152600401610a2c9061291a565b60405180910390fd5b5b6000610a6185610a53848660030154611f7d90919063ffffffff16565b611ead90919063ffffffff16565b90508260020154811115610aaa576040517f08c379a0000000000000000000000000000000000000000000000000000000008152600401610aa1906129ac565b60405180910390fd5b808360030181905550848360000160008873ffffffffffffffffffffffffffffffffffffffff1673ffffffffffffffffffffffffffffffffffffffff1681526020019081526020016000208190555086600b811115610b0c57610b0b6124cc565b5b7f7c0c1286d7473bf00ff9b7df94012d6d64476e23190c904018d379b97d986a25878488604051610b3f939291906129cc565b60405180910390a2600193505050509392505050565b60006002600083600b811115610b6e57610b6d6124cc565b5b600b811115610b8057610b7f6124cc565b5b815260200190815260200160002060000160003373ffffffffffffffffffffffffffffffffffffffff1673ffffffffffffffffffffffffffffffffffffffff168152602001908152602001600020549050919050565b6000610be0611f49565b73ffffffffffffffffffffffffffffffffffffffff16610bfe611851565b73ffffffffffffffffffffffffffffffffffffffff1614610c54576040517f08c379a0000000000000000000000000000000000000000000000000000000008152600401610c4b90612744565b60405180910390fd5b60008211610c97576040517f08c379a0000000000000000000000000000000000000000000000000000000008152600401610c8e90612a4f565b60405180910390fd5b81600160009054906101000a900473ffffffffffffffffffffffffffffffffffffffff1673ffffffffffffffffffffffffffffffffffffffff166370a08231306040518263ffffffff1660e01b8152600401610cf391906124b1565b60206040518083038186803b158015610d0b57600080fd5b505afa158015610d1f573d6000803e3d6000fd5b505050506040513d601f19601f82011682018060405250810190610d439190612a84565b1015610d84576040517f08c379a0000000000000000000000000000000000000000000000000000000008152600401610d7b90612b23565b60405180910390fd5b60006002600085600b811115610d9d57610d9c6124cc565b5b600b811115610daf57610dae6124cc565b5b815260200190815260200160002090508060020154831115610e06576040517f08c379a0000000000000000000000000000000000000000000000000000000008152600401610dfd90612bb5565b60405180910390fd5b610e1d838260040154611ead90919063ffffffff16565b8160040181905550838160010160006101000a81548160ff0219169083600b811115610e4c57610e4b6124cc565b5b021790555083600b811115610e6457610e636124cc565b5b7f03dbe1dda7de3a676c02706ee3dd9c8387d740e2459c3dc2daa5d0b8a8bf69c884604051610e9391906122dd565b60405180910390a2600191505092915050565b610eae611f49565b73ffffffffffffffffffffffffffffffffffffffff16610ecc611851565b73ffffffffffffffffffffffffffffffffffffffff1614610f22576040517f08c379a0000000000000000000000000000000000000000000000000000000008152600401610f1990612744565b60405180910390fd5b6000805b600b80811115610f3957610f386124cc565b5b8111610fcf5760006002600083600b811115610f5857610f576124cc565b5b600b811115610f6a57610f696124cc565b5b600b811115610f7c57610f7b6124cc565b5b81526020019081526020016000209050610fb98160050154610fab836004015486611ead90919063ffffffff16565b611f7d90919063ffffffff16565b9250508080610fc790612632565b915050610f26565b50600061108f82600160009054906101000a900473ffffffffffffffffffffffffffffffffffffffff1673ffffffffffffffffffffffffffffffffffffffff166370a08231306040518263ffffffff1660e01b815260040161103191906124b1565b60206040518083038186803b15801561104957600080fd5b505afa15801561105d573d6000803e3d6000fd5b505050506040513d601f19601f820116820180604052508101906110819190612a84565b611f7d90919063ffffffff16565b9050600081116110d4576040517f08c379a00000000000000000000000000000000000000000000000000000000081526004016110cb90612c47565b60405180910390fd5b6111286110df611f49565b82600160009054906101000a900473ffffffffffffffffffffffffffffffffffffffff1673ffffffffffffffffffffffffffffffffffffffff16611ec39092919063ffffffff16565b807f11cd3c497c4ee51feb1ed7bbb2d072b8c18bce7bbf0cf03d310a12b4afcd981860405160405180910390a25050565b6000611163611f49565b73ffffffffffffffffffffffffffffffffffffffff16611181611851565b73ffffffffffffffffffffffffffffffffffffffff16146111d7576040517f08c379a00000000000000000000000000000000000000000000000000000000081526004016111ce90612744565b60405180910390fd5b60006002600086600b8111156111f0576111ef6124cc565b5b600b811115611202576112016124cc565b5b81526020019081526020016000209050600073ffffffffffffffffffffffffffffffffffffffff168473ffffffffffffffffffffffffffffffffffffffff161415611282576040517f08c379a0000000000000000000000000000000000000000000000000000000008152600401611279906127b0565b60405180910390fd5b600083116112c5576040517f08c379a00000000000000000000000000000000000000000000000000000000081526004016112bc9061281c565b60405180910390fd5b60008160000160008673ffffffffffffffffffffffffffffffffffffffff1673ffffffffffffffffffffffffffffffffffffffff1681526020019081526020016000205414611349576040517f08c379a000000000000000000000000000000000000000000000000000000000815260040161134090612cd9565b60405180910390fd5b8060020154611365848360030154611ead90919063ffffffff16565b11156113a6576040517f08c379a000000000000000000000000000000000000000000000000000000000815260040161139d90612d6b565b60405180910390fd5b828160000160008673ffffffffffffffffffffffffffffffffffffffff1673ffffffffffffffffffffffffffffffffffffffff16815260200190815260200160002081905550611403838260030154611ead90919063ffffffff16565b816003018190555084600b81111561141e5761141d6124cc565b5b7fc30251a1b660b8e5b1bd14accd52f377380a3696c794a8dc845c9d355c2e5c0d858560405161144f929190612d8b565b60405180910390a260019150509392505050565b60006003600083600b81111561147c5761147b6124cc565b5b600b81111561148e5761148d6124cc565b5b815260200190815260200160002060003373ffffffffffffffffffffffffffffffffffffffff1673ffffffffffffffffffffffffffffffffffffffff168152602001908152602001600020549050919050565b6114e9611f49565b73ffffffffffffffffffffffffffffffffffffffff16611507611851565b73ffffffffffffffffffffffffffffffffffffffff161461155d576040517f08c379a000000000000000000000000000000000000000000000000000000000815260040161155490612744565b60405180910390fd5b6115676000611f93565b565b6000806000905060005b600b80811115611586576115856124cc565b5b811161176a5760006115a982600b8111156115a4576115a36124cc565b5b61192a565b905060006003600084600b8111156115c4576115c36124cc565b5b600b8111156115d6576115d56124cc565b5b600b8111156115e8576115e76124cc565b5b815260200190815260200160002060003373ffffffffffffffffffffffffffffffffffffffff1673ffffffffffffffffffffffffffffffffffffffff1681526020019081526020016000205490506116498183611ead90919063ffffffff16565b6003600085600b8111156116605761165f6124cc565b5b600b811115611672576116716124cc565b5b600b811115611684576116836124cc565b5b815260200190815260200160002060003373ffffffffffffffffffffffffffffffffffffffff1673ffffffffffffffffffffffffffffffffffffffff1681526020019081526020016000208190555060006002600085600b8111156116ec576116eb6124cc565b5b600b8111156116fe576116fd6124cc565b5b600b8111156117105761170f6124cc565b5b81526020019081526020016000209050611737838260050154611ead90919063ffffffff16565b81600501819055506117528386611ead90919063ffffffff16565b9450505050808061176290612632565b915050611573565b50600081116117ae576040517f08c379a00000000000000000000000000000000000000000000000000000000081526004016117a5906126d8565b60405180910390fd5b6117fb3382600160009054906101000a900473ffffffffffffffffffffffffffffffffffffffff1673ffffffffffffffffffffffffffffffffffffffff16611ec39092919063ffffffff16565b3373ffffffffffffffffffffffffffffffffffffffff167f6352c5382c4a4578e712449ca65e83cdb392d045dfcf1cad9615189db2da244b8260405161184191906122dd565b60405180910390a2600191505090565b60008060009054906101000a900473ffffffffffffffffffffffffffffffffffffffff16905090565b6000806000905060005b600b80811115611897576118966124cc565b5b81116118df576118ca6118bb82600b8111156118b6576118b56124cc565b5b61192a565b83611ead90919063ffffffff16565b915080806118d790612632565b915050611884565b508091505090565b60026020528060005260406000206000915090508060010160009054906101000a900460ff16908060020154908060030154908060040154908060050154905085565b6000806002600084600b811115611944576119436124cc565b5b600b811115611956576119556124cc565b5b815260200190815260200160002060000160003373ffffffffffffffffffffffffffffffffffffffff1673ffffffffffffffffffffffffffffffffffffffff16815260200190815260200160002054905060006002600085600b8111156119c0576119bf6124cc565b5b600b8111156119d2576119d16124cc565b5b815260200190815260200160002090506000611a976003600087600b8111156119fe576119fd6124cc565b5b600b811115611a1057611a0f6124cc565b5b815260200190815260200160002060003373ffffffffffffffffffffffffffffffffffffffff1673ffffffffffffffffffffffffffffffffffffffff16815260200190815260200160002054611a898460020154611a7b866004015488611f5190919063ffffffff16565b611f6790919063ffffffff16565b611f7d90919063ffffffff16565b9050809350505050919050565b611aac611f49565b73ffffffffffffffffffffffffffffffffffffffff16611aca611851565b73ffffffffffffffffffffffffffffffffffffffff1614611b20576040517f08c379a0000000000000000000000000000000000000000000000000000000008152600401611b1790612744565b60405180910390fd5b60006002600084600b811115611b3957611b386124cc565b5b600b811115611b4b57611b4a6124cc565b5b8152602001908152602001600020905060008160000160008473ffffffffffffffffffffffffffffffffffffffff1673ffffffffffffffffffffffffffffffffffffffff1681526020019081526020016000205411611bdf576040517f08c379a0000000000000000000000000000000000000000000000000000000008152600401611bd690612888565b60405180910390fd5b60006003600085600b811115611bf857611bf76124cc565b5b600b811115611c0a57611c096124cc565b5b815260200190815260200160002060008473ffffffffffffffffffffffffffffffffffffffff1673ffffffffffffffffffffffffffffffffffffffff1681526020019081526020016000205414611c96576040517f08c379a0000000000000000000000000000000000000000000000000000000008152600401611c8d90612e26565b60405180910390fd5b60008160000160008473ffffffffffffffffffffffffffffffffffffffff1673ffffffffffffffffffffffffffffffffffffffff168152602001908152602001600020549050611cf3818360030154611f7d90919063ffffffff16565b82600301819055508160000160008473ffffffffffffffffffffffffffffffffffffffff1673ffffffffffffffffffffffffffffffffffffffff1681526020019081526020016000206000905583600b811115611d5357611d526124cc565b5b7f7b6a88788d803426ff95d36e138a720a096f5ed87db57b8769671de23212609a84604051611d8291906124b1565b60405180910390a250505050565b611d98611f49565b73ffffffffffffffffffffffffffffffffffffffff16611db6611851565b73ffffffffffffffffffffffffffffffffffffffff1614611e0c576040517f08c379a0000000000000000000000000000000000000000000000000000000008152600401611e0390612744565b60405180910390fd5b600073ffffffffffffffffffffffffffffffffffffffff168173ffffffffffffffffffffffffffffffffffffffff161415611e7c576040517f08c379a0000000000000000000000000000000000000000000000000000000008152600401611e7390612eb8565b60405180910390fd5b611e8581611f93565b50565b6003602052816000526040600020602052806000526040600020600091509150505481565b60008183611ebb9190612ed8565b905092915050565b611f448363a9059cbb60e01b8484604051602401611ee2929190612d8b565b604051602081830303815290604052907bffffffffffffffffffffffffffffffffffffffffffffffffffffffff19166020820180517bffffffffffffffffffffffffffffffffffffffffffffffffffffffff8381831617835250505050612057565b505050565b600033905090565b60008183611f5f9190612f2e565b905092915050565b60008183611f759190612fb7565b905092915050565b60008183611f8b9190612fe8565b905092915050565b60008060009054906101000a900473ffffffffffffffffffffffffffffffffffffffff169050816000806101000a81548173ffffffffffffffffffffffffffffffffffffffff021916908373ffffffffffffffffffffffffffffffffffffffff1602179055508173ffffffffffffffffffffffffffffffffffffffff168173ffffffffffffffffffffffffffffffffffffffff167f8be0079c531659141344cd1fd0a4f28419497f9722a3daafe3b4186f6b6457e060405160405180910390a35050565b60006120b9826040518060400160405280602081526020017f5361666545524332303a206c6f772d6c6576656c2063616c6c206661696c65648152508573ffffffffffffffffffffffffffffffffffffffff1661211e9092919063ffffffff16565b905060008151111561211957808060200190518101906120d99190613048565b612118576040517f08c379a000000000000000000000000000000000000000000000000000000000815260040161210f906130e7565b60405180910390fd5b5b505050565b606061212d8484600085612136565b90509392505050565b60608247101561217b576040517f08c379a000000000000000000000000000000000000000000000000000000000815260040161217290613179565b60405180910390fd5b6121848561224a565b6121c3576040517f08c379a00000000000000000000000000000000000000000000000000000000081526004016121ba906131e5565b60405180910390fd5b6000808673ffffffffffffffffffffffffffffffffffffffff1685876040516121ec919061327f565b60006040518083038185875af1925050503d8060008114612229576040519150601f19603f3d011682016040523d82523d6000602084013e61222e565b606091505b509150915061223e82828661225d565b92505050949350505050565b600080823b905060008111915050919050565b6060831561226d578290506122bd565b6000835111156122805782518084602001fd5b816040517f08c379a00000000000000000000000000000000000000000000000000000000081526004016122b491906132eb565b60405180910390fd5b9392505050565b6000819050919050565b6122d7816122c4565b82525050565b60006020820190506122f260008301846122ce565b92915050565b600080fd5b600c811061230a57600080fd5b50565b60008135905061231c816122fd565b92915050565b600060208284031215612338576123376122f8565b5b60006123468482850161230d565b91505092915050565b60008115159050919050565b6123648161234f565b82525050565b600060208201905061237f600083018461235b565b92915050565b600073ffffffffffffffffffffffffffffffffffffffff82169050919050565b60006123b082612385565b9050919050565b6123c0816123a5565b81146123cb57600080fd5b50565b6000813590506123dd816123b7565b92915050565b6123ec816122c4565b81146123f757600080fd5b50565b600081359050612409816123e3565b92915050565b600080600060608486031215612428576124276122f8565b5b60006124368682870161230d565b9350506020612447868287016123ce565b9250506040612458868287016123fa565b9150509250925092565b60008060408385031215612479576124786122f8565b5b60006124878582860161230d565b9250506020612498858286016123fa565b9150509250929050565b6124ab816123a5565b82525050565b60006020820190506124c660008301846124a2565b92915050565b7f4e487b7100000000000000000000000000000000000000000000000000000000600052602160045260246000fd5b600c811061250c5761250b6124cc565b5b50565b600081905061251d826124fb565b919050565b600061252d8261250f565b9050919050565b61253d81612522565b82525050565b600060a0820190506125586000830188612534565b61256560208301876122ce565b61257260408301866122ce565b61257f60608301856122ce565b61258c60808301846122ce565b9695505050505050565b600080604083850312156125ad576125ac6122f8565b5b60006125bb8582860161230d565b92505060206125cc858286016123ce565b9150509250929050565b6000602082840312156125ec576125eb6122f8565b5b60006125fa848285016123ce565b91505092915050565b7f4e487b7100000000000000000000000000000000000000000000000000000000600052601160045260246000fd5b600061263d826122c4565b91507fffffffffffffffffffffffffffffffffffffffffffffffffffffffffffffffff8214156126705761266f612603565b5b600182019050919050565b600082825260208201905092915050565b7f4e6f20746f6b656e7320746f2077697468647261770000000000000000000000600082015250565b60006126c260158361267b565b91506126cd8261268c565b602082019050919050565b600060208201905081810360008301526126f1816126b5565b9050919050565b7f4f776e61626c653a2063616c6c6572206973206e6f7420746865206f776e6572600082015250565b600061272e60208361267b565b9150612739826126f8565b602082019050919050565b6000602082019050818103600083015261275d81612721565b9050919050565b7f496e76616c69642062656e656669636961727920616464726573730000000000600082015250565b600061279a601b8361267b565b91506127a582612764565b602082019050919050565b600060208201905081810360008301526127c98161278d565b9050919050565b7f4e6f20746f6b656e7320616c6c6f747465640000000000000000000000000000600082015250565b600061280660128361267b565b9150612811826127d0565b602082019050919050565b60006020820190508181036000830152612835816127f9565b9050919050565b7f42656e6566696369617279206e6f7420696e20706f6f6c000000000000000000600082015250565b600061287260178361267b565b915061287d8261283c565b602082019050919050565b600060208201905081810360008301526128a181612865565b9050919050565b7f42656e6566696369617279206861732077697468647261776e206d6f7265207460008201527f68616e207468652064656372656173656420616c6c6f746d656e740000000000602082015250565b6000612904603b8361267b565b915061290f826128a8565b604082019050919050565b60006020820190508181036000830152612933816128f7565b9050919050565b7f43616e6e6f7420616c6c6f74206d6f7265207468616e206d617820706f6f6c2060008201527f616c6c6f746d656e740000000000000000000000000000000000000000000000602082015250565b600061299660298361267b565b91506129a18261293a565b604082019050919050565b600060208201905081810360008301526129c581612989565b9050919050565b60006060820190506129e160008301866124a2565b6129ee60208301856122ce565b6129fb60408301846122ce565b949350505050565b7f456d7074792069737375616e636520616d6f756e740000000000000000000000600082015250565b6000612a3960158361267b565b9150612a4482612a03565b602082019050919050565b60006020820190508181036000830152612a6881612a2c565b9050919050565b600081519050612a7e816123e3565b92915050565b600060208284031215612a9a57612a996122f8565b5b6000612aa884828501612a6f565b91505092915050565b7f436f6e747261637420646f65736e74206861766520656e6f7567682062616c6160008201527f6e63650000000000000000000000000000000000000000000000000000000000602082015250565b6000612b0d60238361267b565b9150612b1882612ab1565b604082019050919050565b60006020820190508181036000830152612b3c81612b00565b9050919050565b7f43616e6e6f74206973737565206d6f7265207468616e20706f6f6c20616c6c6f60008201527f746d656e74000000000000000000000000000000000000000000000000000000602082015250565b6000612b9f60258361267b565b9150612baa82612b43565b604082019050919050565b60006020820190508181036000830152612bce81612b92565b9050919050565b7f436f6e747261637420646f65736e2774206861766520656e6f7567682065786360008201527f65737320746f6b656e7320746f207265636f7665720000000000000000000000602082015250565b6000612c3160358361267b565b9150612c3c82612bd5565b604082019050919050565b60006020820190508181036000830152612c6081612c24565b9050919050565b7f42656e656669636961727920616c72656164792065786973747320696e20706f60008201527f6f6c000000000000000000000000000000000000000000000000000000000000602082015250565b6000612cc360228361267b565b9150612cce82612c67565b604082019050919050565b60006020820190508181036000830152612cf281612cb6565b9050919050565b7f546f74616c20616c6c6f746d656e742063616e6e6f7420657863656564206d6160008201527f7820706f6f6c20616c6c6f746d656e7400000000000000000000000000000000602082015250565b6000612d5560308361267b565b9150612d6082612cf9565b604082019050919050565b60006020820190508181036000830152612d8481612d48565b9050919050565b6000604082019050612da060008301856124a2565b612dad60208301846122ce565b9392505050565b7f43616e6e6f742072656d6f76652062656e65666963696172792077686963682060008201527f616c726561647920776974686472657720746f6b656e73000000000000000000602082015250565b6000612e1060378361267b565b9150612e1b82612db4565b604082019050919050565b60006020820190508181036000830152612e3f81612e03565b9050919050565b7f4f776e61626c653a206e6577206f776e657220697320746865207a65726f206160008201527f6464726573730000000000000000000000000000000000000000000000000000602082015250565b6000612ea260268361267b565b9150612ead82612e46565b604082019050919050565b60006020820190508181036000830152612ed181612e95565b9050919050565b6000612ee3826122c4565b9150612eee836122c4565b9250827fffffffffffffffffffffffffffffffffffffffffffffffffffffffffffffffff03821115612f2357612f22612603565b5b828201905092915050565b6000612f39826122c4565b9150612f44836122c4565b9250817fffffffffffffffffffffffffffffffffffffffffffffffffffffffffffffffff0483118215151615612f7d57612f7c612603565b5b828202905092915050565b7f4e487b7100000000000000000000000000000000000000000000000000000000600052601260045260246000fd5b6000612fc2826122c4565b9150612fcd836122c4565b925082612fdd57612fdc612f88565b5b828204905092915050565b6000612ff3826122c4565b9150612ffe836122c4565b92508282101561301157613010612603565b5b828203905092915050565b6130258161234f565b811461303057600080fd5b50565b6000815190506130428161301c565b92915050565b60006020828403121561305e5761305d6122f8565b5b600061306c84828501613033565b91505092915050565b7f5361666545524332303a204552433230206f7065726174696f6e20646964206e60008201527f6f74207375636365656400000000000000000000000000000000000000000000602082015250565b60006130d1602a8361267b565b91506130dc82613075565b604082019050919050565b60006020820190508181036000830152613100816130c4565b9050919050565b7f416464726573733a20696e73756666696369656e742062616c616e636520666f60008201527f722063616c6c0000000000000000000000000000000000000000000000000000602082015250565b600061316360268361267b565b915061316e82613107565b604082019050919050565b6000602082019050818103600083015261319281613156565b9050919050565b7f416464726573733a2063616c6c20746f206e6f6e2d636f6e7472616374000000600082015250565b60006131cf601d8361267b565b91506131da82613199565b602082019050919050565b600060208201905081810360008301526131fe816131c2565b9050919050565b600081519050919050565b600081905092915050565b60005b8381101561323957808201518184015260208101905061321e565b83811115613248576000848401525b50505050565b600061325982613205565b6132638185613210565b935061327381856020860161321b565b80840191505092915050565b600061328b828461324e565b915081905092915050565b600081519050919050565b6000601f19601f8301169050919050565b60006132bd82613296565b6132c7818561267b565b93506132d781856020860161321b565b6132e0816132a1565b840191505092915050565b6000602082019050818103600083015261330581846132b2565b90509291505056fea264697066735822122079a57b88640c1143078832b75bf588c62b61efe05e6b0859a7d6ceb0d2ad00ee64736f6c63430008090033",
  "immutableReferences": {},
  "source": "// SPDX-License-Identifier: MIT\n\npragma solidity 0.8.9;\n\nimport \"@openzeppelin/contracts/token/ERC20/utils/SafeERC20.sol\";\nimport \"@openzeppelin/contracts/access/Ownable.sol\";\nimport \"@openzeppelin/contracts/utils/math/SafeMath.sol\";\n\n/**\n @title Contract to issue tokens according to distribution pools.\n @dev Adds the tokens to be issued, add the beneficiaries\n */\ncontract FanTokenIssuance is Ownable {\n    using SafeMath for uint256;\n    using SafeERC20 for IERC20;\n\n    enum DistributionType {\n        TEAM,\n        SEED,\n        STRATEGIC,\n        PRIVATE1,\n        PRIVATE2,\n        PUBLIC,\n        ADVISORS,\n        LIQUIDITY,\n        REWARDS,\n        MARKETING,\n        RESERVES,\n        ECOSYSTEM\n    }\n\n    event IssuanceAdded(\n        DistributionType indexed poolType,\n        uint256 issuedAmount\n    );\n\n    event BeneficiaryAdded(\n        DistributionType indexed poolType,\n        address beneficiary,\n        uint256 beneficiaryAllotment\n    );\n\n    event BeneficiaryAllotmentModified(\n        DistributionType indexed poolType,\n        address beneficiary,\n        uint256 oldBeneficiaryAllotment,\n        uint256 newBeneficiaryAllotment\n    );\n\n    event BeneficiaryRemoved(\n        DistributionType indexed poolType,\n        address beneficiary\n    );\n\n    event PoolTokensWithdrawn(\n        DistributionType indexed poolType,\n        address indexed beneficiary,\n        uint256 withdrawnAmount\n    );\n\n    event TokensWithdrawn(address indexed beneficiary, uint256 withdrawnAmount);\n\n    event TokenRecovered(uint256 indexed amount);\n\n    IERC20 private _fanToken;\n\n    /**\n      @dev The beneficiaries mapping doesnt give the \n      total beneficiary allotment. So the count is\n      tracked separately. \n     */\n    struct TokenIssuance {\n        mapping(address => uint256) beneficiaries;\n        DistributionType poolType;\n        uint256 totalTokensAllotted;\n        uint256 totalBeneficiaryAllotment;\n        uint256 totalTokensIssued;\n        uint256 totalTokensWithdrawn;\n    }\n\n    mapping(DistributionType => TokenIssuance)\n        public distributionTypeToIssuance;\n\n    mapping(DistributionType => mapping(address => uint256))\n        public distributionTypeToWithdrawals;\n\n    constructor(address _token) {\n        require(\n            address(_token) != address(0x0),\n            \"FAW token address is not valid\"\n        );\n        _fanToken = IERC20(_token);\n\n        _setupIssuance(DistributionType.TEAM, 125000000 * (10**18));\n        _setupIssuance(DistributionType.SEED, 20000000 * (10**18));\n        _setupIssuance(DistributionType.STRATEGIC, 51000000 * (10**18));\n        _setupIssuance(DistributionType.PRIVATE1, 40000000 * (10**18));\n        _setupIssuance(DistributionType.PRIVATE2, 66000000 * (10**18));\n        _setupIssuance(DistributionType.PUBLIC, 23000000 * (10**18));\n        _setupIssuance(DistributionType.ADVISORS, 70000000 * (10**18));\n        _setupIssuance(DistributionType.LIQUIDITY, 20000000 * (10**18));\n        _setupIssuance(DistributionType.REWARDS, 200000000 * (10**18));\n        _setupIssuance(DistributionType.MARKETING, 120000000 * (10**18));\n        _setupIssuance(DistributionType.RESERVES, 135000000 * (10**18));\n        _setupIssuance(DistributionType.ECOSYSTEM, 130000000 * (10**18));\n    }\n\n    /**\n      @dev Initialize the issuance of tokens for a pool by providing\n      the total amount of tokens to be issued\n     */\n    function _setupIssuance(\n        DistributionType _distributionType,\n        uint256 _totalTokensAllotted\n    ) internal onlyOwner returns (bool success) {\n        require(_totalTokensAllotted > 0, \"No tokens allotted\");\n        uint256 totalSupply = _fanToken.totalSupply();\n        require(\n            _totalTokensAllotted <= totalSupply,\n            \"Cannot allot more than total supply\"\n        );\n\n        TokenIssuance storage issuance = distributionTypeToIssuance[\n            _distributionType\n        ];\n        issuance.poolType = _distributionType;\n        issuance.totalTokensAllotted = _totalTokensAllotted;\n\n        return true;\n    }\n\n    /**\n      @dev Adds new issuance to the `_distributionType` pool. This will be called daily\n      @param _distributionType The type of the pool\n      @param _issuanceAmount The amount of tokens to be issued in this batch\n      @return success true if the issuance was added successfully.\n     */\n    function addTokenIssuance(\n        DistributionType _distributionType,\n        uint256 _issuanceAmount\n    ) public onlyOwner returns (bool success) {\n        require(_issuanceAmount > 0, \"Empty issuance amount\");\n        require(\n            _fanToken.balanceOf(address(this)) >= _issuanceAmount,\n            \"Contract doesnt have enough balance\"\n        );\n\n        TokenIssuance storage issuance = distributionTypeToIssuance[\n            _distributionType\n        ];\n\n        require(\n            _issuanceAmount <= issuance.totalTokensAllotted,\n            \"Cannot issue more than pool allotment\"\n        );\n\n        issuance.totalTokensIssued = issuance.totalTokensIssued.add(\n            _issuanceAmount\n        );\n        issuance.poolType = _distributionType;\n\n        emit IssuanceAdded(_distributionType, _issuanceAmount);\n\n        return true;\n    }\n\n    /**\n      Add beneficiary to the `_distributionType` pool.\n      A beneficiary can belong to more than one pool and their\n      balance will be calulated separately\n      @param _beneficiary The beneficiary address\n      @param _distributionType The type of the pool\n      @param _beneficiaryAllotment The total amount in this pool to be allocated to the beneficiary\n    */\n    function addBeneficiary(\n        DistributionType _distributionType,\n        address _beneficiary,\n        uint256 _beneficiaryAllotment\n    ) public onlyOwner returns (bool success) {\n        TokenIssuance storage issuance = distributionTypeToIssuance[\n            _distributionType\n        ];\n        require(_beneficiary != address(0x0), \"Invalid beneficiary address\");\n        require(_beneficiaryAllotment > 0, \"No tokens allotted\");\n        require(\n            issuance.beneficiaries[_beneficiary] == 0,\n            \"Beneficiary already exists in pool\"\n        );\n        require(\n            issuance.totalBeneficiaryAllotment.add(_beneficiaryAllotment) <=\n                issuance.totalTokensAllotted,\n            \"Total allotment cannot exceed max pool allotment\"\n        );\n\n        issuance.beneficiaries[_beneficiary] = _beneficiaryAllotment;\n        issuance.totalBeneficiaryAllotment = issuance\n            .totalBeneficiaryAllotment\n            .add(_beneficiaryAllotment);\n\n        emit BeneficiaryAdded(\n            _distributionType,\n            _beneficiary,\n            _beneficiaryAllotment\n        );\n\n        return true;\n    }\n\n    /**\n      Modify the maximum allotment of a beneficiary in `_distributionType` pool.\n      @dev The beneficiary allotment can be increased in all conditions, but\n      can be decreased only if the beneficiary has not withdrawn more than the\n      proportion of the total tokens calculated according to the decreased allotment. \n      This is to avoid the `Token Misallocation` scenario.\n      `Token Misallocation` scenario:\n        1. A beneficiary B1 is added with an initial allotment. Example: 60%\n        2. Another beneficiary B2 is added with an initial allotment. Example: 40%\n        2. An issuance of 1000 tokens is added and the B1 withdraws\n           600 tokens\n        3. The allotment of B1 is decreased to 50%\n        4. The allotment of B2 is increased to 50%\n        5. B2 now tries to withdraw 500 tokens, but B1 has already withdrawn\n           600 tokens. This will cause the smart contract to throw an error since \n           it doesnt have the required balance to transfer to B2\n      To avoid this scenario, verify that the total withdrawal of B1 is \n      less than 500 tokens in the case of maximum allotment decrease\n      @param _distributionType The type of the pool\n      @param _beneficiary The beneficiary whose allotment is to be modified\n      @param _newBeneficiaryAllotment The new allotment of the beneficiary\n     */\n    function modifyBeneficiaryAllotment(\n        DistributionType _distributionType,\n        address _beneficiary,\n        uint256 _newBeneficiaryAllotment\n    ) public onlyOwner returns (bool success) {\n        TokenIssuance storage issuance = distributionTypeToIssuance[\n            _distributionType\n        ];\n        require(_beneficiary != address(0x0), \"Invalid beneficiary address\");\n        require(_newBeneficiaryAllotment > 0, \"No tokens allotted\");\n        require(\n            issuance.beneficiaries[_beneficiary] > 0,\n            \"Beneficiary not in pool\"\n        );\n\n        uint256 oldBeneficiaryAllotment = issuance.beneficiaries[_beneficiary];\n        if (_newBeneficiaryAllotment < oldBeneficiaryAllotment) {\n            require(\n                distributionTypeToWithdrawals[_distributionType][\n                    _beneficiary\n                ] <=\n                    _newBeneficiaryAllotment\n                        .mul(issuance.totalTokensIssued)\n                        .div(issuance.totalTokensAllotted),\n                \"Beneficiary has withdrawn more than the decreased allotment\"\n            );\n        }\n\n        uint256 newTotalBeneficiaryAllotment = issuance\n            .totalBeneficiaryAllotment\n            .sub(oldBeneficiaryAllotment)\n            .add(_newBeneficiaryAllotment);\n\n        require(\n            newTotalBeneficiaryAllotment <= issuance.totalTokensAllotted,\n            \"Cannot allot more than max pool allotment\"\n        );\n\n        issuance.totalBeneficiaryAllotment = newTotalBeneficiaryAllotment;\n        issuance.beneficiaries[_beneficiary] = _newBeneficiaryAllotment;\n\n        emit BeneficiaryAllotmentModified(\n            _distributionType,\n            _beneficiary,\n            oldBeneficiaryAllotment,\n            _newBeneficiaryAllotment\n        );\n        return true;\n    }\n\n    /**\n      Remove beneficiaries from the `_distributionType` pool.\n      @dev Only beneficiaries who have not withdrawn any tokens\n      can be removed from the pool to avoid the `Token Misallocation` \n      scenario.\n      @param _beneficiary The beneficiary to be removed\n      @param _distributionType The type of the pool\n    */\n    function removeBeneficiary(\n        DistributionType _distributionType,\n        address _beneficiary\n    ) public onlyOwner {\n        TokenIssuance storage issuance = distributionTypeToIssuance[\n            _distributionType\n        ];\n        require(\n            issuance.beneficiaries[_beneficiary] > 0,\n            \"Beneficiary not in pool\"\n        );\n        require(\n            distributionTypeToWithdrawals[_distributionType][_beneficiary] == 0,\n            \"Cannot remove beneficiary which already withdrew tokens\"\n        );\n\n        uint256 beneficiaryAllotment = issuance.beneficiaries[_beneficiary];\n        issuance.totalBeneficiaryAllotment = issuance\n            .totalBeneficiaryAllotment\n            .sub(beneficiaryAllotment);\n        delete issuance.beneficiaries[_beneficiary];\n\n        emit BeneficiaryRemoved(_distributionType, _beneficiary);\n    }\n\n    /**\n      @dev Get withdrawable amount of the requestor in the `_distributionType` pool.\n      The amount withdrawable is proportional to the maximum amount of tokens\n      allocated to the beneficiary. The forumla for the amount withdrawable\n      is provided in the code below.\n      @param _distributionType The type of the pool\n    */\n    function getPoolWithdrawableAmount(DistributionType _distributionType)\n        public\n        view\n        returns (uint256)\n    {\n        uint256 beneficiaryAllotment = distributionTypeToIssuance[\n            _distributionType\n        ].beneficiaries[msg.sender];\n\n        TokenIssuance storage issuance = distributionTypeToIssuance[\n            _distributionType\n        ];\n\n        // Unlocked amount =\n        // (\n        //   (Max Beneficiary Allotment) / (Max Pool Allotment)\n        // ) * (Total Tokens Issued)\n        //\n        // Withdrawable amount =\n        // (Unlocked amount) - (Amount withdrawn)\n        uint256 withdrawableTokens = (\n            (beneficiaryAllotment.mul(issuance.totalTokensIssued)).div(\n                issuance.totalTokensAllotted\n            )\n        ).sub(distributionTypeToWithdrawals[_distributionType][msg.sender]);\n\n        return withdrawableTokens;\n    }\n\n    /**\n      @dev Get withdrawable amount of the requestor across all pools.\n    */\n    function getWithdrawableAmount() public view returns (uint256) {\n        uint256 totalWithdrawableAmount = 0;\n        for (uint256 i = 0; i <= uint256(type(DistributionType).max); i++) {\n            totalWithdrawableAmount = totalWithdrawableAmount.add(\n                getPoolWithdrawableAmount(DistributionType(i))\n            );\n        }\n\n        return totalWithdrawableAmount;\n    }\n\n    /**\n      @dev function to withdraw tokens of the requestor from a pool\n     */\n    function withdrawPoolTokens(DistributionType _distributionType)\n        public\n        payable\n        returns (bool withdrawalSuccess)\n    {\n        uint256 withdrawableAmount = getPoolWithdrawableAmount(\n            _distributionType\n        );\n        uint256 withdrawnAmount = distributionTypeToWithdrawals[\n            _distributionType\n        ][msg.sender];\n\n        distributionTypeToWithdrawals[_distributionType][\n            msg.sender\n        ] = withdrawableAmount.add(withdrawnAmount);\n\n        TokenIssuance storage issuance = distributionTypeToIssuance[\n            _distributionType\n        ];\n\n        issuance.totalTokensWithdrawn = issuance.totalTokensWithdrawn.add(\n            withdrawableAmount\n        );\n\n        require(withdrawableAmount > 0, \"No tokens to withdraw\");\n\n        // Transfer the amount in the end to avoid reentrancy attacks\n        _fanToken.safeTransfer(msg.sender, withdrawableAmount);\n\n        emit PoolTokensWithdrawn(\n            _distributionType,\n            msg.sender,\n            withdrawableAmount\n        );\n\n        return true;\n    }\n\n    function withdrawTokens() public payable returns (bool withdrawalSuccess) {\n        uint256 totalWithdrawableAmount = 0;\n        for (uint256 i = 0; i <= uint256(type(DistributionType).max); i++) {\n            uint256 withdrawableAmount = getPoolWithdrawableAmount(\n                DistributionType(i)\n            );\n            uint256 withdrawnAmount = distributionTypeToWithdrawals[\n                DistributionType(i)\n            ][msg.sender];\n            distributionTypeToWithdrawals[DistributionType(i)][\n                msg.sender\n            ] = withdrawableAmount.add(withdrawnAmount);\n\n            TokenIssuance storage issuance = distributionTypeToIssuance[\n                DistributionType(i)\n            ];\n\n            issuance.totalTokensWithdrawn = issuance.totalTokensWithdrawn.add(\n                withdrawableAmount\n            );\n\n            totalWithdrawableAmount = totalWithdrawableAmount.add(\n                withdrawableAmount\n            );\n        }\n\n        require(totalWithdrawableAmount > 0, \"No tokens to withdraw\");\n\n        // Transfer the amount in the end to avoid reentrancy attacks\n        _fanToken.safeTransfer(msg.sender, totalWithdrawableAmount);\n\n        emit TokensWithdrawn(msg.sender, totalWithdrawableAmount);\n\n        return true;\n    }\n\n    /**\n      @dev Get the amount withdrawn by the requestor from the specified pool\n      @param _distributionType The type of the pool\n     */\n    function getPoolWithdrawnAmount(DistributionType _distributionType)\n        public\n        view\n        returns (uint256)\n    {\n        return distributionTypeToWithdrawals[_distributionType][msg.sender];\n    }\n\n    /**\n      @dev Get the total amount withdrawn by the requestor from all pools\n     */\n    function getWithdrawnAmount() external view returns (uint256) {\n        uint256 totalWithdrawnAmount = 0;\n        for (uint256 i = 0; i <= uint256(type(DistributionType).max); i++) {\n            totalWithdrawnAmount = totalWithdrawnAmount.add(\n                getPoolWithdrawnAmount(DistributionType(i))\n            );\n        }\n        return totalWithdrawnAmount;\n    }\n\n    /**\n      @dev Get the total tokens allotted to requestor in the specified pool\n      @param _distributionType The type of the pool\n   */\n    function getAllotment(DistributionType _distributionType)\n        external\n        view\n        returns (uint256)\n    {\n        return\n            distributionTypeToIssuance[_distributionType].beneficiaries[\n                msg.sender\n            ];\n    }\n\n    /**\n      If any excess tokens are transferred to this contract without \n      adding it to any distribution pool, this function can be used to \n      recover the amount\n     */\n    function recoverExcessTokens() external onlyOwner {\n        uint256 totalAvailableAmount = 0;\n        for (uint256 i = 0; i <= uint256(type(DistributionType).max); i++) {\n            TokenIssuance storage issuance = distributionTypeToIssuance[\n                DistributionType(i)\n            ];\n            totalAvailableAmount = totalAvailableAmount\n                .add(issuance.totalTokensIssued)\n                .sub(issuance.totalTokensWithdrawn);\n        }\n\n        uint256 excessTokens = _fanToken.balanceOf(address(this)).sub(\n            totalAvailableAmount\n        );\n\n        // Make sure that the contract has enough excess tokens to recover\n        require(\n            excessTokens > 0,\n            \"Contract doesn't have enough excess tokens to recover\"\n        );\n\n        // Transfer the amount in the end to avoid reentrancy attacks\n        _fanToken.safeTransfer(_msgSender(), excessTokens);\n\n        emit TokenRecovered(excessTokens);\n    }\n}\n",
  "sourcePath": "/home/ketan/Documents/git/fananywhere/fananywhere-token/truffle/contracts/FanTokenIssuance.sol",
  "compiler": {
    "name": "solc",
    "version": "0.8.9+commit.e5eed63a.Emscripten.clang"
  },
  "schemaVersion": "3.4.3",
  "updatedAt": "2021-11-29T05:19:45.298Z",
  "networkType": "ethereum",
  "devdoc": {
    "details": "Adds the tokens to be issued, add the beneficiaries",
    "kind": "dev",
    "methods": {
      "addBeneficiary(uint8,address,uint256)": {
        "params": {
          "_beneficiary": "The beneficiary address",
          "_beneficiaryAllotment": "The total amount in this pool to be allocated to the beneficiary",
          "_distributionType": "The type of the pool"
        }
      },
      "addTokenIssuance(uint8,uint256)": {
        "details": "Adds new issuance to the `_distributionType` pool. This will be called daily",
        "params": {
          "_distributionType": "The type of the pool",
          "_issuanceAmount": "The amount of tokens to be issued in this batch"
        },
        "returns": {
          "success": "true if the issuance was added successfully."
        }
      },
      "getAllotment(uint8)": {
        "details": "Get the total tokens allotted to requestor in the specified pool",
        "params": {
          "_distributionType": "The type of the pool"
        }
      },
      "getPoolWithdrawableAmount(uint8)": {
        "details": "Get withdrawable amount of the requestor in the `_distributionType` pool. The amount withdrawable is proportional to the maximum amount of tokens allocated to the beneficiary. The forumla for the amount withdrawable is provided in the code below.",
        "params": {
          "_distributionType": "The type of the pool"
        }
      },
      "getPoolWithdrawnAmount(uint8)": {
        "details": "Get the amount withdrawn by the requestor from the specified pool",
        "params": {
          "_distributionType": "The type of the pool"
        }
      },
      "getWithdrawableAmount()": {
        "details": "Get withdrawable amount of the requestor across all pools."
      },
      "getWithdrawnAmount()": {
        "details": "Get the total amount withdrawn by the requestor from all pools"
      },
      "modifyBeneficiaryAllotment(uint8,address,uint256)": {
        "details": "The beneficiary allotment can be increased in all conditions, but can be decreased only if the beneficiary has not withdrawn more than the proportion of the total tokens calculated according to the decreased allotment.  This is to avoid the `Token Misallocation` scenario. `Token Misallocation` scenario: 1. A beneficiary B1 is added with an initial allotment. Example: 60% 2. Another beneficiary B2 is added with an initial allotment. Example: 40% 2. An issuance of 1000 tokens is added and the B1 withdraws 600 tokens 3. The allotment of B1 is decreased to 50% 4. The allotment of B2 is increased to 50% 5. B2 now tries to withdraw 500 tokens, but B1 has already withdrawn 600 tokens. This will cause the smart contract to throw an error since  it doesnt have the required balance to transfer to B2 To avoid this scenario, verify that the total withdrawal of B1 is  less than 500 tokens in the case of maximum allotment decrease",
        "params": {
          "_beneficiary": "The beneficiary whose allotment is to be modified",
          "_distributionType": "The type of the pool",
          "_newBeneficiaryAllotment": "The new allotment of the beneficiary"
        }
      },
      "owner()": {
        "details": "Returns the address of the current owner."
      },
      "removeBeneficiary(uint8,address)": {
        "details": "Only beneficiaries who have not withdrawn any tokens can be removed from the pool to avoid the `Token Misallocation`  scenario.",
        "params": {
          "_beneficiary": "The beneficiary to be removed",
          "_distributionType": "The type of the pool"
        }
      },
      "renounceOwnership()": {
        "details": "Leaves the contract without owner. It will not be possible to call `onlyOwner` functions anymore. Can only be called by the current owner. NOTE: Renouncing ownership will leave the contract without an owner, thereby removing any functionality that is only available to the owner."
      },
      "transferOwnership(address)": {
        "details": "Transfers ownership of the contract to a new account (`newOwner`). Can only be called by the current owner."
      },
      "withdrawPoolTokens(uint8)": {
        "details": "function to withdraw tokens of the requestor from a pool"
      }
    },
    "title": "Contract to issue tokens according to distribution pools.",
    "version": 1
  },
  "userdoc": {
    "kind": "user",
    "methods": {
      "addBeneficiary(uint8,address,uint256)": {
        "notice": "Add beneficiary to the `_distributionType` pool. A beneficiary can belong to more than one pool and their balance will be calulated separately"
      },
      "modifyBeneficiaryAllotment(uint8,address,uint256)": {
        "notice": "Modify the maximum allotment of a beneficiary in `_distributionType` pool."
      },
      "recoverExcessTokens()": {
        "notice": "If any excess tokens are transferred to this contract without  adding it to any distribution pool, this function can be used to  recover the amount"
      },
      "removeBeneficiary(uint8,address)": {
        "notice": "Remove beneficiaries from the `_distributionType` pool."
      }
    },
    "version": 1
  }
}