{
  "contractName": "_FanTokenVesting",
  "abi": [
    {
      "inputs": [
        {
          "internalType": "contract ERC20",
          "name": "_token",
          "type": "address"
        }
      ],
      "stateMutability": "nonpayable",
      "type": "constructor"
    },
    {
      "anonymous": false,
      "inputs": [
        {
          "indexed": false,
          "internalType": "address",
          "name": "multisig",
          "type": "address"
        }
      ],
      "name": "ChangedMultisig",
      "type": "event"
    },
    {
      "anonymous": false,
      "inputs": [
        {
          "indexed": true,
          "internalType": "address",
          "name": "recipient",
          "type": "address"
        },
        {
          "indexed": false,
          "internalType": "uint256",
          "name": "vestingId",
          "type": "uint256"
        }
      ],
      "name": "GrantAdded",
      "type": "event"
    },
    {
      "anonymous": false,
      "inputs": [
        {
          "indexed": false,
          "internalType": "address",
          "name": "recipient",
          "type": "address"
        },
        {
          "indexed": false,
          "internalType": "uint256",
          "name": "amountVested",
          "type": "uint256"
        },
        {
          "indexed": false,
          "internalType": "uint256",
          "name": "amountNotVested",
          "type": "uint256"
        }
      ],
      "name": "GrantRemoved",
      "type": "event"
    },
    {
      "anonymous": false,
      "inputs": [
        {
          "indexed": true,
          "internalType": "address",
          "name": "recipient",
          "type": "address"
        },
        {
          "indexed": false,
          "internalType": "uint256",
          "name": "amountClaimed",
          "type": "uint256"
        }
      ],
      "name": "GrantTokensClaimed",
      "type": "event"
    },
    {
      "anonymous": false,
      "inputs": [
        {
          "indexed": true,
          "internalType": "address",
          "name": "previousOwner",
          "type": "address"
        },
        {
          "indexed": true,
          "internalType": "address",
          "name": "newOwner",
          "type": "address"
        }
      ],
      "name": "OwnershipTransferred",
      "type": "event"
    },
    {
      "inputs": [],
      "name": "fanTokenMultiSig",
      "outputs": [
        {
          "internalType": "address",
          "name": "",
          "type": "address"
        }
      ],
      "stateMutability": "view",
      "type": "function"
    },
    {
      "inputs": [],
      "name": "owner",
      "outputs": [
        {
          "internalType": "address",
          "name": "",
          "type": "address"
        }
      ],
      "stateMutability": "view",
      "type": "function"
    },
    {
      "inputs": [],
      "name": "renounceOwnership",
      "outputs": [],
      "stateMutability": "nonpayable",
      "type": "function"
    },
    {
      "inputs": [],
      "name": "token",
      "outputs": [
        {
          "internalType": "contract ERC20",
          "name": "",
          "type": "address"
        }
      ],
      "stateMutability": "view",
      "type": "function"
    },
    {
      "inputs": [
        {
          "internalType": "uint256",
          "name": "",
          "type": "uint256"
        }
      ],
      "name": "tokenGrants",
      "outputs": [
        {
          "internalType": "uint256",
          "name": "startTime",
          "type": "uint256"
        },
        {
          "internalType": "uint256",
          "name": "amount",
          "type": "uint256"
        },
        {
          "internalType": "uint16",
          "name": "vestingDuration",
          "type": "uint16"
        },
        {
          "internalType": "uint16",
          "name": "vestingCliff",
          "type": "uint16"
        },
        {
          "internalType": "uint16",
          "name": "daysClaimed",
          "type": "uint16"
        },
        {
          "internalType": "uint256",
          "name": "totalClaimed",
          "type": "uint256"
        },
        {
          "internalType": "address",
          "name": "recipient",
          "type": "address"
        }
      ],
      "stateMutability": "view",
      "type": "function"
    },
    {
      "inputs": [],
      "name": "totalVestingCount",
      "outputs": [
        {
          "internalType": "uint256",
          "name": "",
          "type": "uint256"
        }
      ],
      "stateMutability": "view",
      "type": "function"
    },
    {
      "inputs": [
        {
          "internalType": "address",
          "name": "newOwner",
          "type": "address"
        }
      ],
      "name": "transferOwnership",
      "outputs": [],
      "stateMutability": "nonpayable",
      "type": "function"
    },
    {
      "inputs": [
        {
          "internalType": "address",
          "name": "_recipient",
          "type": "address"
        },
        {
          "internalType": "uint256",
          "name": "_startTime",
          "type": "uint256"
        },
        {
          "internalType": "uint256",
          "name": "_amount",
          "type": "uint256"
        },
        {
          "internalType": "uint16",
          "name": "_vestingDurationInDays",
          "type": "uint16"
        },
        {
          "internalType": "uint16",
          "name": "_vestingCliffInDays",
          "type": "uint16"
        }
      ],
      "name": "addTokenGrant",
      "outputs": [],
      "stateMutability": "nonpayable",
      "type": "function"
    },
    {
      "inputs": [
        {
          "internalType": "uint256",
          "name": "_grantId",
          "type": "uint256"
        }
      ],
      "name": "calculateGrantClaim",
      "outputs": [
        {
          "internalType": "uint16",
          "name": "",
          "type": "uint16"
        },
        {
          "internalType": "uint256",
          "name": "",
          "type": "uint256"
        }
      ],
      "stateMutability": "view",
      "type": "function"
    },
    {
      "inputs": [
        {
          "internalType": "uint256",
          "name": "_grantId",
          "type": "uint256"
        }
      ],
      "name": "claimVestedTokens",
      "outputs": [],
      "stateMutability": "nonpayable",
      "type": "function"
    },
    {
      "inputs": [
        {
          "internalType": "uint256",
          "name": "_grantId",
          "type": "uint256"
        }
      ],
      "name": "removeTokenGrant",
      "outputs": [],
      "stateMutability": "nonpayable",
      "type": "function"
    },
    {
      "inputs": [
        {
          "internalType": "uint256",
          "name": "_grantId",
          "type": "uint256"
        }
      ],
      "name": "tokensVestedPerDay",
      "outputs": [
        {
          "internalType": "uint256",
          "name": "",
          "type": "uint256"
        }
      ],
      "stateMutability": "view",
      "type": "function"
    },
    {
      "inputs": [
        {
          "internalType": "address",
          "name": "_newMultisig",
          "type": "address"
        }
      ],
      "name": "changeMultiSig",
      "outputs": [],
      "stateMutability": "nonpayable",
      "type": "function"
    }
  ],
  "bytecode": "0x60806040523480156200001157600080fd5b50604051620022bc380380620022bc833981810160405281019062000037919062000265565b620000576200004b6200011b60201b60201c565b6200012360201b60201c565b600073ffffffffffffffffffffffffffffffffffffffff168173ffffffffffffffffffffffffffffffffffffffff1614156200009257600080fd5b33600460006101000a81548173ffffffffffffffffffffffffffffffffffffffff021916908373ffffffffffffffffffffffffffffffffffffffff16021790555080600160006101000a81548173ffffffffffffffffffffffffffffffffffffffff021916908373ffffffffffffffffffffffffffffffffffffffff1602179055505062000297565b600033905090565b60008060009054906101000a900473ffffffffffffffffffffffffffffffffffffffff169050816000806101000a81548173ffffffffffffffffffffffffffffffffffffffff021916908373ffffffffffffffffffffffffffffffffffffffff1602179055508173ffffffffffffffffffffffffffffffffffffffff168173ffffffffffffffffffffffffffffffffffffffff167f8be0079c531659141344cd1fd0a4f28419497f9722a3daafe3b4186f6b6457e060405160405180910390a35050565b600080fd5b600073ffffffffffffffffffffffffffffffffffffffff82169050919050565b60006200021982620001ec565b9050919050565b60006200022d826200020c565b9050919050565b6200023f8162000220565b81146200024b57600080fd5b50565b6000815190506200025f8162000234565b92915050565b6000602082840312156200027e576200027d620001e7565b5b60006200028e848285016200024e565b91505092915050565b61201580620002a76000396000f3fe608060405234801561001057600080fd5b50600436106100cf5760003560e01c8063715018a61161008c57806399d508c01161006657806399d508c0146101f1578063f09dafb21461020f578063f2fde38b1461023f578063fc0c546a1461025b576100cf565b8063715018a6146101ad5780637935510b146101b75780638da5cb5b146101d3576100cf565b80632902a0ca146100d457806332b1c5b7146100f057806339bb03a5146101215780635ca2fc531461013f5780636f1b526d1461015b5780636fc559bb14610177575b600080fd5b6100ee60048036038101906100e99190611592565b610279565b005b61010a600480360381019061010591906115f5565b610488565b60405161011892919061164e565b60405180910390f35b610129610613565b6040516101369190611686565b60405180910390f35b610159600480360381019061015491906116cd565b610639565b005b610175600480360381019061017091906115f5565b610b47565b005b610191600480360381019061018c91906115f5565b610ef3565b6040516101a49796959493929190611748565b60405180910390f35b6101b5610f7f565b005b6101d160048036038101906101cc91906115f5565b611007565b005b6101db611269565b6040516101e89190611686565b60405180910390f35b6101f9611292565b60405161020691906117b7565b60405180910390f35b610229600480360381019061022491906115f5565b611298565b60405161023691906117b7565b60405180910390f35b61025960048036038101906102549190611592565b6112e5565b005b6102636113dd565b6040516102709190611831565b60405180910390f35b600460009054906101000a900473ffffffffffffffffffffffffffffffffffffffff1673ffffffffffffffffffffffffffffffffffffffff163373ffffffffffffffffffffffffffffffffffffffff1614610309576040517f08c379a0000000000000000000000000000000000000000000000000000000008152600401610300906118a9565b60405180910390fd5b80600073ffffffffffffffffffffffffffffffffffffffff168173ffffffffffffffffffffffffffffffffffffffff161415801561037357503073ffffffffffffffffffffffffffffffffffffffff168173ffffffffffffffffffffffffffffffffffffffff1614155b80156103cd5750600160009054906101000a900473ffffffffffffffffffffffffffffffffffffffff1673ffffffffffffffffffffffffffffffffffffffff168173ffffffffffffffffffffffffffffffffffffffff1614155b61040c576040517f08c379a000000000000000000000000000000000000000000000000000000000815260040161040390611915565b60405180910390fd5b81600460006101000a81548173ffffffffffffffffffffffffffffffffffffffff021916908373ffffffffffffffffffffffffffffffffffffffff1602179055507f1095c9869752f7f59b0736661c1ccc9e0314e35c10af8ee5482f57836852f2078260405161047c9190611686565b60405180910390a15050565b600080600060026000858152602001908152602001600020905080600001546104af611403565b10156104c257600080925092505061060e565b60006104e282600001546104d4611403565b61140b90919063ffffffff16565b905060006104fc620151808361142190919063ffffffff16565b90508260020160029054906101000a900461ffff1661ffff1681101561052b578060009450945050505061060e565b8260020160009054906101000a900461ffff1661ffff1681106105885760006105658460030154856001015461140b90919063ffffffff16565b90508360020160009054906101000a900461ffff1681955095505050505061060e565b60006105b38460020160049054906101000a900461ffff1661ffff168361140b90919063ffffffff16565b905060006105e48560020160009054906101000a900461ffff1661ffff16866001015461142190919063ffffffff16565b905060006105ff828461ffff1661143790919063ffffffff16565b90508281975097505050505050505b915091565b600460009054906101000a900473ffffffffffffffffffffffffffffffffffffffff1681565b600460009054906101000a900473ffffffffffffffffffffffffffffffffffffffff1673ffffffffffffffffffffffffffffffffffffffff163373ffffffffffffffffffffffffffffffffffffffff16146106c9576040517f08c379a00000000000000000000000000000000000000000000000000000000081526004016106c0906118a9565b60405180910390fd5b610e428161ffff161115610712576040517f08c379a000000000000000000000000000000000000000000000000000000000815260040161070990611981565b60405180910390fd5b6123a58261ffff16111561075b576040517f08c379a0000000000000000000000000000000000000000000000000000000008152600401610752906119ed565b60405180910390fd5b8061ffff168261ffff1610156107a6576040517f08c379a000000000000000000000000000000000000000000000000000000000815260040161079d90611a59565b60405180910390fd5b60006107bf8361ffff168561142190919063ffffffff16565b905060008111610804576040517f08c379a00000000000000000000000000000000000000000000000000000000081526004016107fb90611ac5565b60405180910390fd5b600160009054906101000a900473ffffffffffffffffffffffffffffffffffffffff1673ffffffffffffffffffffffffffffffffffffffff166323b872dd600460009054906101000a900473ffffffffffffffffffffffffffffffffffffffff1630876040518463ffffffff1660e01b815260040161088593929190611ae5565b602060405180830381600087803b15801561089f57600080fd5b505af11580156108b3573d6000803e3d6000fd5b505050506040513d601f19601f820116820180604052508101906108d79190611b54565b610916576040517f08c379a000000000000000000000000000000000000000000000000000000000815260040161090d90611bcd565b60405180910390fd5b60006040518060e0016040528060008814610931578761093a565b610939611403565b5b81526020018681526020018561ffff1681526020018461ffff168152602001600061ffff168152602001600081526020018873ffffffffffffffffffffffffffffffffffffffff16815250905080600260006005548152602001908152602001600020600082015181600001556020820151816001015560408201518160020160006101000a81548161ffff021916908361ffff16021790555060608201518160020160026101000a81548161ffff021916908361ffff16021790555060808201518160020160046101000a81548161ffff021916908361ffff16021790555060a0820151816003015560c08201518160040160006101000a81548173ffffffffffffffffffffffffffffffffffffffff021916908373ffffffffffffffffffffffffffffffffffffffff160217905550905050600360008873ffffffffffffffffffffffffffffffffffffffff1673ffffffffffffffffffffffffffffffffffffffff16815260200190815260200160002060055490806001815401808255809150506001900390600052602060002001600090919091909150558673ffffffffffffffffffffffffffffffffffffffff167f9d2a1eab91557a277ec725fe26546609d5a33a550c3f3476982ee177252be8f4600554604051610b1e91906117b7565b60405180910390a260056000815480929190610b3990611c1c565b919050555050505050505050565b600460009054906101000a900473ffffffffffffffffffffffffffffffffffffffff1673ffffffffffffffffffffffffffffffffffffffff163373ffffffffffffffffffffffffffffffffffffffff1614610bd7576040517f08c379a0000000000000000000000000000000000000000000000000000000008152600401610bce906118a9565b60405180910390fd5b600060026000838152602001908152602001600020905060008160040160009054906101000a900473ffffffffffffffffffffffffffffffffffffffff169050600080610c2385610488565b80925081935050506000610c5a82610c4c8760030154886001015461140b90919063ffffffff16565b61140b90919063ffffffff16565b9050600160009054906101000a900473ffffffffffffffffffffffffffffffffffffffff1673ffffffffffffffffffffffffffffffffffffffff1663a9059cbb85846040518363ffffffff1660e01b8152600401610cb9929190611c65565b602060405180830381600087803b158015610cd357600080fd5b505af1158015610ce7573d6000803e3d6000fd5b505050506040513d601f19601f82011682018060405250810190610d0b9190611b54565b610d1457600080fd5b600160009054906101000a900473ffffffffffffffffffffffffffffffffffffffff1673ffffffffffffffffffffffffffffffffffffffff1663a9059cbb600460009054906101000a900473ffffffffffffffffffffffffffffffffffffffff16836040518363ffffffff1660e01b8152600401610d93929190611c65565b602060405180830381600087803b158015610dad57600080fd5b505af1158015610dc1573d6000803e3d6000fd5b505050506040513d601f19601f82011682018060405250810190610de59190611b54565b610dee57600080fd5b600085600001819055506000856001018190555060008560020160006101000a81548161ffff021916908361ffff16021790555060008560020160026101000a81548161ffff021916908361ffff16021790555060008560020160046101000a81548161ffff021916908361ffff1602179055506000856003018190555060008560040160006101000a81548173ffffffffffffffffffffffffffffffffffffffff021916908373ffffffffffffffffffffffffffffffffffffffff1602179055507f8f1462bc75233ee60d368eb1925fc2a7f205e6a8ef562c9bdf9c06db8b41aa76848383604051610ee393929190611c8e565b60405180910390a1505050505050565b60026020528060005260406000206000915090508060000154908060010154908060020160009054906101000a900461ffff16908060020160029054906101000a900461ffff16908060020160049054906101000a900461ffff16908060030154908060040160009054906101000a900473ffffffffffffffffffffffffffffffffffffffff16905087565b610f8761144d565b73ffffffffffffffffffffffffffffffffffffffff16610fa5611269565b73ffffffffffffffffffffffffffffffffffffffff1614610ffb576040517f08c379a0000000000000000000000000000000000000000000000000000000008152600401610ff290611d11565b60405180910390fd5b6110056000611455565b565b60008061101383610488565b80925081935050506000811161105e576040517f08c379a000000000000000000000000000000000000000000000000000000000815260040161105590611d7d565b60405180910390fd5b60006002600085815260200190815260200160002090506110a28361ffff168260020160049054906101000a900461ffff1661ffff1661151990919063ffffffff16565b8160020160046101000a81548161ffff021916908361ffff1602179055506110d782826003015461151990919063ffffffff16565b8160030181905550600160009054906101000a900473ffffffffffffffffffffffffffffffffffffffff1673ffffffffffffffffffffffffffffffffffffffff1663a9059cbb8260040160009054906101000a900473ffffffffffffffffffffffffffffffffffffffff16846040518363ffffffff1660e01b8152600401611160929190611c65565b602060405180830381600087803b15801561117a57600080fd5b505af115801561118e573d6000803e3d6000fd5b505050506040513d601f19601f820116820180604052508101906111b29190611b54565b6111f1576040517f08c379a00000000000000000000000000000000000000000000000000000000081526004016111e890611de9565b60405180910390fd5b8060040160009054906101000a900473ffffffffffffffffffffffffffffffffffffffff1673ffffffffffffffffffffffffffffffffffffffff167fc6cbb4aa8681b18644bf64921eea8f2b9f44cbd58d64fc07a110bfccc20382968360405161125b91906117b7565b60405180910390a250505050565b60008060009054906101000a900473ffffffffffffffffffffffffffffffffffffffff16905090565b60055481565b6000806002600084815260200190815260200160002090506112dd8160020160009054906101000a900461ffff1661ffff16826001015461142190919063ffffffff16565b915050919050565b6112ed61144d565b73ffffffffffffffffffffffffffffffffffffffff1661130b611269565b73ffffffffffffffffffffffffffffffffffffffff1614611361576040517f08c379a000000000000000000000000000000000000000000000000000000000815260040161135890611d11565b60405180910390fd5b600073ffffffffffffffffffffffffffffffffffffffff168173ffffffffffffffffffffffffffffffffffffffff1614156113d1576040517f08c379a00000000000000000000000000000000000000000000000000000000081526004016113c890611e7b565b60405180910390fd5b6113da81611455565b50565b600160009054906101000a900473ffffffffffffffffffffffffffffffffffffffff1681565b600042905090565b600081836114199190611e9b565b905092915050565b6000818361142f9190611efe565b905092915050565b600081836114459190611f2f565b905092915050565b600033905090565b60008060009054906101000a900473ffffffffffffffffffffffffffffffffffffffff169050816000806101000a81548173ffffffffffffffffffffffffffffffffffffffff021916908373ffffffffffffffffffffffffffffffffffffffff1602179055508173ffffffffffffffffffffffffffffffffffffffff168173ffffffffffffffffffffffffffffffffffffffff167f8be0079c531659141344cd1fd0a4f28419497f9722a3daafe3b4186f6b6457e060405160405180910390a35050565b600081836115279190611f89565b905092915050565b600080fd5b600073ffffffffffffffffffffffffffffffffffffffff82169050919050565b600061155f82611534565b9050919050565b61156f81611554565b811461157a57600080fd5b50565b60008135905061158c81611566565b92915050565b6000602082840312156115a8576115a761152f565b5b60006115b68482850161157d565b91505092915050565b6000819050919050565b6115d2816115bf565b81146115dd57600080fd5b50565b6000813590506115ef816115c9565b92915050565b60006020828403121561160b5761160a61152f565b5b6000611619848285016115e0565b91505092915050565b600061ffff82169050919050565b61163981611622565b82525050565b611648816115bf565b82525050565b60006040820190506116636000830185611630565b611670602083018461163f565b9392505050565b61168081611554565b82525050565b600060208201905061169b6000830184611677565b92915050565b6116aa81611622565b81146116b557600080fd5b50565b6000813590506116c7816116a1565b92915050565b600080600080600060a086880312156116e9576116e861152f565b5b60006116f78882890161157d565b9550506020611708888289016115e0565b9450506040611719888289016115e0565b935050606061172a888289016116b8565b925050608061173b888289016116b8565b9150509295509295909350565b600060e08201905061175d600083018a61163f565b61176a602083018961163f565b6117776040830188611630565b6117846060830187611630565b6117916080830186611630565b61179e60a083018561163f565b6117ab60c0830184611677565b98975050505050505050565b60006020820190506117cc600083018461163f565b92915050565b6000819050919050565b60006117f76117f26117ed84611534565b6117d2565b611534565b9050919050565b6000611809826117dc565b9050919050565b600061181b826117fe565b9050919050565b61182b81611810565b82525050565b60006020820190506118466000830184611822565b92915050565b600082825260208201905092915050565b7f6e6f74206f776e65720000000000000000000000000000000000000000000000600082015250565b600061189360098361184c565b915061189e8261185d565b602082019050919050565b600060208201905081810360008301526118c281611886565b9050919050565b7f6e6f742076616c6964205f726563697069656e74000000000000000000000000600082015250565b60006118ff60148361184c565b915061190a826118c9565b602082019050919050565b6000602082019050818103600083015261192e816118f2565b9050919050565b7f6d6f7265207468616e2031302079656172730000000000000000000000000000600082015250565b600061196b60128361184c565b915061197682611935565b602082019050919050565b6000602082019050818103600083015261199a8161195e565b9050919050565b7f6d6f7265207468616e2032352079656172730000000000000000000000000000600082015250565b60006119d760128361184c565b91506119e2826119a1565b602082019050919050565b60006020820190508181036000830152611a06816119ca565b9050919050565b7f4475726174696f6e203c20436c69666600000000000000000000000000000000600082015250565b6000611a4360108361184c565b9150611a4e82611a0d565b602082019050919050565b60006020820190508181036000830152611a7281611a36565b9050919050565b7f616d6f756e74566573746564506572446179203e203000000000000000000000600082015250565b6000611aaf60168361184c565b9150611aba82611a79565b602082019050919050565b60006020820190508181036000830152611ade81611aa2565b9050919050565b6000606082019050611afa6000830186611677565b611b076020830185611677565b611b14604083018461163f565b949350505050565b60008115159050919050565b611b3181611b1c565b8114611b3c57600080fd5b50565b600081519050611b4e81611b28565b92915050565b600060208284031215611b6a57611b6961152f565b5b6000611b7884828501611b3f565b91505092915050565b7f7472616e73666572206661696c65640000000000000000000000000000000000600082015250565b6000611bb7600f8361184c565b9150611bc282611b81565b602082019050919050565b60006020820190508181036000830152611be681611baa565b9050919050565b7f4e487b7100000000000000000000000000000000000000000000000000000000600052601160045260246000fd5b6000611c27826115bf565b91507fffffffffffffffffffffffffffffffffffffffffffffffffffffffffffffffff821415611c5a57611c59611bed565b5b600182019050919050565b6000604082019050611c7a6000830185611677565b611c87602083018461163f565b9392505050565b6000606082019050611ca36000830186611677565b611cb0602083018561163f565b611cbd604083018461163f565b949350505050565b7f4f776e61626c653a2063616c6c6572206973206e6f7420746865206f776e6572600082015250565b6000611cfb60208361184c565b9150611d0682611cc5565b602082019050919050565b60006020820190508181036000830152611d2a81611cee565b9050919050565b7f616d6f756e745665737465642069732030000000000000000000000000000000600082015250565b6000611d6760118361184c565b9150611d7282611d31565b602082019050919050565b60006020820190508181036000830152611d9681611d5a565b9050919050565b7f6e6f20746f6b656e730000000000000000000000000000000000000000000000600082015250565b6000611dd360098361184c565b9150611dde82611d9d565b602082019050919050565b60006020820190508181036000830152611e0281611dc6565b9050919050565b7f4f776e61626c653a206e6577206f776e657220697320746865207a65726f206160008201527f6464726573730000000000000000000000000000000000000000000000000000602082015250565b6000611e6560268361184c565b9150611e7082611e09565b604082019050919050565b60006020820190508181036000830152611e9481611e58565b9050919050565b6000611ea6826115bf565b9150611eb1836115bf565b925082821015611ec457611ec3611bed565b5b828203905092915050565b7f4e487b7100000000000000000000000000000000000000000000000000000000600052601260045260246000fd5b6000611f09826115bf565b9150611f14836115bf565b925082611f2457611f23611ecf565b5b828204905092915050565b6000611f3a826115bf565b9150611f45836115bf565b9250817fffffffffffffffffffffffffffffffffffffffffffffffffffffffffffffffff0483118215151615611f7e57611f7d611bed565b5b828202905092915050565b6000611f94826115bf565b9150611f9f836115bf565b9250827fffffffffffffffffffffffffffffffffffffffffffffffffffffffffffffffff03821115611fd457611fd3611bed565b5b82820190509291505056fea26469706673582212208c6093d95f72d98950488f9f583bbd77a748c954835937efbd46db174494a68964736f6c63430008090033",
  "immutableReferences": {},
  "source": "// SPDX-License-Identifier: MIT\n\npragma solidity ^0.8.0;\n\nimport \"@openzeppelin/contracts/token/ERC20/utils/SafeERC20.sol\";\nimport \"@openzeppelin/contracts/utils/math/SafeMath.sol\";\nimport \"@openzeppelin/contracts/access/Ownable.sol\";\nimport \"@openzeppelin/contracts/access/Ownable.sol\";\nimport \"@openzeppelin/contracts/token/ERC20/IERC20.sol\";\nimport \"@openzeppelin/contracts/token/ERC20/ERC20.sol\";\nimport \"./BokkyPooBahsDateTimeLibrary.sol\";\n\ncontract _FanTokenVesting is Ownable {\n    using SafeMath for uint256;\n    using SafeMath for uint16;\n\n    modifier onlyFanTokenMultiSig() {\n        require(msg.sender == fanTokenMultiSig, \"not owner\");\n        _;\n    }\n\n    modifier onlyValidAddress(address _recipient) {\n        require(\n            _recipient != address(0) &&\n                _recipient != address(this) &&\n                _recipient != address(token),\n            \"not valid _recipient\"\n        );\n        _;\n    }\n\n    uint256 internal constant SECONDS_PER_DAY = 86400;\n\n    struct Grant {\n        uint256 startTime;\n        uint256 amount;\n        uint16 vestingDuration;\n        uint16 vestingCliff;\n        uint16 daysClaimed;\n        uint256 totalClaimed;\n        address recipient;\n    }\n\n    event GrantAdded(address indexed recipient, uint256 vestingId);\n    event GrantTokensClaimed(address indexed recipient, uint256 amountClaimed);\n    event GrantRemoved(\n        address recipient,\n        uint256 amountVested,\n        uint256 amountNotVested\n    );\n    event ChangedMultisig(address multisig);\n\n    ERC20 public token;\n\n    mapping(uint256 => Grant) public tokenGrants;\n    mapping(address => uint256[]) private activeGrants;\n    address public fanTokenMultiSig;\n    uint256 public totalVestingCount;\n\n    constructor(ERC20 _token) public {\n        require(address(_token) != address(0));\n        fanTokenMultiSig = msg.sender;\n        token = _token;\n    }\n\n    function addTokenGrant(\n        address _recipient,\n        uint256 _startTime,\n        uint256 _amount,\n        uint16 _vestingDurationInDays,\n        uint16 _vestingCliffInDays\n    ) external onlyFanTokenMultiSig {\n        require(_vestingCliffInDays <= 10 * 365, \"more than 10 years\");\n        require(_vestingDurationInDays <= 25 * 365, \"more than 25 years\");\n        require(\n            _vestingDurationInDays >= _vestingCliffInDays,\n            \"Duration < Cliff\"\n        );\n\n        uint256 amountVestedPerDay = _amount.div(_vestingDurationInDays);\n        require(amountVestedPerDay > 0, \"amountVestedPerDay > 0\");\n\n        // Transfer the grant tokens under the control of the vesting contract\n        require(\n            token.transferFrom(fanTokenMultiSig, address(this), _amount),\n            \"transfer failed\"\n        );\n\n        Grant memory grant = Grant({\n            startTime: _startTime == 0 ? currentTime() : _startTime,\n            amount: _amount,\n            vestingDuration: _vestingDurationInDays,\n            vestingCliff: _vestingCliffInDays,\n            daysClaimed: 0,\n            totalClaimed: 0,\n            recipient: _recipient\n        });\n        tokenGrants[totalVestingCount] = grant;\n        activeGrants[_recipient].push(totalVestingCount);\n        emit GrantAdded(_recipient, totalVestingCount);\n        totalVestingCount++;\n    }\n\n    // function getActiveGrants(address _recipient) public view returns(uint256[]){\n    //     return activeGrants[_recipient];\n    // }\n\n    /// @notice Calculate the vested and unclaimed months and tokens available for `_grantId` to claim\n    /// Due to rounding errors once grant duration is reached, returns the entire left grant amount\n    /// Returns (0, 0) if cliff has not been reached\n    function calculateGrantClaim(uint256 _grantId)\n        public\n        view\n        returns (uint16, uint256)\n    {\n        Grant storage tokenGrant = tokenGrants[_grantId];\n\n        // For grants created with a future start date, that hasn't been reached, return 0, 0\n        if (currentTime() < tokenGrant.startTime) {\n            return (0, 0);\n        }\n\n        // Check cliff was reached\n        uint256 elapsedTime = currentTime().sub(tokenGrant.startTime);\n        uint256 elapsedDays = elapsedTime.div(SECONDS_PER_DAY);\n\n        if (elapsedDays < tokenGrant.vestingCliff) {\n            return (uint16(elapsedDays), 0);\n        }\n\n        // If over vesting duration, all tokens vested\n        if (elapsedDays >= tokenGrant.vestingDuration) {\n            uint256 remainingGrant = tokenGrant.amount.sub(\n                tokenGrant.totalClaimed\n            );\n            return (tokenGrant.vestingDuration, remainingGrant);\n        } else {\n            uint16 daysVested = uint16(elapsedDays.sub(tokenGrant.daysClaimed));\n            uint256 amountVestedPerDay = tokenGrant.amount.div(\n                uint256(tokenGrant.vestingDuration)\n            );\n            uint256 amountVested = uint256(daysVested.mul(amountVestedPerDay));\n            return (daysVested, amountVested);\n        }\n    }\n\n    /// @notice Allows a grant recipient to claim their vested tokens. Errors if no tokens have vested\n    /// It is advised recipients check they are entitled to claim via `calculateGrantClaim` before calling this\n    function claimVestedTokens(uint256 _grantId) external {\n        uint16 daysVested;\n        uint256 amountVested;\n        (daysVested, amountVested) = calculateGrantClaim(_grantId);\n        require(amountVested > 0, \"amountVested is 0\");\n\n        Grant storage tokenGrant = tokenGrants[_grantId];\n        tokenGrant.daysClaimed = uint16(tokenGrant.daysClaimed.add(daysVested));\n        tokenGrant.totalClaimed = uint256(\n            tokenGrant.totalClaimed.add(amountVested)\n        );\n\n        require(\n            token.transfer(tokenGrant.recipient, amountVested),\n            \"no tokens\"\n        );\n        emit GrantTokensClaimed(tokenGrant.recipient, amountVested);\n    }\n\n    /// @notice Terminate token grant transferring all vested tokens to the `_grantId`\n    /// and returning all non-vested tokens to the FanToken MultiSig\n    /// Secured to the FanToken MultiSig only\n    /// @param _grantId grantId of the token grant recipient\n    function removeTokenGrant(uint256 _grantId) external onlyFanTokenMultiSig {\n        Grant storage tokenGrant = tokenGrants[_grantId];\n        address recipient = tokenGrant.recipient;\n        uint16 daysVested;\n        uint256 amountVested;\n        (daysVested, amountVested) = calculateGrantClaim(_grantId);\n\n        uint256 amountNotVested = (\n            tokenGrant.amount.sub(tokenGrant.totalClaimed)\n        ).sub(amountVested);\n\n        require(token.transfer(recipient, amountVested));\n        require(token.transfer(fanTokenMultiSig, amountNotVested));\n\n        tokenGrant.startTime = 0;\n        tokenGrant.amount = 0;\n        tokenGrant.vestingDuration = 0;\n        tokenGrant.vestingCliff = 0;\n        tokenGrant.daysClaimed = 0;\n        tokenGrant.totalClaimed = 0;\n        tokenGrant.recipient = address(0);\n\n        emit GrantRemoved(recipient, amountVested, amountNotVested);\n    }\n\n    function currentTime() private view returns (uint256) {\n        return block.timestamp;\n    }\n\n    function tokensVestedPerDay(uint256 _grantId)\n        public\n        view\n        returns (uint256)\n    {\n        Grant storage tokenGrant = tokenGrants[_grantId];\n        return tokenGrant.amount.div(uint256(tokenGrant.vestingDuration));\n    }\n\n    function changeMultiSig(address _newMultisig)\n        external\n        onlyFanTokenMultiSig\n        onlyValidAddress(_newMultisig)\n    {\n        fanTokenMultiSig = _newMultisig;\n        emit ChangedMultisig(_newMultisig);\n    }\n}\n",
  "sourcePath": "/home/liveserver/Projects/fantoken/truffle/contracts/_FanTokenVesting.sol",
  "compiler": {
    "name": "solc",
    "version": "0.8.9+commit.e5eed63a.Emscripten.clang"
  },
  "schemaVersion": "3.4.3",
  "updatedAt": "2021-11-22T20:24:29.635Z",
  "devdoc": {
    "kind": "dev",
    "methods": {
      "owner()": {
        "details": "Returns the address of the current owner."
      },
      "removeTokenGrant(uint256)": {
        "params": {
          "_grantId": "grantId of the token grant recipient"
        }
      },
      "renounceOwnership()": {
        "details": "Leaves the contract without owner. It will not be possible to call `onlyOwner` functions anymore. Can only be called by the current owner. NOTE: Renouncing ownership will leave the contract without an owner, thereby removing any functionality that is only available to the owner."
      },
      "transferOwnership(address)": {
        "details": "Transfers ownership of the contract to a new account (`newOwner`). Can only be called by the current owner."
      }
    },
    "version": 1
  },
  "userdoc": {
    "kind": "user",
    "methods": {
      "calculateGrantClaim(uint256)": {
        "notice": "Calculate the vested and unclaimed months and tokens available for `_grantId` to claim Due to rounding errors once grant duration is reached, returns the entire left grant amount Returns (0, 0) if cliff has not been reached"
      },
      "claimVestedTokens(uint256)": {
        "notice": "Allows a grant recipient to claim their vested tokens. Errors if no tokens have vested It is advised recipients check they are entitled to claim via `calculateGrantClaim` before calling this"
      },
      "removeTokenGrant(uint256)": {
        "notice": "Terminate token grant transferring all vested tokens to the `_grantId` and returning all non-vested tokens to the FanToken MultiSig Secured to the FanToken MultiSig only"
      }
    },
    "version": 1
  }
}