{
  "contractName": "ERC20FanToken",
  "abi": [
    {
      "inputs": [],
      "stateMutability": "nonpayable",
      "type": "constructor"
    },
    {
      "anonymous": false,
      "inputs": [
        {
          "indexed": true,
          "internalType": "address",
          "name": "owner",
          "type": "address"
        },
        {
          "indexed": true,
          "internalType": "address",
          "name": "spender",
          "type": "address"
        },
        {
          "indexed": false,
          "internalType": "uint256",
          "name": "value",
          "type": "uint256"
        }
      ],
      "name": "Approval",
      "type": "event"
    },
    {
      "anonymous": false,
      "inputs": [
        {
          "indexed": true,
          "internalType": "address",
          "name": "previousGovernance",
          "type": "address"
        },
        {
          "indexed": true,
          "internalType": "address",
          "name": "newGovernance",
          "type": "address"
        }
      ],
      "name": "GovernanceChanged",
      "type": "event"
    },
    {
      "anonymous": false,
      "inputs": [
        {
          "indexed": true,
          "internalType": "address",
          "name": "token",
          "type": "address"
        },
        {
          "indexed": true,
          "internalType": "address",
          "name": "destination",
          "type": "address"
        },
        {
          "indexed": true,
          "internalType": "uint256",
          "name": "amount",
          "type": "uint256"
        }
      ],
      "name": "RecoverToken",
      "type": "event"
    },
    {
      "anonymous": false,
      "inputs": [
        {
          "indexed": true,
          "internalType": "address",
          "name": "from",
          "type": "address"
        },
        {
          "indexed": true,
          "internalType": "address",
          "name": "to",
          "type": "address"
        },
        {
          "indexed": false,
          "internalType": "uint256",
          "name": "value",
          "type": "uint256"
        }
      ],
      "name": "Transfer",
      "type": "event"
    },
    {
      "inputs": [],
      "name": "DOMAIN_SEPARATOR",
      "outputs": [
        {
          "internalType": "bytes32",
          "name": "",
          "type": "bytes32"
        }
      ],
      "stateMutability": "view",
      "type": "function",
      "constant": true
    },
    {
      "inputs": [],
      "name": "MAX_CAP",
      "outputs": [
        {
          "internalType": "uint256",
          "name": "",
          "type": "uint256"
        }
      ],
      "stateMutability": "view",
      "type": "function",
      "constant": true
    },
    {
      "inputs": [],
      "name": "PERMIT_TYPEHASH",
      "outputs": [
        {
          "internalType": "bytes32",
          "name": "",
          "type": "bytes32"
        }
      ],
      "stateMutability": "view",
      "type": "function",
      "constant": true
    },
    {
      "inputs": [
        {
          "internalType": "address",
          "name": "spender",
          "type": "address"
        },
        {
          "internalType": "uint256",
          "name": "subtractedValue",
          "type": "uint256"
        }
      ],
      "name": "decreaseAllowance",
      "outputs": [
        {
          "internalType": "bool",
          "name": "",
          "type": "bool"
        }
      ],
      "stateMutability": "nonpayable",
      "type": "function"
    },
    {
      "inputs": [],
      "name": "governance",
      "outputs": [
        {
          "internalType": "address",
          "name": "",
          "type": "address"
        }
      ],
      "stateMutability": "view",
      "type": "function",
      "constant": true
    },
    {
      "inputs": [
        {
          "internalType": "address",
          "name": "spender",
          "type": "address"
        },
        {
          "internalType": "uint256",
          "name": "addedValue",
          "type": "uint256"
        }
      ],
      "name": "increaseAllowance",
      "outputs": [
        {
          "internalType": "bool",
          "name": "",
          "type": "bool"
        }
      ],
      "stateMutability": "nonpayable",
      "type": "function"
    },
    {
      "inputs": [
        {
          "internalType": "address",
          "name": "owner",
          "type": "address"
        }
      ],
      "name": "nonces",
      "outputs": [
        {
          "internalType": "uint256",
          "name": "",
          "type": "uint256"
        }
      ],
      "stateMutability": "view",
      "type": "function",
      "constant": true
    },
    {
      "inputs": [
        {
          "internalType": "address",
          "name": "owner",
          "type": "address"
        },
        {
          "internalType": "address",
          "name": "spender",
          "type": "address"
        },
        {
          "internalType": "uint256",
          "name": "amount",
          "type": "uint256"
        },
        {
          "internalType": "uint256",
          "name": "deadline",
          "type": "uint256"
        },
        {
          "internalType": "uint8",
          "name": "v",
          "type": "uint8"
        },
        {
          "internalType": "bytes32",
          "name": "r",
          "type": "bytes32"
        },
        {
          "internalType": "bytes32",
          "name": "s",
          "type": "bytes32"
        }
      ],
      "name": "permit",
      "outputs": [],
      "stateMutability": "nonpayable",
      "type": "function"
    },
    {
      "inputs": [],
      "name": "totalSupply",
      "outputs": [
        {
          "internalType": "uint256",
          "name": "",
          "type": "uint256"
        }
      ],
      "stateMutability": "view",
      "type": "function",
      "constant": true
    },
    {
      "inputs": [],
      "name": "decimals",
      "outputs": [
        {
          "internalType": "uint8",
          "name": "",
          "type": "uint8"
        }
      ],
      "stateMutability": "view",
      "type": "function",
      "constant": true
    },
    {
      "inputs": [],
      "name": "symbol",
      "outputs": [
        {
          "internalType": "string",
          "name": "",
          "type": "string"
        }
      ],
      "stateMutability": "view",
      "type": "function",
      "constant": true
    },
    {
      "inputs": [],
      "name": "name",
      "outputs": [
        {
          "internalType": "string",
          "name": "",
          "type": "string"
        }
      ],
      "stateMutability": "view",
      "type": "function",
      "constant": true
    },
    {
      "inputs": [],
      "name": "getOwner",
      "outputs": [
        {
          "internalType": "address",
          "name": "",
          "type": "address"
        }
      ],
      "stateMutability": "view",
      "type": "function",
      "constant": true
    },
    {
      "inputs": [
        {
          "internalType": "address",
          "name": "account",
          "type": "address"
        }
      ],
      "name": "balanceOf",
      "outputs": [
        {
          "internalType": "uint256",
          "name": "",
          "type": "uint256"
        }
      ],
      "stateMutability": "view",
      "type": "function",
      "constant": true
    },
    {
      "inputs": [
        {
          "internalType": "address",
          "name": "recipient",
          "type": "address"
        },
        {
          "internalType": "uint256",
          "name": "amount",
          "type": "uint256"
        }
      ],
      "name": "transfer",
      "outputs": [
        {
          "internalType": "bool",
          "name": "",
          "type": "bool"
        }
      ],
      "stateMutability": "nonpayable",
      "type": "function"
    },
    {
      "inputs": [
        {
          "internalType": "address",
          "name": "_owner",
          "type": "address"
        },
        {
          "internalType": "address",
          "name": "spender",
          "type": "address"
        }
      ],
      "name": "allowance",
      "outputs": [
        {
          "internalType": "uint256",
          "name": "",
          "type": "uint256"
        }
      ],
      "stateMutability": "view",
      "type": "function",
      "constant": true
    },
    {
      "inputs": [
        {
          "internalType": "address",
          "name": "spender",
          "type": "address"
        },
        {
          "internalType": "uint256",
          "name": "amount",
          "type": "uint256"
        }
      ],
      "name": "approve",
      "outputs": [
        {
          "internalType": "bool",
          "name": "",
          "type": "bool"
        }
      ],
      "stateMutability": "nonpayable",
      "type": "function"
    },
    {
      "inputs": [
        {
          "internalType": "address",
          "name": "sender",
          "type": "address"
        },
        {
          "internalType": "address",
          "name": "recipient",
          "type": "address"
        },
        {
          "internalType": "uint256",
          "name": "amount",
          "type": "uint256"
        }
      ],
      "name": "transferFrom",
      "outputs": [
        {
          "internalType": "bool",
          "name": "",
          "type": "bool"
        }
      ],
      "stateMutability": "nonpayable",
      "type": "function"
    },
    {
      "inputs": [
        {
          "internalType": "address",
          "name": "_governance",
          "type": "address"
        }
      ],
      "name": "setGovernance",
      "outputs": [],
      "stateMutability": "nonpayable",
      "type": "function"
    },
    {
      "inputs": [
        {
          "internalType": "address",
          "name": "token",
          "type": "address"
        },
        {
          "internalType": "address",
          "name": "destination",
          "type": "address"
        },
        {
          "internalType": "uint256",
          "name": "amount",
          "type": "uint256"
        }
      ],
      "name": "recoverToken",
      "outputs": [],
      "stateMutability": "nonpayable",
      "type": "function"
    }
  ],
  "bytecode": "0x60806040523480156200001157600080fd5b506040518060400160405280600881526020017f46616e546f6b656e0000000000000000000000000000000000000000000000008152506040518060400160405280600381526020017f464157000000000000000000000000000000000000000000000000000000000081525081600390805190602001906200009692919062000421565b508060049080519060200190620000af92919062000421565b50505060004690507f8b73c3c69bb8fe3d512ecc4cf759cc79239f7b179b0ffacaa9a75d522b39400f620000e8620001e860201b60201c565b805190602001206040518060400160405280600181526020017f3100000000000000000000000000000000000000000000000000000000000000815250805190602001208330604051602001620001449594939291906200054c565b604051602081830303815290604052805190602001206006819055505033600760006101000a81548173ffffffffffffffffffffffffffffffffffffffff021916908373ffffffffffffffffffffffffffffffffffffffff160217905550620001e2600760009054906101000a900473ffffffffffffffffffffffffffffffffffffffff166b033b2e3c9fd0803ce80000006200020460201b60201c565b6200073a565b6060620001ff6200037d60201b62000dcc1760201c565b905090565b600073ffffffffffffffffffffffffffffffffffffffff168273ffffffffffffffffffffffffffffffffffffffff16141562000277576040517f08c379a00000000000000000000000000000000000000000000000000000000081526004016200026e906200060a565b60405180910390fd5b6200028b600083836200041760201b60201c565b80600260008282546200029f91906200065b565b92505081905550806000808473ffffffffffffffffffffffffffffffffffffffff1673ffffffffffffffffffffffffffffffffffffffff1681526020019081526020016000206000828254620002f691906200065b565b925050819055508173ffffffffffffffffffffffffffffffffffffffff16600073ffffffffffffffffffffffffffffffffffffffff167fddf252ad1be2c89b69c2b068fc378daa952ba7f163c4a11628f55a4df523b3ef836040516200035d9190620006b8565b60405180910390a362000379600083836200041c60201b60201c565b5050565b6060600480546200038e9062000704565b80601f0160208091040260200160405190810160405280929190818152602001828054620003bc9062000704565b80156200040d5780601f10620003e1576101008083540402835291602001916200040d565b820191906000526020600020905b815481529060010190602001808311620003ef57829003601f168201915b5050505050905090565b505050565b505050565b8280546200042f9062000704565b90600052602060002090601f0160209004810192826200045357600085556200049f565b82601f106200046e57805160ff19168380011785556200049f565b828001600101855582156200049f579182015b828111156200049e57825182559160200191906001019062000481565b5b509050620004ae9190620004b2565b5090565b5b80821115620004cd576000816000905550600101620004b3565b5090565b6000819050919050565b620004e681620004d1565b82525050565b6000819050919050565b6200050181620004ec565b82525050565b600073ffffffffffffffffffffffffffffffffffffffff82169050919050565b6000620005348262000507565b9050919050565b620005468162000527565b82525050565b600060a082019050620005636000830188620004db565b620005726020830187620004db565b620005816040830186620004db565b620005906060830185620004f6565b6200059f60808301846200053b565b9695505050505050565b600082825260208201905092915050565b7f45524332303a206d696e7420746f20746865207a65726f206164647265737300600082015250565b6000620005f2601f83620005a9565b9150620005ff82620005ba565b602082019050919050565b600060208201905081810360008301526200062581620005e3565b9050919050565b7f4e487b7100000000000000000000000000000000000000000000000000000000600052601160045260246000fd5b60006200066882620004ec565b91506200067583620004ec565b9250827fffffffffffffffffffffffffffffffffffffffffffffffffffffffffffffffff03821115620006ad57620006ac6200062c565b5b828201905092915050565b6000602082019050620006cf6000830184620004f6565b92915050565b7f4e487b7100000000000000000000000000000000000000000000000000000000600052602260045260246000fd5b600060028204905060018216806200071d57607f821691505b60208210811415620007345762000733620006d5565b5b50919050565b61225f806200074a6000396000f3fe608060405234801561001057600080fd5b506004361061012c5760003560e01c80637ecebe00116100ad578063a9059cbb11610071578063a9059cbb1461035d578063ab033ea91461038d578063d505accf146103a9578063d669e1d4146103c5578063dd62ed3e146103e35761012c565b80637ecebe00146102a5578063893d20e8146102d557806395d89b41146102f3578063a457c2d714610311578063a7229fd9146103415761012c565b8063313ce567116100f4578063313ce567146101eb5780633644e5151461020957806339509351146102275780635aa6e6751461025757806370a08231146102755761012c565b806306fdde0314610131578063095ea7b31461014f57806318160ddd1461017f57806323b872dd1461019d57806330adf81f146101cd575b600080fd5b610139610413565b604051610146919061158f565b60405180910390f35b6101696004803603810190610164919061164a565b610422565b60405161017691906116a5565b60405180910390f35b610187610436565b60405161019491906116cf565b60405180910390f35b6101b760048036038101906101b291906116ea565b610445565b6040516101c491906116a5565b60405180910390f35b6101d561045b565b6040516101e29190611756565b60405180910390f35b6101f3610482565b604051610200919061178d565b60405180910390f35b610211610491565b60405161021e9190611756565b60405180910390f35b610241600480360381019061023c919061164a565b610497565b60405161024e91906116a5565b60405180910390f35b61025f610543565b60405161026c91906117b7565b60405180910390f35b61028f600480360381019061028a91906117d2565b610569565b60405161029c91906116cf565b60405180910390f35b6102bf60048036038101906102ba91906117d2565b61057b565b6040516102cc91906116cf565b60405180910390f35b6102dd6105cb565b6040516102ea91906117b7565b60405180910390f35b6102fb6105f5565b604051610308919061158f565b60405180910390f35b61032b6004803603810190610326919061164a565b610604565b60405161033891906116a5565b60405180910390f35b61035b600480360381019061035691906116ea565b6106ef565b005b6103776004803603810190610372919061164a565b61098a565b60405161038491906116a5565b60405180910390f35b6103a760048036038101906103a291906117d2565b61099e565b005b6103c360048036038101906103be9190611857565b610b3c565b005b6103cd610da8565b6040516103da91906116cf565b60405180910390f35b6103fd60048036038101906103f891906118f9565b610db8565b60405161040a91906116cf565b60405180910390f35b606061041d610dcc565b905090565b600061042e8383610e5e565b905092915050565b6000610440610e7c565b905090565b6000610452848484610e86565b90509392505050565b7f6e71edae12b1b97f4d1f60370fef10105fa2faae0126114a169c64845d6126c960001b81565b600061048c610f7e565b905090565b60065481565b60006105396104a4610f87565b8484600160006104b2610f87565b73ffffffffffffffffffffffffffffffffffffffff1673ffffffffffffffffffffffffffffffffffffffff16815260200190815260200160002060008873ffffffffffffffffffffffffffffffffffffffff1673ffffffffffffffffffffffffffffffffffffffff168152602001908152602001600020546105349190611968565b610f8f565b6001905092915050565b600760009054906101000a900473ffffffffffffffffffffffffffffffffffffffff1681565b60006105748261115a565b9050919050565b60006105c4600560008473ffffffffffffffffffffffffffffffffffffffff1673ffffffffffffffffffffffffffffffffffffffff1681526020019081526020016000206111a2565b9050919050565b6000600760009054906101000a900473ffffffffffffffffffffffffffffffffffffffff16905090565b60606105ff610dcc565b905090565b60008060016000610613610f87565b73ffffffffffffffffffffffffffffffffffffffff1673ffffffffffffffffffffffffffffffffffffffff16815260200190815260200160002060008573ffffffffffffffffffffffffffffffffffffffff1673ffffffffffffffffffffffffffffffffffffffff168152602001908152602001600020549050828110156106d0576040517f08c379a00000000000000000000000000000000000000000000000000000000081526004016106c790611a30565b60405180910390fd5b6106e46106db610f87565b85858403610f8f565b600191505092915050565b600760009054906101000a900473ffffffffffffffffffffffffffffffffffffffff1673ffffffffffffffffffffffffffffffffffffffff163373ffffffffffffffffffffffffffffffffffffffff161461077f576040517f08c379a000000000000000000000000000000000000000000000000000000000815260040161077690611a9c565b60405180910390fd5b8173ffffffffffffffffffffffffffffffffffffffff168373ffffffffffffffffffffffffffffffffffffffff1614156107ee576040517f08c379a00000000000000000000000000000000000000000000000000000000081526004016107e590611b08565b60405180910390fd5b600073ffffffffffffffffffffffffffffffffffffffff168273ffffffffffffffffffffffffffffffffffffffff16141561085e576040517f08c379a000000000000000000000000000000000000000000000000000000000815260040161085590611b08565b60405180910390fd5b8273ffffffffffffffffffffffffffffffffffffffff1663a9059cbb83836040518363ffffffff1660e01b8152600401610899929190611b28565b602060405180830381600087803b1580156108b357600080fd5b505af11580156108c7573d6000803e3d6000fd5b505050506040513d601f19601f820116820180604052508101906108eb9190611b7d565b61092a576040517f08c379a000000000000000000000000000000000000000000000000000000000815260040161092190611bf6565b60405180910390fd5b808273ffffffffffffffffffffffffffffffffffffffff168473ffffffffffffffffffffffffffffffffffffffff167f16a1412f01b73c390eb2548427101644aa86c1443c272f73df00fb74c48fe49960405160405180910390a4505050565b600061099683836111b0565b905092915050565b600760009054906101000a900473ffffffffffffffffffffffffffffffffffffffff1673ffffffffffffffffffffffffffffffffffffffff163373ffffffffffffffffffffffffffffffffffffffff1614610a2e576040517f08c379a0000000000000000000000000000000000000000000000000000000008152600401610a2590611a9c565b60405180910390fd5b600073ffffffffffffffffffffffffffffffffffffffff168173ffffffffffffffffffffffffffffffffffffffff161415610a9e576040517f08c379a0000000000000000000000000000000000000000000000000000000008152600401610a9590611b08565b60405180910390fd5b8073ffffffffffffffffffffffffffffffffffffffff163373ffffffffffffffffffffffffffffffffffffffff167f3aaaebeb4821d6a7e5c77ece53cff0afcc56c82add2c978dbbb7f73e84cbcfd260405160405180910390a380600760006101000a81548173ffffffffffffffffffffffffffffffffffffffff021916908373ffffffffffffffffffffffffffffffffffffffff16021790555050565b83421115610b7f576040517f08c379a0000000000000000000000000000000000000000000000000000000008152600401610b7690611c62565b60405180910390fd5b60007f6e71edae12b1b97f4d1f60370fef10105fa2faae0126114a169c64845d6126c960001b888888610bef600560008e73ffffffffffffffffffffffffffffffffffffffff1673ffffffffffffffffffffffffffffffffffffffff1681526020019081526020016000206111a2565b89604051602001610c0596959493929190611c82565b604051602081830303815290604052805190602001209050600061190160065483604051602001610c3893929190611d48565b604051602081830303815290604052805190602001209050600060018287878760405160008152602001604052604051610c759493929190611d85565b6020604051602081039080840390855afa158015610c97573d6000803e3d6000fd5b505050602060405103519050600073ffffffffffffffffffffffffffffffffffffffff168173ffffffffffffffffffffffffffffffffffffffff1614158015610d0b57508973ffffffffffffffffffffffffffffffffffffffff168173ffffffffffffffffffffffffffffffffffffffff16145b610d4a576040517f08c379a0000000000000000000000000000000000000000000000000000000008152600401610d4190611e3c565b60405180910390fd5b610d91600560008c73ffffffffffffffffffffffffffffffffffffffff1673ffffffffffffffffffffffffffffffffffffffff1681526020019081526020016000206111ce565b610d9c8a8a8a610f8f565b50505050505050505050565b6b033b2e3c9fd0803ce800000081565b6000610dc483836111e4565b905092915050565b606060048054610ddb90611e8b565b80601f0160208091040260200160405190810160405280929190818152602001828054610e0790611e8b565b8015610e545780601f10610e2957610100808354040283529160200191610e54565b820191906000526020600020905b815481529060010190602001808311610e3757829003601f168201915b5050505050905090565b6000610e72610e6b610f87565b8484610f8f565b6001905092915050565b6000600254905090565b6000610e9384848461126b565b6000600160008673ffffffffffffffffffffffffffffffffffffffff1673ffffffffffffffffffffffffffffffffffffffff1681526020019081526020016000206000610ede610f87565b73ffffffffffffffffffffffffffffffffffffffff1673ffffffffffffffffffffffffffffffffffffffff16815260200190815260200160002054905082811015610f5e576040517f08c379a0000000000000000000000000000000000000000000000000000000008152600401610f5590611f2f565b60405180910390fd5b610f7285610f6a610f87565b858403610f8f565b60019150509392505050565b60006012905090565b600033905090565b600073ffffffffffffffffffffffffffffffffffffffff168373ffffffffffffffffffffffffffffffffffffffff161415610fff576040517f08c379a0000000000000000000000000000000000000000000000000000000008152600401610ff690611fc1565b60405180910390fd5b600073ffffffffffffffffffffffffffffffffffffffff168273ffffffffffffffffffffffffffffffffffffffff16141561106f576040517f08c379a000000000000000000000000000000000000000000000000000000000815260040161106690612053565b60405180910390fd5b80600160008573ffffffffffffffffffffffffffffffffffffffff1673ffffffffffffffffffffffffffffffffffffffff16815260200190815260200160002060008473ffffffffffffffffffffffffffffffffffffffff1673ffffffffffffffffffffffffffffffffffffffff168152602001908152602001600020819055508173ffffffffffffffffffffffffffffffffffffffff168373ffffffffffffffffffffffffffffffffffffffff167f8c5be1e5ebec7d5bd14f71427d1e84f3dd0314c0f7b2291e5b200ac8c7c3b9258360405161114d91906116cf565b60405180910390a3505050565b60008060008373ffffffffffffffffffffffffffffffffffffffff1673ffffffffffffffffffffffffffffffffffffffff168152602001908152602001600020549050919050565b600081600001549050919050565b60006111c46111bd610f87565b848461126b565b6001905092915050565b6001816000016000828254019250508190555050565b6000600160008473ffffffffffffffffffffffffffffffffffffffff1673ffffffffffffffffffffffffffffffffffffffff16815260200190815260200160002060008373ffffffffffffffffffffffffffffffffffffffff1673ffffffffffffffffffffffffffffffffffffffff16815260200190815260200160002054905092915050565b600073ffffffffffffffffffffffffffffffffffffffff168373ffffffffffffffffffffffffffffffffffffffff1614156112db576040517f08c379a00000000000000000000000000000000000000000000000000000000081526004016112d2906120e5565b60405180910390fd5b600073ffffffffffffffffffffffffffffffffffffffff168273ffffffffffffffffffffffffffffffffffffffff16141561134b576040517f08c379a000000000000000000000000000000000000000000000000000000000815260040161134290612177565b60405180910390fd5b6113568383836114ec565b60008060008573ffffffffffffffffffffffffffffffffffffffff1673ffffffffffffffffffffffffffffffffffffffff168152602001908152602001600020549050818110156113dc576040517f08c379a00000000000000000000000000000000000000000000000000000000081526004016113d390612209565b60405180910390fd5b8181036000808673ffffffffffffffffffffffffffffffffffffffff1673ffffffffffffffffffffffffffffffffffffffff16815260200190815260200160002081905550816000808573ffffffffffffffffffffffffffffffffffffffff1673ffffffffffffffffffffffffffffffffffffffff168152602001908152602001600020600082825461146f9190611968565b925050819055508273ffffffffffffffffffffffffffffffffffffffff168473ffffffffffffffffffffffffffffffffffffffff167fddf252ad1be2c89b69c2b068fc378daa952ba7f163c4a11628f55a4df523b3ef846040516114d391906116cf565b60405180910390a36114e68484846114f1565b50505050565b505050565b505050565b600081519050919050565b600082825260208201905092915050565b60005b83811015611530578082015181840152602081019050611515565b8381111561153f576000848401525b50505050565b6000601f19601f8301169050919050565b6000611561826114f6565b61156b8185611501565b935061157b818560208601611512565b61158481611545565b840191505092915050565b600060208201905081810360008301526115a98184611556565b905092915050565b600080fd5b600073ffffffffffffffffffffffffffffffffffffffff82169050919050565b60006115e1826115b6565b9050919050565b6115f1816115d6565b81146115fc57600080fd5b50565b60008135905061160e816115e8565b92915050565b6000819050919050565b61162781611614565b811461163257600080fd5b50565b6000813590506116448161161e565b92915050565b60008060408385031215611661576116606115b1565b5b600061166f858286016115ff565b925050602061168085828601611635565b9150509250929050565b60008115159050919050565b61169f8161168a565b82525050565b60006020820190506116ba6000830184611696565b92915050565b6116c981611614565b82525050565b60006020820190506116e460008301846116c0565b92915050565b600080600060608486031215611703576117026115b1565b5b6000611711868287016115ff565b9350506020611722868287016115ff565b925050604061173386828701611635565b9150509250925092565b6000819050919050565b6117508161173d565b82525050565b600060208201905061176b6000830184611747565b92915050565b600060ff82169050919050565b61178781611771565b82525050565b60006020820190506117a2600083018461177e565b92915050565b6117b1816115d6565b82525050565b60006020820190506117cc60008301846117a8565b92915050565b6000602082840312156117e8576117e76115b1565b5b60006117f6848285016115ff565b91505092915050565b61180881611771565b811461181357600080fd5b50565b600081359050611825816117ff565b92915050565b6118348161173d565b811461183f57600080fd5b50565b6000813590506118518161182b565b92915050565b600080600080600080600060e0888a031215611876576118756115b1565b5b60006118848a828b016115ff565b97505060206118958a828b016115ff565b96505060406118a68a828b01611635565b95505060606118b78a828b01611635565b94505060806118c88a828b01611816565b93505060a06118d98a828b01611842565b92505060c06118ea8a828b01611842565b91505092959891949750929550565b600080604083850312156119105761190f6115b1565b5b600061191e858286016115ff565b925050602061192f858286016115ff565b9150509250929050565b7f4e487b7100000000000000000000000000000000000000000000000000000000600052601160045260246000fd5b600061197382611614565b915061197e83611614565b9250827fffffffffffffffffffffffffffffffffffffffffffffffffffffffffffffffff038211156119b3576119b2611939565b5b828201905092915050565b7f45524332303a2064656372656173656420616c6c6f77616e63652062656c6f7760008201527f207a65726f000000000000000000000000000000000000000000000000000000602082015250565b6000611a1a602583611501565b9150611a25826119be565b604082019050919050565b60006020820190508181036000830152611a4981611a0d565b9050919050565b7f21676f7665726e616e6365000000000000000000000000000000000000000000600082015250565b6000611a86600b83611501565b9150611a9182611a50565b602082019050919050565b60006020820190508181036000830152611ab581611a79565b9050919050565b7f496e76616c696420616464726573730000000000000000000000000000000000600082015250565b6000611af2600f83611501565b9150611afd82611abc565b602082019050919050565b60006020820190508181036000830152611b2181611ae5565b9050919050565b6000604082019050611b3d60008301856117a8565b611b4a60208301846116c0565b9392505050565b611b5a8161168a565b8114611b6557600080fd5b50565b600081519050611b7781611b51565b92915050565b600060208284031215611b9357611b926115b1565b5b6000611ba184828501611b68565b91505092915050565b7f5265747269657665206661696c65640000000000000000000000000000000000600082015250565b6000611be0600f83611501565b9150611beb82611baa565b602082019050919050565b60006020820190508181036000830152611c0f81611bd3565b9050919050565b7f5065726d69743a206578706972656420646561646c696e650000000000000000600082015250565b6000611c4c601883611501565b9150611c5782611c16565b602082019050919050565b60006020820190508181036000830152611c7b81611c3f565b9050919050565b600060c082019050611c976000830189611747565b611ca460208301886117a8565b611cb160408301876117a8565b611cbe60608301866116c0565b611ccb60808301856116c0565b611cd860a08301846116c0565b979650505050505050565b600061ffff82169050919050565b60008160f01b9050919050565b6000611d0982611cf1565b9050919050565b611d21611d1c82611ce3565b611cfe565b82525050565b6000819050919050565b611d42611d3d8261173d565b611d27565b82525050565b6000611d548286611d10565b600282019150611d648285611d31565b602082019150611d748284611d31565b602082019150819050949350505050565b6000608082019050611d9a6000830187611747565b611da7602083018661177e565b611db46040830185611747565b611dc16060830184611747565b95945050505050565b7f5a65726f537761705065726d69743a20496e76616c6964207369676e6174757260008201527f6500000000000000000000000000000000000000000000000000000000000000602082015250565b6000611e26602183611501565b9150611e3182611dca565b604082019050919050565b60006020820190508181036000830152611e5581611e19565b9050919050565b7f4e487b7100000000000000000000000000000000000000000000000000000000600052602260045260246000fd5b60006002820490506001821680611ea357607f821691505b60208210811415611eb757611eb6611e5c565b5b50919050565b7f45524332303a207472616e7366657220616d6f756e742065786365656473206160008201527f6c6c6f77616e6365000000000000000000000000000000000000000000000000602082015250565b6000611f19602883611501565b9150611f2482611ebd565b604082019050919050565b60006020820190508181036000830152611f4881611f0c565b9050919050565b7f45524332303a20617070726f76652066726f6d20746865207a65726f2061646460008201527f7265737300000000000000000000000000000000000000000000000000000000602082015250565b6000611fab602483611501565b9150611fb682611f4f565b604082019050919050565b60006020820190508181036000830152611fda81611f9e565b9050919050565b7f45524332303a20617070726f766520746f20746865207a65726f20616464726560008201527f7373000000000000000000000000000000000000000000000000000000000000602082015250565b600061203d602283611501565b915061204882611fe1565b604082019050919050565b6000602082019050818103600083015261206c81612030565b9050919050565b7f45524332303a207472616e736665722066726f6d20746865207a65726f20616460008201527f6472657373000000000000000000000000000000000000000000000000000000602082015250565b60006120cf602583611501565b91506120da82612073565b604082019050919050565b600060208201905081810360008301526120fe816120c2565b9050919050565b7f45524332303a207472616e7366657220746f20746865207a65726f206164647260008201527f6573730000000000000000000000000000000000000000000000000000000000602082015250565b6000612161602383611501565b915061216c82612105565b604082019050919050565b6000602082019050818103600083015261219081612154565b9050919050565b7f45524332303a207472616e7366657220616d6f756e742065786365656473206260008201527f616c616e63650000000000000000000000000000000000000000000000000000602082015250565b60006121f3602683611501565b91506121fe82612197565b604082019050919050565b60006020820190508181036000830152612222816121e6565b905091905056fea2646970667358221220ef88d10acf3457dfa0c58cc2124a9929ae2ec6014730035745fe39b4c5cf8c5864736f6c63430008090033",
  "immutableReferences": {},
  "source": "// SPDX-License-Identifier: MIT\n\npragma solidity 0.8.9;\n\nimport \"./ERC20Permit.sol\";\nimport \"./IBEP20.sol\";\n\n/**\n * @dev BEP20 Token Contract\n */\n\ncontract ERC20FanToken is ERC20Permit, IBEP20 {\n    uint256 public constant MAX_CAP = 1000000000 * (10**18); // 1,000,000,000 tokens\n\n    address public governance;\n\n    event RecoverToken(\n        address indexed token,\n        address indexed destination,\n        uint256 indexed amount\n    );\n    event GovernanceChanged(\n        address indexed previousGovernance,\n        address indexed newGovernance\n    );\n\n    modifier onlyGovernance() {\n        require(msg.sender == governance, \"!governance\");\n        _;\n    }\n\n    constructor() ERC20(\"FanToken\", \"FAW\") {\n        governance = msg.sender;\n        _mint(governance, MAX_CAP);\n    }\n\n    function totalSupply()\n        public\n        view\n        override(ERC20, IBEP20)\n        returns (uint256)\n    {\n        return super.totalSupply();\n    }\n\n    function decimals() public view override(ERC20, IBEP20) returns (uint8) {\n        return super.decimals();\n    }\n\n    function symbol()\n        public\n        view\n        override(ERC20, IBEP20)\n        returns (string memory)\n    {\n        return super.symbol();\n    }\n\n    function name()\n        public\n        view\n        override(ERC20, IBEP20)\n        returns (string memory)\n    {\n        return super.symbol();\n    }\n\n    function getOwner() external view override(IBEP20) returns (address) {\n        return governance;\n    }\n\n    function balanceOf(address account)\n        public\n        view\n        override(ERC20, IBEP20)\n        returns (uint256)\n    {\n        return super.balanceOf(account);\n    }\n\n    function transfer(address recipient, uint256 amount)\n        public\n        override(ERC20, IBEP20)\n        returns (bool)\n    {\n        return super.transfer(recipient, amount);\n    }\n\n    function allowance(address _owner, address spender)\n        public\n        view\n        override(ERC20, IBEP20)\n        returns (uint256)\n    {\n        return super.allowance(_owner, spender);\n    }\n\n    function approve(address spender, uint256 amount)\n        public\n        override(ERC20, IBEP20)\n        returns (bool)\n    {\n        return super.approve(spender, amount);\n    }\n\n    function transferFrom(\n        address sender,\n        address recipient,\n        uint256 amount\n    ) public override(ERC20, IBEP20) returns (bool) {\n        return super.transferFrom(sender, recipient, amount);\n    }\n\n    /**\n     * @notice Function to set governance address\n     * Owner is assumed to be governance\n     * @param _governance Address of governance account\n     */\n    function setGovernance(address _governance) external onlyGovernance {\n        require(_governance != address(0), \"Invalid address\");\n        emit GovernanceChanged(msg.sender, _governance);\n        governance = _governance;\n    }\n\n    /**\n     * @notice Function to recover funds\n     * Owner is assumed to be governance or Fantoken trusted party for helping users\n     * @param token Address of token to be rescued\n     * @param destination User address\n     * @param amount Amount of tokens\n     */\n    function recoverToken(\n        address token,\n        address destination,\n        uint256 amount\n    ) external onlyGovernance {\n        require(token != destination, \"Invalid address\");\n        require(destination != address(0), \"Invalid address\");\n        require(IERC20(token).transfer(destination, amount), \"Retrieve failed\");\n        emit RecoverToken(token, destination, amount);\n    }\n}\n",
  "sourcePath": "/home/liveserver/Projects/fantoken/truffle/contracts/ERC20FanToken.sol",
  "compiler": {
    "name": "solc",
    "version": "0.8.9+commit.e5eed63a.Emscripten.clang"
  },
  "schemaVersion": "3.4.3",
  "updatedAt": "2021-11-22T20:30:28.189Z",
  "networkType": "ethereum",
  "devdoc": {
    "details": "BEP20 Token Contract",
    "kind": "dev",
    "methods": {
      "decreaseAllowance(address,uint256)": {
        "details": "Atomically decreases the allowance granted to `spender` by the caller. This is an alternative to {approve} that can be used as a mitigation for problems described in {IERC20-approve}. Emits an {Approval} event indicating the updated allowance. Requirements: - `spender` cannot be the zero address. - `spender` must have allowance for the caller of at least `subtractedValue`."
      },
      "getOwner()": {
        "details": "Returns the bep token owner."
      },
      "increaseAllowance(address,uint256)": {
        "details": "Atomically increases the allowance granted to `spender` by the caller. This is an alternative to {approve} that can be used as a mitigation for problems described in {IERC20-approve}. Emits an {Approval} event indicating the updated allowance. Requirements: - `spender` cannot be the zero address."
      },
      "nonces(address)": {
        "details": "See {IERC2612Permit-nonces}."
      },
      "permit(address,address,uint256,uint256,uint8,bytes32,bytes32)": {
        "details": "See {IERC2612Permit-permit}."
      },
      "recoverToken(address,address,uint256)": {
        "params": {
          "amount": "Amount of tokens",
          "destination": "User address",
          "token": "Address of token to be rescued"
        }
      },
      "setGovernance(address)": {
        "params": {
          "_governance": "Address of governance account"
        }
      }
    },
    "version": 1
  },
  "userdoc": {
    "kind": "user",
    "methods": {
      "recoverToken(address,address,uint256)": {
        "notice": "Function to recover funds Owner is assumed to be governance or Fantoken trusted party for helping users"
      },
      "setGovernance(address)": {
        "notice": "Function to set governance address Owner is assumed to be governance"
      }
    },
    "version": 1
  }
}