{
  "contractName": "FanTokenIssuance",
  "abi": [
    {
      "inputs": [
        {
          "internalType": "address",
          "name": "_token",
          "type": "address"
        }
      ],
      "stateMutability": "nonpayable",
      "type": "constructor"
    },
    {
      "anonymous": false,
      "inputs": [
        {
          "indexed": true,
          "internalType": "enum FanTokenIssuance.DistributionType",
          "name": "poolType",
          "type": "uint8"
        },
        {
          "indexed": false,
          "internalType": "address[]",
          "name": "beneficiaries",
          "type": "address[]"
        }
      ],
      "name": "BeneficiariesAdded",
      "type": "event"
    },
    {
      "anonymous": false,
      "inputs": [
        {
          "indexed": true,
          "internalType": "enum FanTokenIssuance.DistributionType",
          "name": "poolType",
          "type": "uint8"
        },
        {
          "indexed": false,
          "internalType": "address[]",
          "name": "beneficiaries",
          "type": "address[]"
        }
      ],
      "name": "BeneficiariesRemoved",
      "type": "event"
    },
    {
      "anonymous": false,
      "inputs": [
        {
          "indexed": true,
          "internalType": "enum FanTokenIssuance.DistributionType",
          "name": "poolType",
          "type": "uint8"
        },
        {
          "indexed": false,
          "internalType": "uint256",
          "name": "issuedAmount",
          "type": "uint256"
        }
      ],
      "name": "IssuanceAdded",
      "type": "event"
    },
    {
      "anonymous": false,
      "inputs": [
        {
          "indexed": true,
          "internalType": "address",
          "name": "previousOwner",
          "type": "address"
        },
        {
          "indexed": true,
          "internalType": "address",
          "name": "newOwner",
          "type": "address"
        }
      ],
      "name": "OwnershipTransferred",
      "type": "event"
    },
    {
      "anonymous": false,
      "inputs": [
        {
          "indexed": true,
          "internalType": "enum FanTokenIssuance.DistributionType",
          "name": "poolType",
          "type": "uint8"
        },
        {
          "indexed": true,
          "internalType": "address",
          "name": "beneficiary",
          "type": "address"
        },
        {
          "indexed": false,
          "internalType": "uint256",
          "name": "withdrawnAmount",
          "type": "uint256"
        }
      ],
      "name": "TokensWithdrawn",
      "type": "event"
    },
    {
      "inputs": [
        {
          "internalType": "enum FanTokenIssuance.DistributionType",
          "name": "",
          "type": "uint8"
        }
      ],
      "name": "distributionTypeToIssuance",
      "outputs": [
        {
          "internalType": "uint256",
          "name": "beneficiariesCount",
          "type": "uint256"
        },
        {
          "internalType": "enum FanTokenIssuance.DistributionType",
          "name": "poolType",
          "type": "uint8"
        },
        {
          "internalType": "uint256",
          "name": "totalIssued",
          "type": "uint256"
        }
      ],
      "stateMutability": "view",
      "type": "function",
      "constant": true
    },
    {
      "inputs": [
        {
          "internalType": "enum FanTokenIssuance.DistributionType",
          "name": "",
          "type": "uint8"
        },
        {
          "internalType": "address",
          "name": "",
          "type": "address"
        }
      ],
      "name": "distributionTypeToWithdrawals",
      "outputs": [
        {
          "internalType": "uint256",
          "name": "",
          "type": "uint256"
        }
      ],
      "stateMutability": "view",
      "type": "function",
      "constant": true
    },
    {
      "inputs": [],
      "name": "owner",
      "outputs": [
        {
          "internalType": "address",
          "name": "",
          "type": "address"
        }
      ],
      "stateMutability": "view",
      "type": "function",
      "constant": true
    },
    {
      "inputs": [],
      "name": "renounceOwnership",
      "outputs": [],
      "stateMutability": "nonpayable",
      "type": "function"
    },
    {
      "inputs": [
        {
          "internalType": "address",
          "name": "newOwner",
          "type": "address"
        }
      ],
      "name": "transferOwnership",
      "outputs": [],
      "stateMutability": "nonpayable",
      "type": "function"
    },
    {
      "inputs": [
        {
          "internalType": "enum FanTokenIssuance.DistributionType",
          "name": "_distributionType",
          "type": "uint8"
        },
        {
          "internalType": "uint256",
          "name": "_issuanceAmount",
          "type": "uint256"
        }
      ],
      "name": "addTokenIssuance",
      "outputs": [
        {
          "internalType": "bool",
          "name": "success",
          "type": "bool"
        }
      ],
      "stateMutability": "nonpayable",
      "type": "function"
    },
    {
      "inputs": [
        {
          "internalType": "address[]",
          "name": "_beneficiaries",
          "type": "address[]"
        },
        {
          "internalType": "enum FanTokenIssuance.DistributionType",
          "name": "_distributionType",
          "type": "uint8"
        }
      ],
      "name": "addBeneficiaries",
      "outputs": [],
      "stateMutability": "nonpayable",
      "type": "function"
    },
    {
      "inputs": [
        {
          "internalType": "address[]",
          "name": "_beneficiaries",
          "type": "address[]"
        },
        {
          "internalType": "enum FanTokenIssuance.DistributionType",
          "name": "_distributionType",
          "type": "uint8"
        }
      ],
      "name": "removeBeneficiaries",
      "outputs": [],
      "stateMutability": "nonpayable",
      "type": "function"
    },
    {
      "inputs": [
        {
          "internalType": "enum FanTokenIssuance.DistributionType",
          "name": "_distributionType",
          "type": "uint8"
        }
      ],
      "name": "getWithdrawableAmount",
      "outputs": [
        {
          "internalType": "uint256",
          "name": "",
          "type": "uint256"
        }
      ],
      "stateMutability": "view",
      "type": "function",
      "constant": true
    },
    {
      "inputs": [
        {
          "internalType": "enum FanTokenIssuance.DistributionType",
          "name": "_distributionType",
          "type": "uint8"
        },
        {
          "internalType": "uint256",
          "name": "withdrawAmount",
          "type": "uint256"
        }
      ],
      "name": "withdraw",
      "outputs": [
        {
          "internalType": "bool",
          "name": "withdrawalSuccess",
          "type": "bool"
        }
      ],
      "stateMutability": "payable",
      "type": "function",
      "payable": true
    },
    {
      "inputs": [
        {
          "internalType": "enum FanTokenIssuance.DistributionType",
          "name": "_distributionType",
          "type": "uint8"
        }
      ],
      "name": "getWithdrawnAmount",
      "outputs": [
        {
          "internalType": "uint256",
          "name": "",
          "type": "uint256"
        }
      ],
      "stateMutability": "view",
      "type": "function",
      "constant": true
    }
  ],
  "bytecode": "0x60806040523480156200001157600080fd5b506040516200257a3803806200257a833981810160405281019062000037919062000248565b620000576200004b6200011260201b60201c565b6200011a60201b60201c565b600073ffffffffffffffffffffffffffffffffffffffff168173ffffffffffffffffffffffffffffffffffffffff161415620000ca576040517f08c379a0000000000000000000000000000000000000000000000000000000008152600401620000c190620002db565b60405180910390fd5b80600160006101000a81548173ffffffffffffffffffffffffffffffffffffffff021916908373ffffffffffffffffffffffffffffffffffffffff16021790555050620002fd565b600033905090565b60008060009054906101000a900473ffffffffffffffffffffffffffffffffffffffff169050816000806101000a81548173ffffffffffffffffffffffffffffffffffffffff021916908373ffffffffffffffffffffffffffffffffffffffff1602179055508173ffffffffffffffffffffffffffffffffffffffff168173ffffffffffffffffffffffffffffffffffffffff167f8be0079c531659141344cd1fd0a4f28419497f9722a3daafe3b4186f6b6457e060405160405180910390a35050565b600080fd5b600073ffffffffffffffffffffffffffffffffffffffff82169050919050565b60006200021082620001e3565b9050919050565b620002228162000203565b81146200022e57600080fd5b50565b600081519050620002428162000217565b92915050565b600060208284031215620002615762000260620001de565b5b6000620002718482850162000231565b91505092915050565b600082825260208201905092915050565b7f46415720746f6b656e2061646472657373206973206e6f742076616c69640000600082015250565b6000620002c3601e836200027a565b9150620002d0826200028b565b602082019050919050565b60006020820190508181036000830152620002f681620002b4565b9050919050565b61226d806200030d6000396000f3fe60806040526004361061009c5760003560e01c80638da5cb5b116100645780638da5cb5b1461017757806393819e9d146101a2578063967fe2cf146101df578063bd0575c51461021e578063f2fde38b1461025b578063fed81612146102845761009c565b80631260ef64146100a157806320871485146100ca5780633f48991414610107578063514d097c14610137578063715018a614610160575b600080fd5b3480156100ad57600080fd5b506100c860048036038101906100c39190611660565b6102c1565b005b3480156100d657600080fd5b506100f160048036038101906100ec91906116f2565b6104e1565b6040516100fe919061174d565b60405180910390f35b610121600480360381019061011c91906116f2565b610781565b60405161012e919061174d565b60405180910390f35b34801561014357600080fd5b5061015e60048036038101906101599190611660565b6109e5565b005b34801561016c57600080fd5b50610175610c0d565b005b34801561018357600080fd5b5061018c610c95565b6040516101999190611777565b60405180910390f35b3480156101ae57600080fd5b506101c960048036038101906101c49190611792565b610cbe565b6040516101d691906117ce565b60405180910390f35b3480156101eb57600080fd5b5061020660048036038101906102019190611792565b610d3c565b60405161021593929190611860565b60405180910390f35b34801561022a57600080fd5b5061024560048036038101906102409190611792565b610d73565b60405161025291906117ce565b60405180910390f35b34801561026757600080fd5b50610282600480360381019061027d9190611897565b610f52565b005b34801561029057600080fd5b506102ab60048036038101906102a691906118c4565b61104a565b6040516102b891906117ce565b60405180910390f35b6102c961106f565b73ffffffffffffffffffffffffffffffffffffffff166102e7610c95565b73ffffffffffffffffffffffffffffffffffffffff161461033d576040517f08c379a000000000000000000000000000000000000000000000000000000000815260040161033490611961565b60405180910390fd5b60006002600083600b811115610356576103556117e9565b5b600b811115610368576103676117e9565b5b8152602001908152602001600020905060005b83518110156104915781600001600085838151811061039d5761039c611981565b5b602002602001015173ffffffffffffffffffffffffffffffffffffffff1673ffffffffffffffffffffffffffffffffffffffff16815260200190815260200160002060009054906101000a900460ff161561047e5781600001600085838151811061040b5761040a611981565b5b602002602001015173ffffffffffffffffffffffffffffffffffffffff1673ffffffffffffffffffffffffffffffffffffffff16815260200190815260200160002060006101000a81549060ff02191690556104756001836001015461107790919063ffffffff16565b82600101819055505b8080610489906119df565b91505061037b565b5081600b8111156104a5576104a46117e9565b5b7ff3f7defdf070cec87a255ef564160446ab87cd381ceaab55ceefae21a0caf280846040516104d49190611ae6565b60405180910390a2505050565b60006104eb61106f565b73ffffffffffffffffffffffffffffffffffffffff16610509610c95565b73ffffffffffffffffffffffffffffffffffffffff161461055f576040517f08c379a000000000000000000000000000000000000000000000000000000000815260040161055690611961565b60405180910390fd5b600082116105a2576040517f08c379a000000000000000000000000000000000000000000000000000000000815260040161059990611b54565b60405180910390fd5b6000600160009054906101000a900473ffffffffffffffffffffffffffffffffffffffff1673ffffffffffffffffffffffffffffffffffffffff166318160ddd6040518163ffffffff1660e01b815260040160206040518083038186803b15801561060c57600080fd5b505afa158015610620573d6000803e3d6000fd5b505050506040513d601f19601f820116820180604052508101906106449190611b89565b905080831115610689576040517f08c379a000000000000000000000000000000000000000000000000000000000815260040161068090611c28565b60405180910390fd5b60006002600086600b8111156106a2576106a16117e9565b5b600b8111156106b4576106b36117e9565b5b815260200190815260200160002090506000816003015411156106f5576106e884826003015461108d90919063ffffffff16565b81600301819055506106ff565b8381600301819055505b848160020160006101000a81548160ff0219169083600b811115610726576107256117e9565b5b021790555084600b81111561073e5761073d6117e9565b5b7f03dbe1dda7de3a676c02706ee3dd9c8387d740e2459c3dc2daa5d0b8a8bf69c88560405161076d91906117ce565b60405180910390a260019250505092915050565b60008061078d84610d73565b905060006003600086600b8111156107a8576107a76117e9565b5b600b8111156107ba576107b96117e9565b5b815260200190815260200160002060003373ffffffffffffffffffffffffffffffffffffffff1673ffffffffffffffffffffffffffffffffffffffff1681526020019081526020016000205490506000821161084b576040517f08c379a000000000000000000000000000000000000000000000000000000000815260040161084290611c94565b60405180910390fd5b61085e848261108d90919063ffffffff16565b8210156108a0576040517f08c379a000000000000000000000000000000000000000000000000000000000815260040161089790611d26565b60405180910390fd5b6108b3818561108d90919063ffffffff16565b6003600087600b8111156108ca576108c96117e9565b5b600b8111156108dc576108db6117e9565b5b815260200190815260200160002060003373ffffffffffffffffffffffffffffffffffffffff1673ffffffffffffffffffffffffffffffffffffffff168152602001908152602001600020819055506109783385600160009054906101000a900473ffffffffffffffffffffffffffffffffffffffff1673ffffffffffffffffffffffffffffffffffffffff166110a39092919063ffffffff16565b3373ffffffffffffffffffffffffffffffffffffffff1685600b8111156109a2576109a16117e9565b5b7fea88767cf8a7eb322a19d61676970a39ea554011398c33b7fbc4fb757cda0cd4866040516109d191906117ce565b60405180910390a360019250505092915050565b6109ed61106f565b73ffffffffffffffffffffffffffffffffffffffff16610a0b610c95565b73ffffffffffffffffffffffffffffffffffffffff1614610a61576040517f08c379a0000000000000000000000000000000000000000000000000000000008152600401610a5890611961565b60405180910390fd5b60006002600083600b811115610a7a57610a796117e9565b5b600b811115610a8c57610a8b6117e9565b5b8152602001908152602001600020905060005b8351811015610bbd57816000016000858381518110610ac157610ac0611981565b5b602002602001015173ffffffffffffffffffffffffffffffffffffffff1673ffffffffffffffffffffffffffffffffffffffff16815260200190815260200160002060009054906101000a900460ff16610baa576001826000016000868481518110610b3057610b2f611981565b5b602002602001015173ffffffffffffffffffffffffffffffffffffffff1673ffffffffffffffffffffffffffffffffffffffff16815260200190815260200160002060006101000a81548160ff021916908315150217905550610ba16001836001015461108d90919063ffffffff16565b82600101819055505b8080610bb5906119df565b915050610a9f565b5081600b811115610bd157610bd06117e9565b5b7f7c8b79729e2e8a7b77bf8be58691d8c2a9ac5c1f9e46c5829a1098953aba705f84604051610c009190611ae6565b60405180910390a2505050565b610c1561106f565b73ffffffffffffffffffffffffffffffffffffffff16610c33610c95565b73ffffffffffffffffffffffffffffffffffffffff1614610c89576040517f08c379a0000000000000000000000000000000000000000000000000000000008152600401610c8090611961565b60405180910390fd5b610c936000611129565b565b60008060009054906101000a900473ffffffffffffffffffffffffffffffffffffffff16905090565b60006003600083600b811115610cd757610cd66117e9565b5b600b811115610ce957610ce86117e9565b5b815260200190815260200160002060003373ffffffffffffffffffffffffffffffffffffffff1673ffffffffffffffffffffffffffffffffffffffff168152602001908152602001600020549050919050565b60026020528060005260406000206000915090508060010154908060020160009054906101000a900460ff16908060030154905083565b6000806002600084600b811115610d8d57610d8c6117e9565b5b600b811115610d9f57610d9e6117e9565b5b815260200190815260200160002060000160003373ffffffffffffffffffffffffffffffffffffffff1673ffffffffffffffffffffffffffffffffffffffff16815260200190815260200160002060009054906101000a900460ff16905080610e3d576040517f08c379a0000000000000000000000000000000000000000000000000000000008152600401610e3490611d92565b60405180910390fd5b610f4a6003600085600b811115610e5757610e566117e9565b5b600b811115610e6957610e686117e9565b5b815260200190815260200160002060003373ffffffffffffffffffffffffffffffffffffffff1673ffffffffffffffffffffffffffffffffffffffff16815260200190815260200160002054610f3c6002600087600b811115610ecf57610ece6117e9565b5b600b811115610ee157610ee06117e9565b5b8152602001908152602001600020600101546002600088600b811115610f0a57610f096117e9565b5b600b811115610f1c57610f1b6117e9565b5b8152602001908152602001600020600301546111ed90919063ffffffff16565b61107790919063ffffffff16565b915050919050565b610f5a61106f565b73ffffffffffffffffffffffffffffffffffffffff16610f78610c95565b73ffffffffffffffffffffffffffffffffffffffff1614610fce576040517f08c379a0000000000000000000000000000000000000000000000000000000008152600401610fc590611961565b60405180910390fd5b600073ffffffffffffffffffffffffffffffffffffffff168173ffffffffffffffffffffffffffffffffffffffff16141561103e576040517f08c379a000000000000000000000000000000000000000000000000000000000815260040161103590611e24565b60405180910390fd5b61104781611129565b50565b6003602052816000526040600020602052806000526040600020600091509150505481565b600033905090565b600081836110859190611e44565b905092915050565b6000818361109b9190611e78565b905092915050565b6111248363a9059cbb60e01b84846040516024016110c2929190611ece565b604051602081830303815290604052907bffffffffffffffffffffffffffffffffffffffffffffffffffffffff19166020820180517bffffffffffffffffffffffffffffffffffffffffffffffffffffffff8381831617835250505050611203565b505050565b60008060009054906101000a900473ffffffffffffffffffffffffffffffffffffffff169050816000806101000a81548173ffffffffffffffffffffffffffffffffffffffff021916908373ffffffffffffffffffffffffffffffffffffffff1602179055508173ffffffffffffffffffffffffffffffffffffffff168173ffffffffffffffffffffffffffffffffffffffff167f8be0079c531659141344cd1fd0a4f28419497f9722a3daafe3b4186f6b6457e060405160405180910390a35050565b600081836111fb9190611f26565b905092915050565b6000611265826040518060400160405280602081526020017f5361666545524332303a206c6f772d6c6576656c2063616c6c206661696c65648152508573ffffffffffffffffffffffffffffffffffffffff166112ca9092919063ffffffff16565b90506000815111156112c557808060200190518101906112859190611f83565b6112c4576040517f08c379a00000000000000000000000000000000000000000000000000000000081526004016112bb90612022565b60405180910390fd5b5b505050565b60606112d984846000856112e2565b90509392505050565b606082471015611327576040517f08c379a000000000000000000000000000000000000000000000000000000000815260040161131e906120b4565b60405180910390fd5b611330856113f6565b61136f576040517f08c379a000000000000000000000000000000000000000000000000000000000815260040161136690612120565b60405180910390fd5b6000808673ffffffffffffffffffffffffffffffffffffffff16858760405161139891906121ba565b60006040518083038185875af1925050503d80600081146113d5576040519150601f19603f3d011682016040523d82523d6000602084013e6113da565b606091505b50915091506113ea828286611409565b92505050949350505050565b600080823b905060008111915050919050565b6060831561141957829050611469565b60008351111561142c5782518084602001fd5b816040517f08c379a00000000000000000000000000000000000000000000000000000000081526004016114609190612215565b60405180910390fd5b9392505050565b6000604051905090565b600080fd5b600080fd5b600080fd5b6000601f19601f8301169050919050565b7f4e487b7100000000000000000000000000000000000000000000000000000000600052604160045260246000fd5b6114d282611489565b810181811067ffffffffffffffff821117156114f1576114f061149a565b5b80604052505050565b6000611504611470565b905061151082826114c9565b919050565b600067ffffffffffffffff8211156115305761152f61149a565b5b602082029050602081019050919050565b600080fd5b600073ffffffffffffffffffffffffffffffffffffffff82169050919050565b600061157182611546565b9050919050565b61158181611566565b811461158c57600080fd5b50565b60008135905061159e81611578565b92915050565b60006115b76115b284611515565b6114fa565b905080838252602082019050602084028301858111156115da576115d9611541565b5b835b8181101561160357806115ef888261158f565b8452602084019350506020810190506115dc565b5050509392505050565b600082601f83011261162257611621611484565b5b81356116328482602086016115a4565b91505092915050565b600c811061164857600080fd5b50565b60008135905061165a8161163b565b92915050565b600080604083850312156116775761167661147a565b5b600083013567ffffffffffffffff8111156116955761169461147f565b5b6116a18582860161160d565b92505060206116b28582860161164b565b9150509250929050565b6000819050919050565b6116cf816116bc565b81146116da57600080fd5b50565b6000813590506116ec816116c6565b92915050565b600080604083850312156117095761170861147a565b5b60006117178582860161164b565b9250506020611728858286016116dd565b9150509250929050565b60008115159050919050565b61174781611732565b82525050565b6000602082019050611762600083018461173e565b92915050565b61177181611566565b82525050565b600060208201905061178c6000830184611768565b92915050565b6000602082840312156117a8576117a761147a565b5b60006117b68482850161164b565b91505092915050565b6117c8816116bc565b82525050565b60006020820190506117e360008301846117bf565b92915050565b7f4e487b7100000000000000000000000000000000000000000000000000000000600052602160045260246000fd5b600c8110611829576118286117e9565b5b50565b600081905061183a82611818565b919050565b600061184a8261182c565b9050919050565b61185a8161183f565b82525050565b600060608201905061187560008301866117bf565b6118826020830185611851565b61188f60408301846117bf565b949350505050565b6000602082840312156118ad576118ac61147a565b5b60006118bb8482850161158f565b91505092915050565b600080604083850312156118db576118da61147a565b5b60006118e98582860161164b565b92505060206118fa8582860161158f565b9150509250929050565b600082825260208201905092915050565b7f4f776e61626c653a2063616c6c6572206973206e6f7420746865206f776e6572600082015250565b600061194b602083611904565b915061195682611915565b602082019050919050565b6000602082019050818103600083015261197a8161193e565b9050919050565b7f4e487b7100000000000000000000000000000000000000000000000000000000600052603260045260246000fd5b7f4e487b7100000000000000000000000000000000000000000000000000000000600052601160045260246000fd5b60006119ea826116bc565b91507fffffffffffffffffffffffffffffffffffffffffffffffffffffffffffffffff821415611a1d57611a1c6119b0565b5b600182019050919050565b600081519050919050565b600082825260208201905092915050565b6000819050602082019050919050565b611a5d81611566565b82525050565b6000611a6f8383611a54565b60208301905092915050565b6000602082019050919050565b6000611a9382611a28565b611a9d8185611a33565b9350611aa883611a44565b8060005b83811015611ad9578151611ac08882611a63565b9750611acb83611a7b565b925050600181019050611aac565b5085935050505092915050565b60006020820190508181036000830152611b008184611a88565b905092915050565b7f456d7074792069737375616e636520616d6f756e740000000000000000000000600082015250565b6000611b3e601583611904565b9150611b4982611b08565b602082019050919050565b60006020820190508181036000830152611b6d81611b31565b9050919050565b600081519050611b83816116c6565b92915050565b600060208284031215611b9f57611b9e61147a565b5b6000611bad84828501611b74565b91505092915050565b7f43616e6e6f74206973737565206d6f7265207468616e20746f74616c2073757060008201527f706c790000000000000000000000000000000000000000000000000000000000602082015250565b6000611c12602383611904565b9150611c1d82611bb6565b604082019050919050565b60006020820190508181036000830152611c4181611c05565b9050919050565b7f4e6f20616d6f756e7420746f2077697468647261770000000000000000000000600082015250565b6000611c7e601583611904565b9150611c8982611c48565b602082019050919050565b60006020820190508181036000830152611cad81611c71565b9050919050565b7f576974686472617720616d6f756e74206578636565647320617661696c61626c60008201527f6520616d6f756e742e0000000000000000000000000000000000000000000000602082015250565b6000611d10602983611904565b9150611d1b82611cb4565b604082019050919050565b60006020820190508181036000830152611d3f81611d03565b9050919050565b7f42656e6566696369617279206e6f7420666f756e6420696e20706f6f6c000000600082015250565b6000611d7c601d83611904565b9150611d8782611d46565b602082019050919050565b60006020820190508181036000830152611dab81611d6f565b9050919050565b7f4f776e61626c653a206e6577206f776e657220697320746865207a65726f206160008201527f6464726573730000000000000000000000000000000000000000000000000000602082015250565b6000611e0e602683611904565b9150611e1982611db2565b604082019050919050565b60006020820190508181036000830152611e3d81611e01565b9050919050565b6000611e4f826116bc565b9150611e5a836116bc565b925082821015611e6d57611e6c6119b0565b5b828203905092915050565b6000611e83826116bc565b9150611e8e836116bc565b9250827fffffffffffffffffffffffffffffffffffffffffffffffffffffffffffffffff03821115611ec357611ec26119b0565b5b828201905092915050565b6000604082019050611ee36000830185611768565b611ef060208301846117bf565b9392505050565b7f4e487b7100000000000000000000000000000000000000000000000000000000600052601260045260246000fd5b6000611f31826116bc565b9150611f3c836116bc565b925082611f4c57611f4b611ef7565b5b828204905092915050565b611f6081611732565b8114611f6b57600080fd5b50565b600081519050611f7d81611f57565b92915050565b600060208284031215611f9957611f9861147a565b5b6000611fa784828501611f6e565b91505092915050565b7f5361666545524332303a204552433230206f7065726174696f6e20646964206e60008201527f6f74207375636365656400000000000000000000000000000000000000000000602082015250565b600061200c602a83611904565b915061201782611fb0565b604082019050919050565b6000602082019050818103600083015261203b81611fff565b9050919050565b7f416464726573733a20696e73756666696369656e742062616c616e636520666f60008201527f722063616c6c0000000000000000000000000000000000000000000000000000602082015250565b600061209e602683611904565b91506120a982612042565b604082019050919050565b600060208201905081810360008301526120cd81612091565b9050919050565b7f416464726573733a2063616c6c20746f206e6f6e2d636f6e7472616374000000600082015250565b600061210a601d83611904565b9150612115826120d4565b602082019050919050565b60006020820190508181036000830152612139816120fd565b9050919050565b600081519050919050565b600081905092915050565b60005b83811015612174578082015181840152602081019050612159565b83811115612183576000848401525b50505050565b600061219482612140565b61219e818561214b565b93506121ae818560208601612156565b80840191505092915050565b60006121c68284612189565b915081905092915050565b600081519050919050565b60006121e7826121d1565b6121f18185611904565b9350612201818560208601612156565b61220a81611489565b840191505092915050565b6000602082019050818103600083015261222f81846121dc565b90509291505056fea2646970667358221220370e58e0faeb1a271fe7201cac3a96653a1e29d9d5c137f0e22130b75fa3c66364736f6c63430008090033",
  "immutableReferences": {},
  "source": "// SPDX-License-Identifier: MIT\n\npragma solidity 0.8.9;\n\nimport \"@openzeppelin/contracts/token/ERC20/utils/SafeERC20.sol\";\nimport \"@openzeppelin/contracts/access/Ownable.sol\";\nimport \"@openzeppelin/contracts/utils/math/SafeMath.sol\";\n\n/**\n @title Contract to issue tokens based on the distribution pool.\n The tokens in a pool are distributed equally among the beneficiaries\n based on the *total issued tokens*\n */\ncontract FanTokenIssuance is Ownable {\n    using SafeMath for uint256;\n    using SafeERC20 for IERC20;\n\n    enum DistributionType {\n        TEAM,\n        SEED,\n        STRATEGIC,\n        PRIVATE1,\n        PRIVATE2,\n        PUBLIC,\n        ADVISORS,\n        LIQUIDITY,\n        REWARDS,\n        MARKETING,\n        RESERVES,\n        ECOSYSTEM\n    }\n\n    event IssuanceAdded(\n        DistributionType indexed poolType,\n        uint256 issuedAmount\n    );\n\n    event BeneficiariesAdded(\n        DistributionType indexed poolType,\n        address[] beneficiaries\n    );\n\n    event BeneficiariesRemoved(\n        DistributionType indexed poolType,\n        address[] beneficiaries\n    );\n\n    event TokensWithdrawn(\n        DistributionType indexed poolType,\n        address indexed beneficiary,\n        uint256 withdrawnAmount\n    );\n\n    IERC20 private _fanToken;\n\n    /**\n      @dev The beneficiaries mapping doesnt give the \n      total number of beneficiaries. So the count is\n      tracked separately. \n     */\n    struct TokenIssuance {\n        mapping(address => bool) beneficiaries;\n        uint256 beneficiariesCount;\n        DistributionType poolType;\n        uint256 totalIssued;\n    }\n\n    mapping(DistributionType => TokenIssuance)\n        public distributionTypeToIssuance;\n\n    mapping(DistributionType => mapping(address => uint256))\n        public distributionTypeToWithdrawals;\n\n    constructor(address _token) {\n        require(\n            address(_token) != address(0x0),\n            \"FAW token address is not valid\"\n        );\n        _fanToken = IERC20(_token);\n    }\n\n    /**\n      @dev Adds new issuance to the `_distributionType` pool. This will be called daily\n      @param _distributionType The type of the pool\n      @param _issuanceAmount The amount of tokens to be issued in this batch\n      @return success true if the issuance was added successfully.\n     */\n    function addTokenIssuance(\n        DistributionType _distributionType,\n        uint256 _issuanceAmount\n    ) public onlyOwner returns (bool success) {\n        require(_issuanceAmount > 0, \"Empty issuance amount\");\n        uint256 totalSupply = _fanToken.totalSupply();\n        require(\n            _issuanceAmount <= totalSupply,\n            \"Cannot issue more than total supply\"\n        );\n\n        TokenIssuance storage issuance = distributionTypeToIssuance[\n            _distributionType\n        ];\n        if (issuance.totalIssued > 0) {\n            issuance.totalIssued = issuance.totalIssued.add(_issuanceAmount);\n        } else {\n            issuance.totalIssued = _issuanceAmount;\n        }\n        issuance.poolType = _distributionType;\n\n        emit IssuanceAdded(_distributionType, _issuanceAmount);\n\n        return true;\n    }\n\n    /**\n      Add beneficiaries to the `_distributionType` pool.\n      A beneficiary can belong to more than one pool\n      @param _beneficiaries The beneficiaries to be added\n      @param _distributionType The type of the pool\n    */\n    function addBeneficiaries(\n        address[] memory _beneficiaries,\n        DistributionType _distributionType\n    ) public onlyOwner {\n        TokenIssuance storage issuance = distributionTypeToIssuance[\n            _distributionType\n        ];\n        for (uint256 i = 0; i < _beneficiaries.length; i++) {\n            if (!issuance.beneficiaries[_beneficiaries[i]]) {\n                // Increment beneficiary count only if the beneficiary is not already in the pool\n                issuance.beneficiaries[_beneficiaries[i]] = true;\n                issuance.beneficiariesCount = issuance.beneficiariesCount.add(\n                    1\n                );\n            }\n        }\n\n        emit BeneficiariesAdded(_distributionType, _beneficiaries);\n    }\n\n    /**\n      Remove beneficiaries from the `_distributionType` pool.\n      @param _beneficiaries The beneficiaries to be removed\n      @param _distributionType The type of the pool\n    */\n    function removeBeneficiaries(\n        address[] memory _beneficiaries,\n        DistributionType _distributionType\n    ) public onlyOwner {\n        TokenIssuance storage issuance = distributionTypeToIssuance[\n            _distributionType\n        ];\n        for (uint256 i = 0; i < _beneficiaries.length; i++) {\n            if (issuance.beneficiaries[_beneficiaries[i]]) {\n                // Decrement beneficiary count only if the beneficiary is not already in the pool\n                delete issuance.beneficiaries[_beneficiaries[i]];\n                issuance.beneficiariesCount = issuance.beneficiariesCount.sub(\n                    1\n                );\n            }\n        }\n\n        emit BeneficiariesRemoved(_distributionType, _beneficiaries);\n    }\n\n    function getWithdrawableAmount(DistributionType _distributionType)\n        public\n        view\n        returns (uint256)\n    {\n        bool isValidBeneficiary = distributionTypeToIssuance[_distributionType]\n            .beneficiaries[msg.sender];\n\n        require(isValidBeneficiary, \"Beneficiary not found in pool\");\n        // Since msg.sender is already in the pool, beneficiariesCount > 0\n        return\n            (\n                distributionTypeToIssuance[_distributionType].totalIssued.div(\n                    distributionTypeToIssuance[_distributionType]\n                        .beneficiariesCount\n                )\n            ).sub(distributionTypeToWithdrawals[_distributionType][msg.sender]);\n    }\n\n    function withdraw(\n        DistributionType _distributionType,\n        uint256 withdrawAmount\n    ) public payable returns (bool withdrawalSuccess) {\n        uint256 withdrawableAmount = getWithdrawableAmount(_distributionType);\n        uint256 withdrawnAmount = distributionTypeToWithdrawals[\n            _distributionType\n        ][msg.sender];\n\n        require(withdrawableAmount > 0, \"No amount to withdraw\");\n        require(\n            withdrawableAmount >= withdrawnAmount.add(withdrawAmount),\n            \"Withdraw amount exceeds available amount.\"\n        );\n\n        distributionTypeToWithdrawals[_distributionType][\n            msg.sender\n        ] = withdrawAmount.add(withdrawnAmount);\n\n        // Transfer the amount in the end to avoid reentrancy attacks\n        _fanToken.safeTransfer(msg.sender, withdrawAmount);\n\n        emit TokensWithdrawn(_distributionType, msg.sender, withdrawAmount);\n\n        return true;\n    }\n\n    function getWithdrawnAmount(DistributionType _distributionType)\n        external\n        view\n        returns (uint256)\n    {\n        return distributionTypeToWithdrawals[_distributionType][msg.sender];\n    }\n}\n",
  "sourcePath": "/home/liveserver/Projects/fantoken/truffle/contracts/FanTokenIssuance.sol",
  "compiler": {
    "name": "solc",
    "version": "0.8.9+commit.e5eed63a.Emscripten.clang"
  },
  "schemaVersion": "3.4.3",
  "updatedAt": "2021-11-22T20:30:28.264Z",
  "networkType": "ethereum",
  "devdoc": {
    "kind": "dev",
    "methods": {
      "addBeneficiaries(address[],uint8)": {
        "params": {
          "_beneficiaries": "The beneficiaries to be added",
          "_distributionType": "The type of the pool"
        }
      },
      "addTokenIssuance(uint8,uint256)": {
        "details": "Adds new issuance to the `_distributionType` pool. This will be called daily",
        "params": {
          "_distributionType": "The type of the pool",
          "_issuanceAmount": "The amount of tokens to be issued in this batch"
        },
        "returns": {
          "success": "true if the issuance was added successfully."
        }
      },
      "owner()": {
        "details": "Returns the address of the current owner."
      },
      "removeBeneficiaries(address[],uint8)": {
        "params": {
          "_beneficiaries": "The beneficiaries to be removed",
          "_distributionType": "The type of the pool"
        }
      },
      "renounceOwnership()": {
        "details": "Leaves the contract without owner. It will not be possible to call `onlyOwner` functions anymore. Can only be called by the current owner. NOTE: Renouncing ownership will leave the contract without an owner, thereby removing any functionality that is only available to the owner."
      },
      "transferOwnership(address)": {
        "details": "Transfers ownership of the contract to a new account (`newOwner`). Can only be called by the current owner."
      }
    },
    "title": "Contract to issue tokens based on the distribution pool. The tokens in a pool are distributed equally among the beneficiaries based on the *total issued tokens*",
    "version": 1
  },
  "userdoc": {
    "kind": "user",
    "methods": {
      "addBeneficiaries(address[],uint8)": {
        "notice": "Add beneficiaries to the `_distributionType` pool. A beneficiary can belong to more than one pool"
      },
      "removeBeneficiaries(address[],uint8)": {
        "notice": "Remove beneficiaries from the `_distributionType` pool."
      }
    },
    "version": 1
  }
}