{
  "contractName": "FanTokenVesting",
  "abi": [
    {
      "inputs": [
        {
          "internalType": "address",
          "name": "_token",
          "type": "address"
        },
        {
          "internalType": "address",
          "name": "_treasury",
          "type": "address"
        }
      ],
      "stateMutability": "nonpayable",
      "type": "constructor"
    },
    {
      "anonymous": false,
      "inputs": [
        {
          "indexed": true,
          "internalType": "address",
          "name": "investor",
          "type": "address"
        },
        {
          "indexed": true,
          "internalType": "address",
          "name": "caller",
          "type": "address"
        },
        {
          "indexed": true,
          "internalType": "enum FanTokenVesting.DistributionType",
          "name": "distributionType",
          "type": "uint8"
        },
        {
          "indexed": false,
          "internalType": "uint256",
          "name": "totalTokensAllotted",
          "type": "uint256"
        },
        {
          "indexed": false,
          "internalType": "uint256",
          "name": "initialTokensReleased",
          "type": "uint256"
        },
        {
          "indexed": false,
          "internalType": "uint256",
          "name": "cliffPeriodMonths",
          "type": "uint256"
        },
        {
          "indexed": false,
          "internalType": "uint256",
          "name": "vestingPeriodMonths",
          "type": "uint256"
        }
      ],
      "name": "DistributionAdded",
      "type": "event"
    },
    {
      "anonymous": false,
      "inputs": [
        {
          "indexed": false,
          "internalType": "enum FanTokenVesting.DistributionType",
          "name": "d",
          "type": "uint8"
        },
        {
          "indexed": false,
          "internalType": "uint256",
          "name": "noOfDays",
          "type": "uint256"
        },
        {
          "indexed": false,
          "internalType": "uint256",
          "name": "tokensVested",
          "type": "uint256"
        },
        {
          "indexed": false,
          "internalType": "uint256",
          "name": "blockTs",
          "type": "uint256"
        },
        {
          "indexed": false,
          "internalType": "string",
          "name": "vestingType",
          "type": "string"
        }
      ],
      "name": "Log",
      "type": "event"
    },
    {
      "anonymous": false,
      "inputs": [
        {
          "indexed": true,
          "internalType": "address",
          "name": "previousOwner",
          "type": "address"
        },
        {
          "indexed": true,
          "internalType": "address",
          "name": "newOwner",
          "type": "address"
        }
      ],
      "name": "OwnershipTransferred",
      "type": "event"
    },
    {
      "anonymous": false,
      "inputs": [
        {
          "indexed": true,
          "internalType": "address",
          "name": "token",
          "type": "address"
        },
        {
          "indexed": true,
          "internalType": "uint256",
          "name": "amount",
          "type": "uint256"
        }
      ],
      "name": "RecoverToken",
      "type": "event"
    },
    {
      "anonymous": false,
      "inputs": [
        {
          "indexed": true,
          "internalType": "address",
          "name": "investor",
          "type": "address"
        },
        {
          "indexed": false,
          "internalType": "uint256",
          "name": "value",
          "type": "uint256"
        }
      ],
      "name": "WithdrawnTokens",
      "type": "event"
    },
    {
      "inputs": [
        {
          "internalType": "enum FanTokenVesting.DistributionType",
          "name": "",
          "type": "uint8"
        }
      ],
      "name": "distributionInfo",
      "outputs": [
        {
          "internalType": "enum FanTokenVesting.DistributionType",
          "name": "distributionType",
          "type": "uint8"
        },
        {
          "internalType": "address",
          "name": "beneficiary",
          "type": "address"
        },
        {
          "internalType": "uint256",
          "name": "totalTokensAllotted",
          "type": "uint256"
        },
        {
          "internalType": "uint256",
          "name": "initialTokensReleased",
          "type": "uint256"
        },
        {
          "internalType": "uint256",
          "name": "cliffPeriodMonths",
          "type": "uint256"
        },
        {
          "internalType": "uint256",
          "name": "cliffPeriodDays",
          "type": "uint256"
        },
        {
          "internalType": "uint256",
          "name": "vestingPeriodMonths",
          "type": "uint256"
        },
        {
          "internalType": "uint256",
          "name": "vestingPeriodDays",
          "type": "uint256"
        },
        {
          "internalType": "uint256",
          "name": "withdrawnTokens",
          "type": "uint256"
        }
      ],
      "stateMutability": "view",
      "type": "function",
      "constant": true
    },
    {
      "inputs": [],
      "name": "isInitialized",
      "outputs": [
        {
          "internalType": "bool",
          "name": "",
          "type": "bool"
        }
      ],
      "stateMutability": "view",
      "type": "function",
      "constant": true
    },
    {
      "inputs": [],
      "name": "owner",
      "outputs": [
        {
          "internalType": "address",
          "name": "",
          "type": "address"
        }
      ],
      "stateMutability": "view",
      "type": "function",
      "constant": true
    },
    {
      "inputs": [],
      "name": "renounceOwnership",
      "outputs": [],
      "stateMutability": "nonpayable",
      "type": "function"
    },
    {
      "inputs": [
        {
          "internalType": "address",
          "name": "newOwner",
          "type": "address"
        }
      ],
      "name": "transferOwnership",
      "outputs": [],
      "stateMutability": "nonpayable",
      "type": "function"
    },
    {
      "inputs": [],
      "name": "getInitialTimestamp",
      "outputs": [
        {
          "internalType": "uint256",
          "name": "timestamp",
          "type": "uint256"
        }
      ],
      "stateMutability": "view",
      "type": "function",
      "constant": true
    },
    {
      "inputs": [
        {
          "internalType": "enum FanTokenVesting.DistributionType",
          "name": "_distributionType",
          "type": "uint8"
        }
      ],
      "name": "withdrawTokens",
      "outputs": [],
      "stateMutability": "nonpayable",
      "type": "function"
    },
    {
      "inputs": [
        {
          "internalType": "uint256",
          "name": "_timestamp",
          "type": "uint256"
        }
      ],
      "name": "setInitialTimestamp",
      "outputs": [],
      "stateMutability": "nonpayable",
      "type": "function"
    },
    {
      "inputs": [
        {
          "internalType": "enum FanTokenVesting.DistributionType",
          "name": "distributionType",
          "type": "uint8"
        }
      ],
      "name": "withdrawableTokens",
      "outputs": [
        {
          "internalType": "uint256",
          "name": "tokens",
          "type": "uint256"
        }
      ],
      "stateMutability": "view",
      "type": "function",
      "constant": true
    },
    {
      "inputs": [
        {
          "internalType": "address",
          "name": "_token",
          "type": "address"
        },
        {
          "internalType": "uint256",
          "name": "amount",
          "type": "uint256"
        }
      ],
      "name": "recoverExcessToken",
      "outputs": [],
      "stateMutability": "nonpayable",
      "type": "function"
    }
  ],
  "bytecode": "0x60806040526000600460006101000a81548160ff0219169083151502179055503480156200002c57600080fd5b506040516200293d3803806200293d833981810160405281019062000052919062000652565b62000072620000666200032d60201b60201c565b6200033560201b60201c565b600073ffffffffffffffffffffffffffffffffffffffff168273ffffffffffffffffffffffffffffffffffffffff161415620000e5576040517f08c379a0000000000000000000000000000000000000000000000000000000008152600401620000dc90620006fa565b60405180910390fd5b81600260006101000a81548173ffffffffffffffffffffffffffffffffffffffff021916908373ffffffffffffffffffffffffffffffffffffffff1602179055506200014b8160006a6765c793fa10079d0000006000600c6024620003f960201b60201c565b620001798160016a108b2a2c2802909400000069d3c21bcecceda10000006001600c620003f960201b60201c565b620001a88160026a2a2fab8a32d357130000006a021bfbc6e8f0f78dc000006001600c620003f960201b60201c565b620001d78160036a260ce0ff28d2b2ee0000006a02a9dc8cbdbcd4348000006001600c620003f960201b60201c565b620002068160046a31a17e847807b1bc0000006a03f870857a3e0e380000006001600c620003f960201b60201c565b620002358160056a1306707f946959770000006a03ce167fea7b784b00000060006004620003f960201b60201c565b6200025a8160066a39e7139a8c08fa06000000600060066012620003f960201b60201c565b6200027d8160076a108b2a2c2802909400000080600080620003f960201b60201c565b620002a28160086aa56fa5b99019a5c8000000600060026018620003f960201b60201c565b620002d18160096a6342fd08f00f63780000006a04f68ca6d8cd91c600000060006018620003f960201b60201c565b6200030081600a6a6fab5caa0e114fe70000006a05955e3bb3e743fec0000060006018620003f960201b60201c565b6200032581600b6a6b88921f0410abc2000000600060016012620003f960201b60201c565b505062000825565b600033905090565b60008060009054906101000a900473ffffffffffffffffffffffffffffffffffffffff169050816000806101000a81548173ffffffffffffffffffffffffffffffffffffffff021916908373ffffffffffffffffffffffffffffffffffffffff1602179055508173ffffffffffffffffffffffffffffffffffffffff168173ffffffffffffffffffffffffffffffffffffffff167f8be0079c531659141344cd1fd0a4f28419497f9722a3daafe3b4186f6b6457e060405160405180910390a35050565b600073ffffffffffffffffffffffffffffffffffffffff168673ffffffffffffffffffffffffffffffffffffffff1614156200046c576040517f08c379a000000000000000000000000000000000000000000000000000000000815260040162000463906200076c565b60405180910390fd5b60006003600087600b8111156200048857620004876200078e565b5b600b8111156200049d576200049c6200078e565b5b81526020019081526020016000209050858160000160006101000a81548160ff0219169083600b811115620004d757620004d66200078e565b5b0217905550868160000160016101000a81548173ffffffffffffffffffffffffffffffffffffffff021916908373ffffffffffffffffffffffffffffffffffffffff1602179055508481600101819055508281600301819055508181600501819055508381600201819055506000816007018190555085600b8111156200056357620005626200078e565b5b620005736200032d60201b60201c565b73ffffffffffffffffffffffffffffffffffffffff168873ffffffffffffffffffffffffffffffffffffffff167fcc8b728ee841c20e7e87c5189933bfc4754d7b9b8a8760014e5e3a453a4c6f3588888888604051620005d79493929190620007d8565b60405180910390a450505050505050565b600080fd5b600073ffffffffffffffffffffffffffffffffffffffff82169050919050565b60006200061a82620005ed565b9050919050565b6200062c816200060d565b81146200063857600080fd5b50565b6000815190506200064c8162000621565b92915050565b600080604083850312156200066c576200066b620005e8565b5b60006200067c858286016200063b565b92505060206200068f858286016200063b565b9150509250929050565b600082825260208201905092915050565b7f46415720746f6b656e2061646472657373206973206e6f742076616c69640000600082015250565b6000620006e2601e8362000699565b9150620006ef82620006aa565b602082019050919050565b600060208201905081810360008301526200071581620006d3565b9050919050565b7f496e76616c69642062656e656669636961727920616464726573730000000000600082015250565b600062000754601b8362000699565b915062000761826200071c565b602082019050919050565b60006020820190508181036000830152620007878162000745565b9050919050565b7f4e487b7100000000000000000000000000000000000000000000000000000000600052602160045260246000fd5b6000819050919050565b620007d281620007bd565b82525050565b6000608082019050620007ef6000830187620007c7565b620007fe6020830186620007c7565b6200080d6040830185620007c7565b6200081c6060830184620007c7565b95945050505050565b61210880620008356000396000f3fe608060405234801561001057600080fd5b506004361061009e5760003560e01c8063715018a611610066578063715018a6146101635780638da5cb5b1461016d578063aa9700c51461018b578063b1b39337146101a7578063f2fde38b146101c35761009e565b806321f926db146100a35780632edf9bd0146100bf578063392e53cd146100ef5780634edcd3741461010d57806363f446781461012b575b600080fd5b6100bd60048036038101906100b891906113c7565b6101df565b005b6100d960048036038101906100d49190611419565b6103a4565b6040516100e69190611455565b60405180910390f35b6100f7610442565b604051610104919061148b565b60405180910390f35b610115610455565b6040516101229190611455565b60405180910390f35b61014560048036038101906101409190611419565b61045f565b60405161015a9998979695949392919061155e565b60405180910390f35b61016b6104da565b005b610175610562565b60405161018291906115eb565b60405180910390f35b6101a560048036038101906101a09190611632565b61058b565b005b6101c160048036038101906101bc9190611419565b610681565b005b6101dd60048036038101906101d89190611672565b6108c1565b005b6101e76109b9565b73ffffffffffffffffffffffffffffffffffffffff16610205610562565b73ffffffffffffffffffffffffffffffffffffffff161461025b576040517f08c379a0000000000000000000000000000000000000000000000000000000008152600401610252906116fc565b60405180910390fd5b600460009054906101000a900460ff16156102ab576040517f08c379a00000000000000000000000000000000000000000000000000000000081526004016102a290611768565b60405180910390fd5b6001600460006101000a81548160ff0219169083151502179055508060018190555060005b600b808111156102e3576102e26114a6565b5b81116103a05760006003600083600b811115610302576103016114a6565b5b600b811115610314576103136114a6565b5b600b811115610326576103256114a6565b5b81526020019081526020016000209050600081600301549050600061034b85836109c1565b90506103578582610aa4565b8360040181905550600083600501549050600061037487836109c1565b90506103808782610aa4565b856006018190555050505050508080610398906117b7565b9150506102d0565b5050565b6000600460009054906101000a900460ff166103c3576000905061043d565b60006003600084600b8111156103dc576103db6114a6565b5b600b8111156103ee576103ed6114a6565b5b81526020019081526020016000209050600061040984610ad5565b9050610438826007015461042a846002015484610bab90919063ffffffff16565b610bc190919063ffffffff16565b925050505b919050565b600460009054906101000a900460ff1681565b6000600154905090565b60036020528060005260406000206000915090508060000160009054906101000a900460ff16908060000160019054906101000a900473ffffffffffffffffffffffffffffffffffffffff16908060010154908060020154908060030154908060040154908060050154908060060154908060070154905089565b6104e26109b9565b73ffffffffffffffffffffffffffffffffffffffff16610500610562565b73ffffffffffffffffffffffffffffffffffffffff1614610556576040517f08c379a000000000000000000000000000000000000000000000000000000000815260040161054d906116fc565b60405180910390fd5b6105606000610bd7565b565b60008060009054906101000a900473ffffffffffffffffffffffffffffffffffffffff16905090565b6105936109b9565b73ffffffffffffffffffffffffffffffffffffffff166105b1610562565b73ffffffffffffffffffffffffffffffffffffffff1614610607576040517f08c379a00000000000000000000000000000000000000000000000000000000081526004016105fe906116fc565b60405180910390fd5b6106396106126109b9565b828473ffffffffffffffffffffffffffffffffffffffff16610c9b9092919063ffffffff16565b808273ffffffffffffffffffffffffffffffffffffffff167ffba2d3bdfb2d601eb66a89783a2c614856101cadce71556753c2edadd60c831c60405160405180910390a35050565b6106896109b9565b73ffffffffffffffffffffffffffffffffffffffff166106a7610562565b73ffffffffffffffffffffffffffffffffffffffff16146106fd576040517f08c379a00000000000000000000000000000000000000000000000000000000081526004016106f4906116fc565b60405180910390fd5b600460009054906101000a900460ff1661074c576040517f08c379a00000000000000000000000000000000000000000000000000000000081526004016107439061184c565b60405180910390fd5b60006003600083600b811115610765576107646114a6565b5b600b811115610777576107766114a6565b5b815260200190815260200160002090506000610792836103a4565b9050600081116107d7576040517f08c379a00000000000000000000000000000000000000000000000000000000081526004016107ce906118de565b60405180910390fd5b6107ee818360070154610bab90919063ffffffff16565b82600701819055506108678260000160019054906101000a900473ffffffffffffffffffffffffffffffffffffffff1682600260009054906101000a900473ffffffffffffffffffffffffffffffffffffffff1673ffffffffffffffffffffffffffffffffffffffff16610c9b9092919063ffffffff16565b61086f6109b9565b73ffffffffffffffffffffffffffffffffffffffff167f373d92bf7d9cdd58a8c86db5461f3cdcd325b803fdbac8d1b224a0f5fce847b8826040516108b49190611455565b60405180910390a2505050565b6108c96109b9565b73ffffffffffffffffffffffffffffffffffffffff166108e7610562565b73ffffffffffffffffffffffffffffffffffffffff161461093d576040517f08c379a0000000000000000000000000000000000000000000000000000000008152600401610934906116fc565b60405180910390fd5b600073ffffffffffffffffffffffffffffffffffffffff168173ffffffffffffffffffffffffffffffffffffffff1614156109ad576040517f08c379a00000000000000000000000000000000000000000000000000000000081526004016109a490611970565b60405180910390fd5b6109b681610bd7565b50565b600033905090565b6000806000806109de62015180876109d991906119bf565b610d21565b92509250925084826109f091906119f0565b9150600c600183610a019190611a46565b610a0b91906119bf565b83610a1691906119f0565b92506001600c600184610a299190611a46565b610a339190611a7a565b610a3d91906119f0565b91506000610a4b8484610ec0565b905080821115610a59578091505b6201518087610a689190611a7a565b62015180610a77868686610f4b565b610a819190611aab565b610a8b91906119f0565b945086851015610a9a57600080fd5b5050505092915050565b600081831115610ab357600080fd5b620151808383610ac39190611a46565b610acd91906119bf565b905092915050565b6000804290506000610ae960015483610aa4565b905060006003600086600b811115610b0457610b036114a6565b5b600b811115610b1657610b156114a6565b5b8152602001908152602001600020905080600401548211610b3d5760009350505050610ba6565b80600601548210610b575780600101549350505050610ba6565b6000610b9c83610b8e8460060154610b8086600201548760010154610bc190919063ffffffff16565b6110aa90919063ffffffff16565b6110c090919063ffffffff16565b9050809450505050505b919050565b60008183610bb991906119f0565b905092915050565b60008183610bcf9190611a46565b905092915050565b60008060009054906101000a900473ffffffffffffffffffffffffffffffffffffffff169050816000806101000a81548173ffffffffffffffffffffffffffffffffffffffff021916908373ffffffffffffffffffffffffffffffffffffffff1602179055508173ffffffffffffffffffffffffffffffffffffffff168173ffffffffffffffffffffffffffffffffffffffff167f8be0079c531659141344cd1fd0a4f28419497f9722a3daafe3b4186f6b6457e060405160405180910390a35050565b610d1c8363a9059cbb60e01b8484604051602401610cba929190611b05565b604051602081830303815290604052907bffffffffffffffffffffffffffffffffffffffffffffffffffffffff19166020820180517bffffffffffffffffffffffffffffffffffffffffffffffffffffffff83818316178352505050506110d6565b505050565b600080600080849050600062253d8c62010bd983610d3f9190611b38565b610d499190611b38565b9050600062023ab1826004610d5e9190611bcc565b610d689190611ce3565b9050600460038262023ab1610d7d9190611bcc565b610d879190611b38565b610d919190611ce3565b82610d9c9190611d4d565b9150600062164b09600184610db19190611b38565b610fa0610dbe9190611bcc565b610dc89190611ce3565b9050601f6004826105b5610ddc9190611bcc565b610de69190611ce3565b84610df19190611d4d565b610dfb9190611b38565b9250600061098f846050610e0f9190611bcc565b610e199190611ce3565b9050600060508261098f610e2d9190611bcc565b610e379190611ce3565b85610e429190611d4d565b9050600b82610e519190611ce3565b945084600c610e609190611bcc565b600283610e6d9190611b38565b610e779190611d4d565b91508483603186610e889190611d4d565b6064610e949190611bcc565b610e9e9190611b38565b610ea89190611b38565b92508298508197508096505050505050509193909250565b60006001821480610ed15750600382145b80610edc5750600582145b80610ee75750600782145b80610ef25750600882145b80610efd5750600a82145b80610f085750600c82145b15610f1657601f9050610f45565b60028214610f2757601e9050610f44565b610f308361119d565b610f3b57601c610f3e565b601d5b60ff1690505b5b92915050565b60006107b2841015610f5c57600080fd5b600084905060008490506000849050600062253d8c60046064600c600e87610f849190611d4d565b610f8e9190611ce3565b61132488610f9c9190611b38565b610fa69190611b38565b610fb09190611ce3565b6003610fbc9190611bcc565b610fc69190611ce3565b600c80600c600e88610fd89190611d4d565b610fe29190611ce3565b610fec9190611bcc565b600287610ff99190611d4d565b6110039190611d4d565b61016f6110109190611bcc565b61101a9190611ce3565b6004600c600e8861102b9190611d4d565b6110359190611ce3565b6112c0896110439190611b38565b61104d9190611b38565b6105b561105a9190611bcc565b6110649190611ce3565b617d4b866110729190611d4d565b61107c9190611b38565b6110869190611b38565b6110909190611d4d565b61109a9190611d4d565b9050809450505050509392505050565b600081836110b891906119bf565b905092915050565b600081836110ce9190611aab565b905092915050565b6000611138826040518060400160405280602081526020017f5361666545524332303a206c6f772d6c6576656c2063616c6c206661696c65648152508573ffffffffffffffffffffffffffffffffffffffff166111e69092919063ffffffff16565b905060008151111561119857808060200190518101906111589190611e0d565b611197576040517f08c379a000000000000000000000000000000000000000000000000000000000815260040161118e90611eac565b60405180910390fd5b5b505050565b6000806004836111ad9190611a7a565b1480156111c7575060006064836111c49190611a7a565b14155b806111df57506000610190836111dd9190611a7a565b145b9050919050565b60606111f584846000856111fe565b90509392505050565b606082471015611243576040517f08c379a000000000000000000000000000000000000000000000000000000000815260040161123a90611f3e565b60405180910390fd5b61124c85611312565b61128b576040517f08c379a000000000000000000000000000000000000000000000000000000000815260040161128290611faa565b60405180910390fd5b6000808673ffffffffffffffffffffffffffffffffffffffff1685876040516112b49190612044565b60006040518083038185875af1925050503d80600081146112f1576040519150601f19603f3d011682016040523d82523d6000602084013e6112f6565b606091505b5091509150611306828286611325565b92505050949350505050565b600080823b905060008111915050919050565b6060831561133557829050611385565b6000835111156113485782518084602001fd5b816040517f08c379a000000000000000000000000000000000000000000000000000000000815260040161137c91906120b0565b60405180910390fd5b9392505050565b600080fd5b6000819050919050565b6113a481611391565b81146113af57600080fd5b50565b6000813590506113c18161139b565b92915050565b6000602082840312156113dd576113dc61138c565b5b60006113eb848285016113b2565b91505092915050565b600c811061140157600080fd5b50565b600081359050611413816113f4565b92915050565b60006020828403121561142f5761142e61138c565b5b600061143d84828501611404565b91505092915050565b61144f81611391565b82525050565b600060208201905061146a6000830184611446565b92915050565b60008115159050919050565b61148581611470565b82525050565b60006020820190506114a0600083018461147c565b92915050565b7f4e487b7100000000000000000000000000000000000000000000000000000000600052602160045260246000fd5b600c81106114e6576114e56114a6565b5b50565b60008190506114f7826114d5565b919050565b6000611507826114e9565b9050919050565b611517816114fc565b82525050565b600073ffffffffffffffffffffffffffffffffffffffff82169050919050565b60006115488261151d565b9050919050565b6115588161153d565b82525050565b600061012082019050611574600083018c61150e565b611581602083018b61154f565b61158e604083018a611446565b61159b6060830189611446565b6115a86080830188611446565b6115b560a0830187611446565b6115c260c0830186611446565b6115cf60e0830185611446565b6115dd610100830184611446565b9a9950505050505050505050565b6000602082019050611600600083018461154f565b92915050565b61160f8161153d565b811461161a57600080fd5b50565b60008135905061162c81611606565b92915050565b600080604083850312156116495761164861138c565b5b60006116578582860161161d565b9250506020611668858286016113b2565b9150509250929050565b6000602082840312156116885761168761138c565b5b60006116968482850161161d565b91505092915050565b600082825260208201905092915050565b7f4f776e61626c653a2063616c6c6572206973206e6f7420746865206f776e6572600082015250565b60006116e660208361169f565b91506116f1826116b0565b602082019050919050565b60006020820190508181036000830152611715816116d9565b9050919050565b7f436f6e747261637420616c726561647920696e697469616c697a656400000000600082015250565b6000611752601c8361169f565b915061175d8261171c565b602082019050919050565b6000602082019050818103600083015261178181611745565b9050919050565b7f4e487b7100000000000000000000000000000000000000000000000000000000600052601160045260246000fd5b60006117c282611391565b91507fffffffffffffffffffffffffffffffffffffffffffffffffffffffffffffffff8214156117f5576117f4611788565b5b600182019050919050565b7f436f6e7472616374206e6f7420696e697469616c697a65640000000000000000600082015250565b600061183660188361169f565b915061184182611800565b602082019050919050565b6000602082019050818103600083015261186581611829565b9050919050565b7f4e6f20746f6b656e7320617661696c61626c6520666f7220776974686472617760008201527f6c00000000000000000000000000000000000000000000000000000000000000602082015250565b60006118c860218361169f565b91506118d38261186c565b604082019050919050565b600060208201905081810360008301526118f7816118bb565b9050919050565b7f4f776e61626c653a206e6577206f776e657220697320746865207a65726f206160008201527f6464726573730000000000000000000000000000000000000000000000000000602082015250565b600061195a60268361169f565b9150611965826118fe565b604082019050919050565b600060208201905081810360008301526119898161194d565b9050919050565b7f4e487b7100000000000000000000000000000000000000000000000000000000600052601260045260246000fd5b60006119ca82611391565b91506119d583611391565b9250826119e5576119e4611990565b5b828204905092915050565b60006119fb82611391565b9150611a0683611391565b9250827fffffffffffffffffffffffffffffffffffffffffffffffffffffffffffffffff03821115611a3b57611a3a611788565b5b828201905092915050565b6000611a5182611391565b9150611a5c83611391565b925082821015611a6f57611a6e611788565b5b828203905092915050565b6000611a8582611391565b9150611a9083611391565b925082611aa057611a9f611990565b5b828206905092915050565b6000611ab682611391565b9150611ac183611391565b9250817fffffffffffffffffffffffffffffffffffffffffffffffffffffffffffffffff0483118215151615611afa57611af9611788565b5b828202905092915050565b6000604082019050611b1a600083018561154f565b611b276020830184611446565b9392505050565b6000819050919050565b6000611b4382611b2e565b9150611b4e83611b2e565b9250817f7fffffffffffffffffffffffffffffffffffffffffffffffffffffffffffffff03831360008312151615611b8957611b88611788565b5b817f8000000000000000000000000000000000000000000000000000000000000000038312600083121615611bc157611bc0611788565b5b828201905092915050565b6000611bd782611b2e565b9150611be283611b2e565b9250827f7fffffffffffffffffffffffffffffffffffffffffffffffffffffffffffffff0482116000841360008413161615611c2157611c20611788565b5b817f80000000000000000000000000000000000000000000000000000000000000000583126000841260008413161615611c5e57611c5d611788565b5b827f80000000000000000000000000000000000000000000000000000000000000000582126000841360008412161615611c9b57611c9a611788565b5b827f7fffffffffffffffffffffffffffffffffffffffffffffffffffffffffffffff0582126000841260008412161615611cd857611cd7611788565b5b828202905092915050565b6000611cee82611b2e565b9150611cf983611b2e565b925082611d0957611d08611990565b5b600160000383147f800000000000000000000000000000000000000000000000000000000000000083141615611d4257611d41611788565b5b828205905092915050565b6000611d5882611b2e565b9150611d6383611b2e565b9250827f800000000000000000000000000000000000000000000000000000000000000001821260008412151615611d9e57611d9d611788565b5b827f7fffffffffffffffffffffffffffffffffffffffffffffffffffffffffffffff018213600084121615611dd657611dd5611788565b5b828203905092915050565b611dea81611470565b8114611df557600080fd5b50565b600081519050611e0781611de1565b92915050565b600060208284031215611e2357611e2261138c565b5b6000611e3184828501611df8565b91505092915050565b7f5361666545524332303a204552433230206f7065726174696f6e20646964206e60008201527f6f74207375636365656400000000000000000000000000000000000000000000602082015250565b6000611e96602a8361169f565b9150611ea182611e3a565b604082019050919050565b60006020820190508181036000830152611ec581611e89565b9050919050565b7f416464726573733a20696e73756666696369656e742062616c616e636520666f60008201527f722063616c6c0000000000000000000000000000000000000000000000000000602082015250565b6000611f2860268361169f565b9150611f3382611ecc565b604082019050919050565b60006020820190508181036000830152611f5781611f1b565b9050919050565b7f416464726573733a2063616c6c20746f206e6f6e2d636f6e7472616374000000600082015250565b6000611f94601d8361169f565b9150611f9f82611f5e565b602082019050919050565b60006020820190508181036000830152611fc381611f87565b9050919050565b600081519050919050565b600081905092915050565b60005b83811015611ffe578082015181840152602081019050611fe3565b8381111561200d576000848401525b50505050565b600061201e82611fca565b6120288185611fd5565b9350612038818560208601611fe0565b80840191505092915050565b60006120508284612013565b915081905092915050565b600081519050919050565b6000601f19601f8301169050919050565b60006120828261205b565b61208c818561169f565b935061209c818560208601611fe0565b6120a581612066565b840191505092915050565b600060208201905081810360008301526120ca8184612077565b90509291505056fea2646970667358221220c7a6f5d6e81ab85ebccc1ddbc631c7c57eb2fc5b02cc3bf473421bc4b1ccbb2464736f6c63430008090033",
  "immutableReferences": {},
  "source": "// SPDX-License-Identifier: MIT\n\npragma solidity 0.8.9;\n\nimport \"@openzeppelin/contracts/token/ERC20/utils/SafeERC20.sol\";\nimport \"@openzeppelin/contracts/utils/math/SafeMath.sol\";\nimport \"@openzeppelin/contracts/access/Ownable.sol\";\nimport \"./BokkyPooBahsDateTimeLibrary.sol\";\n\n/**\n  @title Contract to calculate the tokens that can be withdrawn\n  for different distribution pools\n*/\ncontract FanTokenVesting is Ownable {\n    using BokkyPooBahsDateTimeLibrary for uint256;\n    using SafeERC20 for IERC20;\n    using SafeMath for uint256;\n\n    enum DistributionType {\n        TEAM,\n        SEED,\n        STRATEGIC,\n        PRIVATE1,\n        PRIVATE2,\n        PUBLIC,\n        ADVISORS,\n        LIQUIDITY,\n        REWARDS,\n        MARKETING,\n        RESERVES,\n        ECOSYSTEM\n    }\n    event DistributionAdded(\n        address indexed investor,\n        address indexed caller,\n        DistributionType indexed distributionType,\n        uint256 totalTokensAllotted,\n        uint256 initialTokensReleased,\n        uint256 cliffPeriodMonths,\n        uint256 vestingPeriodMonths\n    );\n    event WithdrawnTokens(address indexed investor, uint256 value);\n    event RecoverToken(address indexed token, uint256 indexed amount);\n\n    uint256 private _initialTimestamp;\n    IERC20 private _fanToken;\n\n    /**\n      @dev Cliff and Vesting happen in months but the allocation \n      is in days. So, an extra field is added to store the \n      number of days from initialization. This is calculated one time\n      during initialization to avoid the gas fees from \n      calculating it on every withdrawl.\n    */\n    struct Distribution {\n        DistributionType distributionType;\n        address beneficiary;\n        uint256 totalTokensAllotted;\n        uint256 initialTokensReleased;\n        uint256 cliffPeriodMonths;\n        uint256 cliffPeriodDays;\n        uint256 vestingPeriodMonths;\n        uint256 vestingPeriodDays;\n        uint256 withdrawnTokens;\n    }\n\n    mapping(DistributionType => Distribution) public distributionInfo;\n\n    /**\n      @dev Boolean variable that indicates whether the contract was initialized.\n   */\n    bool public isInitialized = false;\n\n    /**\n      @dev Checks that the contract is initialized.\n   */\n    modifier initialized() {\n        require(isInitialized, \"Contract not initialized\");\n        _;\n    }\n\n    /**\n      @dev Checks that the contract is not initialized.\n   */\n    modifier notInitialized() {\n        require(!isInitialized, \"Contract already initialized\");\n        _;\n    }\n\n    constructor(address _token, address _treasury) {\n        require(\n            address(_token) != address(0x0),\n            \"FAW token address is not valid\"\n        );\n        _fanToken = IERC20(_token);\n\n        // 12.5%, 0% TGE, 12 month cliff, linear release for 36 months\n        _addDistribution(\n            _treasury,\n            DistributionType.TEAM,\n            125000000 * (10**18),\n            0 * (10**18),\n            12,\n            36\n        );\n\n        // 2%, 5% TGE, 1 month cliff, linear release for 11 months\n        _addDistribution(\n            _treasury,\n            DistributionType.SEED,\n            20000000 * (10**18),\n            1000000 * (10**18),\n            1,\n            12\n        );\n\n        // 5.1%, 5% TGE, 1 month cliff, linear release for 11 months\n        _addDistribution(\n            _treasury,\n            DistributionType.STRATEGIC,\n            51000000 * (10**18),\n            2550000 * (10**18),\n            1,\n            12\n        );\n\n        // TBD, 7% TGE, 1 month cliff, linear release for 11 months\n        _addDistribution(\n            _treasury,\n            DistributionType.PRIVATE1,\n            46000000 * (10**18),\n            3220000 * (10**18),\n            1,\n            12\n        );\n\n        // 6%, 8% TGE, 1 month cliff, linear release for 11 months\n        _addDistribution(\n            _treasury,\n            DistributionType.PRIVATE2,\n            60000000 * (10**18),\n            4800000 * (10**18),\n            1,\n            12\n        );\n\n        // 2.3%, 20% TGE, no cliff, linear release for 4 months\n        _addDistribution(\n            _treasury,\n            DistributionType.PUBLIC,\n            23000000 * (10**18),\n            4600000 * (10**18),\n            0,\n            4\n        );\n\n        // 7%, 0% TGE, 6 month cliff, linear release for 18 months\n        _addDistribution(\n            _treasury,\n            DistributionType.ADVISORS,\n            70000000 * (10**18),\n            0 * (10**18),\n            6,\n            18\n        );\n\n        // 2%, 100% TGE, no cliff, no vesting\n        _addDistribution(\n            _treasury,\n            DistributionType.LIQUIDITY,\n            20000000 * (10**18),\n            20000000 * (10**18),\n            0,\n            0\n        );\n\n        // 20%, 0% TGE, 2 month cliff, linear release for 24 months\n        _addDistribution(\n            _treasury,\n            DistributionType.REWARDS,\n            200000000 * (10**18),\n            0 * (10**18),\n            2,\n            24\n        );\n\n        // 12%, 5% TGE, no cliff, linear release for 24 months\n        _addDistribution(\n            _treasury,\n            DistributionType.MARKETING,\n            120000000 * (10**18),\n            6000000 * (10**18),\n            0,\n            24\n        );\n\n        // 13.5%, 5% TGE, no cliff, linear release for 24 months\n        _addDistribution(\n            _treasury,\n            DistributionType.RESERVES,\n            135000000 * (10**18),\n            6750000 * (10**18),\n            0,\n            24\n        );\n\n        // 13%, 0% TGE, 1 month cliff, linear release for 18 months\n        _addDistribution(\n            _treasury,\n            DistributionType.ECOSYSTEM,\n            130000000 * (10**18),\n            0 * (10**18),\n            1,\n            18\n        );\n    }\n\n    /// @dev Returns the vesting initilization timestamp\n    function getInitialTimestamp() public view returns (uint256 timestamp) {\n        return _initialTimestamp;\n    }\n\n    /**\n      @dev Adds Distribution for the beneficiary in the `_distributionType` pool. Note that the initial token will be withdrawable only after the initialization date\n      @param _beneficiary The address of distribution\n      @param _distributionType The pool type to which the tokens are allotted\n      @param _totalTokensAllotted The total number tokens allotted to the beneficiary in the `_distributionType` pool\n      @param _initialTokensReleased Number of tokens released on TGE\n      @param _cliffPeriodMonths Cliff period in months\n      @param _vestingPeriodMonths Vesting period in months\n     */\n    function _addDistribution(\n        address _beneficiary,\n        DistributionType _distributionType,\n        uint256 _totalTokensAllotted,\n        uint256 _initialTokensReleased,\n        uint256 _cliffPeriodMonths,\n        uint256 _vestingPeriodMonths\n    ) internal {\n        require(_beneficiary != address(0), \"Invalid beneficiary address\");\n        Distribution storage distribution = distributionInfo[_distributionType];\n        distribution.distributionType = _distributionType;\n        distribution.beneficiary = _beneficiary;\n        distribution.totalTokensAllotted = _totalTokensAllotted;\n        distribution.cliffPeriodMonths = _cliffPeriodMonths;\n        distribution.vestingPeriodMonths = _vestingPeriodMonths;\n        distribution.initialTokensReleased = _initialTokensReleased;\n        distribution.withdrawnTokens = 0;\n\n        emit DistributionAdded(\n            _beneficiary,\n            _msgSender(),\n            _distributionType,\n            _totalTokensAllotted,\n            _initialTokensReleased,\n            _cliffPeriodMonths,\n            _vestingPeriodMonths\n        );\n    }\n\n    function withdrawTokens(DistributionType _distributionType)\n        external\n        onlyOwner\n        initialized\n    {\n        Distribution storage distribution = distributionInfo[_distributionType];\n\n        uint256 tokensWithdrawable = withdrawableTokens(_distributionType);\n\n        require(tokensWithdrawable > 0, \"No tokens available for withdrawl\");\n\n        distribution.withdrawnTokens = distribution.withdrawnTokens.add(\n            tokensWithdrawable\n        );\n\n        // Transfer the amount in the end to avoid reentrancy attacks\n        _fanToken.safeTransfer(distribution.beneficiary, tokensWithdrawable);\n\n        emit WithdrawnTokens(_msgSender(), tokensWithdrawable);\n    }\n\n    /**\n      Initialize the contract by setting the initial timestamp.\n      @dev This function can only be called once by the owner.\n      Upon invocation, the function also calculates the vesting \n      and cliff periods for each distribution based on the \n      number of days in the months from the initialization timestamp\n      @param _timestamp The initial timestamp, this timestamp will be used for vesting\n    */\n    function setInitialTimestamp(uint256 _timestamp)\n        external\n        onlyOwner\n        notInitialized\n    {\n        isInitialized = true;\n        _initialTimestamp = _timestamp;\n\n        for (uint256 i = 0; i <= uint256(type(DistributionType).max); i++) {\n            Distribution storage distribution = distributionInfo[\n                DistributionType(i)\n            ];\n\n            uint256 cliffPeriodMonths = distribution.cliffPeriodMonths;\n            uint256 cliffEndTimestamp = BokkyPooBahsDateTimeLibrary.addMonths(\n                _timestamp,\n                cliffPeriodMonths\n            );\n            distribution.cliffPeriodDays = BokkyPooBahsDateTimeLibrary.diffDays(\n                _timestamp,\n                cliffEndTimestamp\n            );\n\n            uint256 vestingPeriodMonths = distribution.vestingPeriodMonths;\n            uint256 vestingEndTimestamp = BokkyPooBahsDateTimeLibrary.addMonths(\n                _timestamp,\n                vestingPeriodMonths\n            );\n            distribution.vestingPeriodDays = BokkyPooBahsDateTimeLibrary\n                .diffDays(_timestamp, vestingEndTimestamp);\n        }\n    }\n\n    /**\n      Returns the amount of tokens that can be withdrawn from \n      the contract for the specified distribution type.\n      @param distributionType The distribution type\n      @return tokens The amount of tokens that can be withdrawn from \n      the contract for the distribution type\n    */\n    function withdrawableTokens(DistributionType distributionType)\n        public\n        view\n        returns (uint256 tokens)\n    {\n        // Even the initialTokensReleased cannot be withdrawn\n        // before contract initialization\n        if (!isInitialized) {\n            return 0;\n        }\n\n        Distribution storage distribution = distributionInfo[distributionType];\n\n        // Get the number of tokens available for withdrawl based\n        // on the number of DAYS elapsed since the contract was initialized\n        uint256 vestedTokens = _calculateVestedTokens(distributionType);\n\n        return (\n            (vestedTokens.add(distribution.initialTokensReleased)).sub(\n                distribution.withdrawnTokens\n            )\n        );\n    }\n\n    event Log(\n        DistributionType d,\n        uint256 noOfDays,\n        uint256 tokensVested,\n        uint256 blockTs,\n        string vestingType\n    );\n\n    function _calculateVestedTokens(DistributionType distributionType)\n        private\n        view\n        returns (uint256 _amountVested)\n    {\n        // Block timestamp is used here since the issuance happens\n        // on a daily basis. Minor time uncertainities are acceptable\n        uint256 currentTimeStamp = block.timestamp;\n        uint256 noOfDays = BokkyPooBahsDateTimeLibrary.diffDays(\n            _initialTimestamp,\n            currentTimeStamp\n        );\n\n        Distribution storage distribution = distributionInfo[distributionType];\n\n        if (noOfDays <= distribution.cliffPeriodDays) {\n            // emit Log(distributionType, noOfDays, 0, currentTimeStamp, \"CLIFF\");\n            return 0;\n        } else if (noOfDays >= distribution.vestingPeriodDays) {\n            /* emit Log(\n                distributionType,\n                noOfDays,\n                distribution.totalTokensAllotted,\n                currentTimeStamp,\n                \"TOTALVESTED\"\n            ); */\n            return distribution.totalTokensAllotted;\n        } else {\n            uint256 vestedTokens = (\n                (\n                    distribution.totalTokensAllotted.sub(\n                        distribution.initialTokensReleased\n                    )\n                ).div(distribution.vestingPeriodDays)\n            ).mul(noOfDays);\n\n            /* emit Log(\n                distributionType,\n                noOfDays,\n                vestedTokens,\n                currentTimeStamp,\n                \"PARTIALLYVESTED\"\n            ); */\n            return vestedTokens;\n        }\n    }\n\n    function recoverExcessToken(address _token, uint256 amount)\n        external\n        onlyOwner\n    {\n        IERC20(_token).safeTransfer(_msgSender(), amount);\n        emit RecoverToken(_token, amount);\n    }\n}\n",
  "sourcePath": "/home/liveserver/Projects/fantoken/truffle/contracts/FanTokenVesting.sol",
  "compiler": {
    "name": "solc",
    "version": "0.8.9+commit.e5eed63a.Emscripten.clang"
  },
  "schemaVersion": "3.4.3",
  "updatedAt": "2021-11-22T20:30:28.201Z",
  "networkType": "ethereum",
  "devdoc": {
    "kind": "dev",
    "methods": {
      "getInitialTimestamp()": {
        "details": "Returns the vesting initilization timestamp"
      },
      "owner()": {
        "details": "Returns the address of the current owner."
      },
      "renounceOwnership()": {
        "details": "Leaves the contract without owner. It will not be possible to call `onlyOwner` functions anymore. Can only be called by the current owner. NOTE: Renouncing ownership will leave the contract without an owner, thereby removing any functionality that is only available to the owner."
      },
      "setInitialTimestamp(uint256)": {
        "details": "This function can only be called once by the owner. Upon invocation, the function also calculates the vesting  and cliff periods for each distribution based on the  number of days in the months from the initialization timestamp",
        "params": {
          "_timestamp": "The initial timestamp, this timestamp will be used for vesting"
        }
      },
      "transferOwnership(address)": {
        "details": "Transfers ownership of the contract to a new account (`newOwner`). Can only be called by the current owner."
      },
      "withdrawableTokens(uint8)": {
        "params": {
          "distributionType": "The distribution type"
        },
        "returns": {
          "tokens": "The amount of tokens that can be withdrawn from  the contract for the distribution type"
        }
      }
    },
    "stateVariables": {
      "isInitialized": {
        "details": "Boolean variable that indicates whether the contract was initialized."
      }
    },
    "title": "Contract to calculate the tokens that can be withdrawn for different distribution pools",
    "version": 1
  },
  "userdoc": {
    "kind": "user",
    "methods": {
      "setInitialTimestamp(uint256)": {
        "notice": "Initialize the contract by setting the initial timestamp."
      },
      "withdrawableTokens(uint8)": {
        "notice": "Returns the amount of tokens that can be withdrawn from  the contract for the specified distribution type."
      }
    },
    "version": 1
  }
}